{
	"contracts/5_Distribution_Token.sol": {
		"DistributionRevenus": {
			"abi": [
				{
					"inputs": [
						{
							"internalType": "address[]",
							"name": "_addresses",
							"type": "address[]"
						},
						{
							"internalType": "uint256[]",
							"name": "_balances",
							"type": "uint256[]"
						}
					],
					"stateMutability": "payable",
					"type": "constructor"
				},
				{
					"anonymous": false,
					"inputs": [
						{
							"indexed": true,
							"internalType": "address",
							"name": "recipient",
							"type": "address"
						},
						{
							"indexed": false,
							"internalType": "uint256",
							"name": "amount",
							"type": "uint256"
						}
					],
					"name": "Payment",
					"type": "event"
				},
				{
					"inputs": [
						{
							"internalType": "address",
							"name": "",
							"type": "address"
						}
					],
					"name": "balances",
					"outputs": [
						{
							"internalType": "uint256",
							"name": "",
							"type": "uint256"
						}
					],
					"stateMutability": "view",
					"type": "function"
				},
				{
					"inputs": [
						{
							"internalType": "uint256",
							"name": "distributedAmount",
							"type": "uint256"
						}
					],
					"name": "distribute",
					"outputs": [],
					"stateMutability": "payable",
					"type": "function"
				},
				{
					"inputs": [
						{
							"internalType": "uint256",
							"name": "",
							"type": "uint256"
						}
					],
					"name": "tokenHolders",
					"outputs": [
						{
							"internalType": "address",
							"name": "",
							"type": "address"
						}
					],
					"stateMutability": "view",
					"type": "function"
				},
				{
					"inputs": [],
					"name": "totalSupply",
					"outputs": [
						{
							"internalType": "uint256",
							"name": "",
							"type": "uint256"
						}
					],
					"stateMutability": "view",
					"type": "function"
				}
			],
			"devdoc": {
				"kind": "dev",
				"methods": {},
				"version": 1
			},
			"evm": {
				"assembly": "    /* \"contracts/5_Distribution_Token.sol\":74:2496  contract DistributionRevenus {... */\n  mstore(0x40, 0x80)\n    /* \"contracts/5_Distribution_Token.sol\":616:1006  constructor(address[] memory _addresses, uint256[] memory _balances) payable {... */\n  mload(0x40)\n  sub(codesize, bytecodeSize)\n  dup1\n  bytecodeSize\n  dup4\n  codecopy\n  dup2\n  dup2\n  add\n  0x40\n  mstore\n  dup2\n  add\n  swap1\n  tag_1\n  swap2\n  swap1\n  tag_2\n  jump\t// in\ntag_1:\n    /* \"contracts/5_Distribution_Token.sol\":733:742  _balances */\n  dup1\n    /* \"contracts/5_Distribution_Token.sol\":733:749  _balances.length */\n  mload\n    /* \"contracts/5_Distribution_Token.sol\":712:722  _addresses */\n  dup3\n    /* \"contracts/5_Distribution_Token.sol\":712:729  _addresses.length */\n  mload\n    /* \"contracts/5_Distribution_Token.sol\":712:749  _addresses.length == _balances.length */\n  eq\n    /* \"contracts/5_Distribution_Token.sol\":704:784  require(_addresses.length == _balances.length, \"Longueurs de donnees invalides\") */\n  tag_5\n  jumpi\n  mload(0x40)\n  0x08c379a000000000000000000000000000000000000000000000000000000000\n  dup2\n  mstore\n  0x04\n  add\n  tag_6\n  swap1\n  tag_7\n  jump\t// in\ntag_6:\n  mload(0x40)\n  dup1\n  swap2\n  sub\n  swap1\n  revert\ntag_5:\n    /* \"contracts/5_Distribution_Token.sol\":802:811  uint256 i */\n  0x00\n    /* \"contracts/5_Distribution_Token.sol\":797:999  for (uint256 i = 0; i < _addresses.length; i++) {... */\ntag_8:\n    /* \"contracts/5_Distribution_Token.sol\":821:831  _addresses */\n  dup3\n    /* \"contracts/5_Distribution_Token.sol\":821:838  _addresses.length */\n  mload\n    /* \"contracts/5_Distribution_Token.sol\":817:818  i */\n  dup2\n    /* \"contracts/5_Distribution_Token.sol\":817:838  i < _addresses.length */\n  lt\n    /* \"contracts/5_Distribution_Token.sol\":797:999  for (uint256 i = 0; i < _addresses.length; i++) {... */\n  iszero\n  tag_9\n  jumpi\n    /* \"contracts/5_Distribution_Token.sol\":886:895  _balances */\n  dup2\n    /* \"contracts/5_Distribution_Token.sol\":896:897  i */\n  dup2\n    /* \"contracts/5_Distribution_Token.sol\":886:898  _balances[i] */\n  dup2\n  mload\n  dup2\n  lt\n  tag_11\n  jumpi\n  tag_12\n  tag_13\n  jump\t// in\ntag_12:\ntag_11:\n  0x20\n  mul\n  0x20\n  add\n  add\n  mload\n    /* \"contracts/5_Distribution_Token.sol\":860:868  balances */\n  0x00\n    /* \"contracts/5_Distribution_Token.sol\":860:883  balances[_addresses[i]] */\n  dup1\n    /* \"contracts/5_Distribution_Token.sol\":869:879  _addresses */\n  dup6\n    /* \"contracts/5_Distribution_Token.sol\":880:881  i */\n  dup5\n    /* \"contracts/5_Distribution_Token.sol\":869:882  _addresses[i] */\n  dup2\n  mload\n  dup2\n  lt\n  tag_14\n  jumpi\n  tag_15\n  tag_13\n  jump\t// in\ntag_15:\ntag_14:\n  0x20\n  mul\n  0x20\n  add\n  add\n  mload\n    /* \"contracts/5_Distribution_Token.sol\":860:883  balances[_addresses[i]] */\n  0xffffffffffffffffffffffffffffffffffffffff\n  and\n  0xffffffffffffffffffffffffffffffffffffffff\n  and\n  dup2\n  mstore\n  0x20\n  add\n  swap1\n  dup2\n  mstore\n  0x20\n  add\n  0x00\n  keccak256\n    /* \"contracts/5_Distribution_Token.sol\":860:898  balances[_addresses[i]] = _balances[i] */\n  dup2\n  swap1\n  sstore\n  pop\n    /* \"contracts/5_Distribution_Token.sol\":913:925  tokenHolders */\n  0x01\n    /* \"contracts/5_Distribution_Token.sol\":931:941  _addresses */\n  dup4\n    /* \"contracts/5_Distribution_Token.sol\":942:943  i */\n  dup3\n    /* \"contracts/5_Distribution_Token.sol\":931:944  _addresses[i] */\n  dup2\n  mload\n  dup2\n  lt\n  tag_16\n  jumpi\n  tag_17\n  tag_13\n  jump\t// in\ntag_17:\ntag_16:\n  0x20\n  mul\n  0x20\n  add\n  add\n  mload\n    /* \"contracts/5_Distribution_Token.sol\":913:945  tokenHolders.push(_addresses[i]) */\n  swap1\n  dup1\n  0x01\n  dup2\n  sload\n  add\n  dup1\n  dup3\n  sstore\n  dup1\n  swap2\n  pop\n  pop\n  0x01\n  swap1\n  sub\n  swap1\n  0x00\n  mstore\n  keccak256(0x00, 0x20)\n  add\n  0x00\n  swap1\n  swap2\n  swap1\n  swap2\n  swap1\n  swap2\n  0x0100\n  exp\n  dup2\n  sload\n  dup2\n  0xffffffffffffffffffffffffffffffffffffffff\n  mul\n  not\n  and\n  swap1\n  dup4\n  0xffffffffffffffffffffffffffffffffffffffff\n  and\n  mul\n  or\n  swap1\n  sstore\n  pop\n    /* \"contracts/5_Distribution_Token.sol\":975:984  _balances */\n  dup2\n    /* \"contracts/5_Distribution_Token.sol\":985:986  i */\n  dup2\n    /* \"contracts/5_Distribution_Token.sol\":975:987  _balances[i] */\n  dup2\n  mload\n  dup2\n  lt\n  tag_19\n  jumpi\n  tag_20\n  tag_13\n  jump\t// in\ntag_20:\ntag_19:\n  0x20\n  mul\n  0x20\n  add\n  add\n  mload\n    /* \"contracts/5_Distribution_Token.sol\":960:971  totalSupply */\n  0x02\n  0x00\n    /* \"contracts/5_Distribution_Token.sol\":960:987  totalSupply += _balances[i] */\n  dup3\n  dup3\n  sload\n  tag_21\n  swap2\n  swap1\n  tag_22\n  jump\t// in\ntag_21:\n  swap3\n  pop\n  pop\n  dup2\n  swap1\n  sstore\n  pop\n    /* \"contracts/5_Distribution_Token.sol\":840:843  i++ */\n  dup1\n  dup1\n  tag_23\n  swap1\n  tag_24\n  jump\t// in\ntag_23:\n  swap2\n  pop\n  pop\n    /* \"contracts/5_Distribution_Token.sol\":797:999  for (uint256 i = 0; i < _addresses.length; i++) {... */\n  jump(tag_8)\ntag_9:\n  pop\n    /* \"contracts/5_Distribution_Token.sol\":616:1006  constructor(address[] memory _addresses, uint256[] memory _balances) payable {... */\n  pop\n  pop\n    /* \"contracts/5_Distribution_Token.sol\":74:2496  contract DistributionRevenus {... */\n  jump(tag_25)\n    /* \"#utility.yul\":7:82   */\ntag_26:\n    /* \"#utility.yul\":40:46   */\n  0x00\n    /* \"#utility.yul\":73:75   */\n  0x40\n    /* \"#utility.yul\":67:76   */\n  mload\n    /* \"#utility.yul\":57:76   */\n  swap1\n  pop\n    /* \"#utility.yul\":7:82   */\n  swap1\n  jump\t// out\n    /* \"#utility.yul\":88:205   */\ntag_27:\n    /* \"#utility.yul\":197:198   */\n  0x00\n    /* \"#utility.yul\":194:195   */\n  dup1\n    /* \"#utility.yul\":187:199   */\n  revert\n    /* \"#utility.yul\":211:328   */\ntag_28:\n    /* \"#utility.yul\":320:321   */\n  0x00\n    /* \"#utility.yul\":317:318   */\n  dup1\n    /* \"#utility.yul\":310:322   */\n  revert\n    /* \"#utility.yul\":334:451   */\ntag_29:\n    /* \"#utility.yul\":443:444   */\n  0x00\n    /* \"#utility.yul\":440:441   */\n  dup1\n    /* \"#utility.yul\":433:445   */\n  revert\n    /* \"#utility.yul\":457:559   */\ntag_30:\n    /* \"#utility.yul\":498:504   */\n  0x00\n    /* \"#utility.yul\":549:551   */\n  0x1f\n    /* \"#utility.yul\":545:552   */\n  not\n    /* \"#utility.yul\":540:542   */\n  0x1f\n    /* \"#utility.yul\":533:538   */\n  dup4\n    /* \"#utility.yul\":529:543   */\n  add\n    /* \"#utility.yul\":525:553   */\n  and\n    /* \"#utility.yul\":515:553   */\n  swap1\n  pop\n    /* \"#utility.yul\":457:559   */\n  swap2\n  swap1\n  pop\n  jump\t// out\n    /* \"#utility.yul\":565:745   */\ntag_31:\n    /* \"#utility.yul\":613:690   */\n  0x4e487b7100000000000000000000000000000000000000000000000000000000\n    /* \"#utility.yul\":610:611   */\n  0x00\n    /* \"#utility.yul\":603:691   */\n  mstore\n    /* \"#utility.yul\":710:714   */\n  0x41\n    /* \"#utility.yul\":707:708   */\n  0x04\n    /* \"#utility.yul\":700:715   */\n  mstore\n    /* \"#utility.yul\":734:738   */\n  0x24\n    /* \"#utility.yul\":731:732   */\n  0x00\n    /* \"#utility.yul\":724:739   */\n  revert\n    /* \"#utility.yul\":751:1032   */\ntag_32:\n    /* \"#utility.yul\":834:861   */\n  tag_60\n    /* \"#utility.yul\":856:860   */\n  dup3\n    /* \"#utility.yul\":834:861   */\n  tag_30\n  jump\t// in\ntag_60:\n    /* \"#utility.yul\":826:832   */\n  dup2\n    /* \"#utility.yul\":822:862   */\n  add\n    /* \"#utility.yul\":964:970   */\n  dup2\n    /* \"#utility.yul\":952:962   */\n  dup2\n    /* \"#utility.yul\":949:971   */\n  lt\n    /* \"#utility.yul\":928:946   */\n  0xffffffffffffffff\n    /* \"#utility.yul\":916:926   */\n  dup3\n    /* \"#utility.yul\":913:947   */\n  gt\n    /* \"#utility.yul\":910:972   */\n  or\n    /* \"#utility.yul\":907:995   */\n  iszero\n  tag_61\n  jumpi\n    /* \"#utility.yul\":975:993   */\n  tag_62\n  tag_31\n  jump\t// in\ntag_62:\n    /* \"#utility.yul\":907:995   */\ntag_61:\n    /* \"#utility.yul\":1015:1025   */\n  dup1\n    /* \"#utility.yul\":1011:1013   */\n  0x40\n    /* \"#utility.yul\":1004:1026   */\n  mstore\n    /* \"#utility.yul\":794:1032   */\n  pop\n    /* \"#utility.yul\":751:1032   */\n  pop\n  pop\n  jump\t// out\n    /* \"#utility.yul\":1038:1167   */\ntag_33:\n    /* \"#utility.yul\":1072:1078   */\n  0x00\n    /* \"#utility.yul\":1099:1119   */\n  tag_64\n  tag_26\n  jump\t// in\ntag_64:\n    /* \"#utility.yul\":1089:1119   */\n  swap1\n  pop\n    /* \"#utility.yul\":1128:1161   */\n  tag_65\n    /* \"#utility.yul\":1156:1160   */\n  dup3\n    /* \"#utility.yul\":1148:1154   */\n  dup3\n    /* \"#utility.yul\":1128:1161   */\n  tag_32\n  jump\t// in\ntag_65:\n    /* \"#utility.yul\":1038:1167   */\n  swap2\n  swap1\n  pop\n  jump\t// out\n    /* \"#utility.yul\":1173:1484   */\ntag_34:\n    /* \"#utility.yul\":1250:1254   */\n  0x00\n    /* \"#utility.yul\":1340:1358   */\n  0xffffffffffffffff\n    /* \"#utility.yul\":1332:1338   */\n  dup3\n    /* \"#utility.yul\":1329:1359   */\n  gt\n    /* \"#utility.yul\":1326:1382   */\n  iszero\n  tag_67\n  jumpi\n    /* \"#utility.yul\":1362:1380   */\n  tag_68\n  tag_31\n  jump\t// in\ntag_68:\n    /* \"#utility.yul\":1326:1382   */\ntag_67:\n    /* \"#utility.yul\":1412:1416   */\n  0x20\n    /* \"#utility.yul\":1404:1410   */\n  dup3\n    /* \"#utility.yul\":1400:1417   */\n  mul\n    /* \"#utility.yul\":1392:1417   */\n  swap1\n  pop\n    /* \"#utility.yul\":1472:1476   */\n  0x20\n    /* \"#utility.yul\":1466:1470   */\n  dup2\n    /* \"#utility.yul\":1462:1477   */\n  add\n    /* \"#utility.yul\":1454:1477   */\n  swap1\n  pop\n    /* \"#utility.yul\":1173:1484   */\n  swap2\n  swap1\n  pop\n  jump\t// out\n    /* \"#utility.yul\":1490:1607   */\ntag_35:\n    /* \"#utility.yul\":1599:1600   */\n  0x00\n    /* \"#utility.yul\":1596:1597   */\n  dup1\n    /* \"#utility.yul\":1589:1601   */\n  revert\n    /* \"#utility.yul\":1613:1739   */\ntag_36:\n    /* \"#utility.yul\":1650:1657   */\n  0x00\n    /* \"#utility.yul\":1690:1732   */\n  0xffffffffffffffffffffffffffffffffffffffff\n    /* \"#utility.yul\":1683:1688   */\n  dup3\n    /* \"#utility.yul\":1679:1733   */\n  and\n    /* \"#utility.yul\":1668:1733   */\n  swap1\n  pop\n    /* \"#utility.yul\":1613:1739   */\n  swap2\n  swap1\n  pop\n  jump\t// out\n    /* \"#utility.yul\":1745:1841   */\ntag_37:\n    /* \"#utility.yul\":1782:1789   */\n  0x00\n    /* \"#utility.yul\":1811:1835   */\n  tag_72\n    /* \"#utility.yul\":1829:1834   */\n  dup3\n    /* \"#utility.yul\":1811:1835   */\n  tag_36\n  jump\t// in\ntag_72:\n    /* \"#utility.yul\":1800:1835   */\n  swap1\n  pop\n    /* \"#utility.yul\":1745:1841   */\n  swap2\n  swap1\n  pop\n  jump\t// out\n    /* \"#utility.yul\":1847:1969   */\ntag_38:\n    /* \"#utility.yul\":1920:1944   */\n  tag_74\n    /* \"#utility.yul\":1938:1943   */\n  dup2\n    /* \"#utility.yul\":1920:1944   */\n  tag_37\n  jump\t// in\ntag_74:\n    /* \"#utility.yul\":1913:1918   */\n  dup2\n    /* \"#utility.yul\":1910:1945   */\n  eq\n    /* \"#utility.yul\":1900:1963   */\n  tag_75\n  jumpi\n    /* \"#utility.yul\":1959:1960   */\n  0x00\n    /* \"#utility.yul\":1956:1957   */\n  dup1\n    /* \"#utility.yul\":1949:1961   */\n  revert\n    /* \"#utility.yul\":1900:1963   */\ntag_75:\n    /* \"#utility.yul\":1847:1969   */\n  pop\n  jump\t// out\n    /* \"#utility.yul\":1975:2118   */\ntag_39:\n    /* \"#utility.yul\":2032:2037   */\n  0x00\n    /* \"#utility.yul\":2063:2069   */\n  dup2\n    /* \"#utility.yul\":2057:2070   */\n  mload\n    /* \"#utility.yul\":2048:2070   */\n  swap1\n  pop\n    /* \"#utility.yul\":2079:2112   */\n  tag_77\n    /* \"#utility.yul\":2106:2111   */\n  dup2\n    /* \"#utility.yul\":2079:2112   */\n  tag_38\n  jump\t// in\ntag_77:\n    /* \"#utility.yul\":1975:2118   */\n  swap3\n  swap2\n  pop\n  pop\n  jump\t// out\n    /* \"#utility.yul\":2141:2873   */\ntag_40:\n    /* \"#utility.yul\":2248:2253   */\n  0x00\n    /* \"#utility.yul\":2273:2354   */\n  tag_79\n    /* \"#utility.yul\":2289:2353   */\n  tag_80\n    /* \"#utility.yul\":2346:2352   */\n  dup5\n    /* \"#utility.yul\":2289:2353   */\n  tag_34\n  jump\t// in\ntag_80:\n    /* \"#utility.yul\":2273:2354   */\n  tag_33\n  jump\t// in\ntag_79:\n    /* \"#utility.yul\":2264:2354   */\n  swap1\n  pop\n    /* \"#utility.yul\":2374:2379   */\n  dup1\n    /* \"#utility.yul\":2403:2409   */\n  dup4\n    /* \"#utility.yul\":2396:2401   */\n  dup3\n    /* \"#utility.yul\":2389:2410   */\n  mstore\n    /* \"#utility.yul\":2437:2441   */\n  0x20\n    /* \"#utility.yul\":2430:2435   */\n  dup3\n    /* \"#utility.yul\":2426:2442   */\n  add\n    /* \"#utility.yul\":2419:2442   */\n  swap1\n  pop\n    /* \"#utility.yul\":2490:2494   */\n  0x20\n    /* \"#utility.yul\":2482:2488   */\n  dup5\n    /* \"#utility.yul\":2478:2495   */\n  mul\n    /* \"#utility.yul\":2470:2476   */\n  dup4\n    /* \"#utility.yul\":2466:2496   */\n  add\n    /* \"#utility.yul\":2519:2522   */\n  dup6\n    /* \"#utility.yul\":2511:2517   */\n  dup2\n    /* \"#utility.yul\":2508:2523   */\n  gt\n    /* \"#utility.yul\":2505:2627   */\n  iszero\n  tag_81\n  jumpi\n    /* \"#utility.yul\":2538:2617   */\n  tag_82\n  tag_35\n  jump\t// in\ntag_82:\n    /* \"#utility.yul\":2505:2627   */\ntag_81:\n    /* \"#utility.yul\":2653:2659   */\n  dup4\n    /* \"#utility.yul\":2636:2867   */\ntag_83:\n    /* \"#utility.yul\":2670:2676   */\n  dup2\n    /* \"#utility.yul\":2665:2668   */\n  dup2\n    /* \"#utility.yul\":2662:2677   */\n  lt\n    /* \"#utility.yul\":2636:2867   */\n  iszero\n  tag_85\n  jumpi\n    /* \"#utility.yul\":2745:2748   */\n  dup1\n    /* \"#utility.yul\":2774:2822   */\n  tag_86\n    /* \"#utility.yul\":2818:2821   */\n  dup9\n    /* \"#utility.yul\":2806:2816   */\n  dup3\n    /* \"#utility.yul\":2774:2822   */\n  tag_39\n  jump\t// in\ntag_86:\n    /* \"#utility.yul\":2769:2772   */\n  dup5\n    /* \"#utility.yul\":2762:2823   */\n  mstore\n    /* \"#utility.yul\":2852:2856   */\n  0x20\n    /* \"#utility.yul\":2847:2850   */\n  dup5\n    /* \"#utility.yul\":2843:2857   */\n  add\n    /* \"#utility.yul\":2836:2857   */\n  swap4\n  pop\n    /* \"#utility.yul\":2712:2867   */\n  pop\n    /* \"#utility.yul\":2696:2700   */\n  0x20\n    /* \"#utility.yul\":2691:2694   */\n  dup2\n    /* \"#utility.yul\":2687:2701   */\n  add\n    /* \"#utility.yul\":2680:2701   */\n  swap1\n  pop\n    /* \"#utility.yul\":2636:2867   */\n  jump(tag_83)\ntag_85:\n    /* \"#utility.yul\":2640:2661   */\n  pop\n    /* \"#utility.yul\":2254:2873   */\n  pop\n  pop\n    /* \"#utility.yul\":2141:2873   */\n  swap4\n  swap3\n  pop\n  pop\n  pop\n  jump\t// out\n    /* \"#utility.yul\":2896:3281   */\ntag_41:\n    /* \"#utility.yul\":2978:2983   */\n  0x00\n    /* \"#utility.yul\":3027:3030   */\n  dup3\n    /* \"#utility.yul\":3020:3024   */\n  0x1f\n    /* \"#utility.yul\":3012:3018   */\n  dup4\n    /* \"#utility.yul\":3008:3025   */\n  add\n    /* \"#utility.yul\":3004:3031   */\n  slt\n    /* \"#utility.yul\":2994:3116   */\n  tag_88\n  jumpi\n    /* \"#utility.yul\":3035:3114   */\n  tag_89\n  tag_29\n  jump\t// in\ntag_89:\n    /* \"#utility.yul\":2994:3116   */\ntag_88:\n    /* \"#utility.yul\":3145:3151   */\n  dup2\n    /* \"#utility.yul\":3139:3152   */\n  mload\n    /* \"#utility.yul\":3170:3275   */\n  tag_90\n    /* \"#utility.yul\":3271:3274   */\n  dup5\n    /* \"#utility.yul\":3263:3269   */\n  dup3\n    /* \"#utility.yul\":3256:3260   */\n  0x20\n    /* \"#utility.yul\":3248:3254   */\n  dup7\n    /* \"#utility.yul\":3244:3261   */\n  add\n    /* \"#utility.yul\":3170:3275   */\n  tag_40\n  jump\t// in\ntag_90:\n    /* \"#utility.yul\":3161:3275   */\n  swap2\n  pop\n    /* \"#utility.yul\":2984:3281   */\n  pop\n    /* \"#utility.yul\":2896:3281   */\n  swap3\n  swap2\n  pop\n  pop\n  jump\t// out\n    /* \"#utility.yul\":3287:3598   */\ntag_42:\n    /* \"#utility.yul\":3364:3368   */\n  0x00\n    /* \"#utility.yul\":3454:3472   */\n  0xffffffffffffffff\n    /* \"#utility.yul\":3446:3452   */\n  dup3\n    /* \"#utility.yul\":3443:3473   */\n  gt\n    /* \"#utility.yul\":3440:3496   */\n  iszero\n  tag_92\n  jumpi\n    /* \"#utility.yul\":3476:3494   */\n  tag_93\n  tag_31\n  jump\t// in\ntag_93:\n    /* \"#utility.yul\":3440:3496   */\ntag_92:\n    /* \"#utility.yul\":3526:3530   */\n  0x20\n    /* \"#utility.yul\":3518:3524   */\n  dup3\n    /* \"#utility.yul\":3514:3531   */\n  mul\n    /* \"#utility.yul\":3506:3531   */\n  swap1\n  pop\n    /* \"#utility.yul\":3586:3590   */\n  0x20\n    /* \"#utility.yul\":3580:3584   */\n  dup2\n    /* \"#utility.yul\":3576:3591   */\n  add\n    /* \"#utility.yul\":3568:3591   */\n  swap1\n  pop\n    /* \"#utility.yul\":3287:3598   */\n  swap2\n  swap1\n  pop\n  jump\t// out\n    /* \"#utility.yul\":3604:3681   */\ntag_43:\n    /* \"#utility.yul\":3641:3648   */\n  0x00\n    /* \"#utility.yul\":3670:3675   */\n  dup2\n    /* \"#utility.yul\":3659:3675   */\n  swap1\n  pop\n    /* \"#utility.yul\":3604:3681   */\n  swap2\n  swap1\n  pop\n  jump\t// out\n    /* \"#utility.yul\":3687:3809   */\ntag_44:\n    /* \"#utility.yul\":3760:3784   */\n  tag_96\n    /* \"#utility.yul\":3778:3783   */\n  dup2\n    /* \"#utility.yul\":3760:3784   */\n  tag_43\n  jump\t// in\ntag_96:\n    /* \"#utility.yul\":3753:3758   */\n  dup2\n    /* \"#utility.yul\":3750:3785   */\n  eq\n    /* \"#utility.yul\":3740:3803   */\n  tag_97\n  jumpi\n    /* \"#utility.yul\":3799:3800   */\n  0x00\n    /* \"#utility.yul\":3796:3797   */\n  dup1\n    /* \"#utility.yul\":3789:3801   */\n  revert\n    /* \"#utility.yul\":3740:3803   */\ntag_97:\n    /* \"#utility.yul\":3687:3809   */\n  pop\n  jump\t// out\n    /* \"#utility.yul\":3815:3958   */\ntag_45:\n    /* \"#utility.yul\":3872:3877   */\n  0x00\n    /* \"#utility.yul\":3903:3909   */\n  dup2\n    /* \"#utility.yul\":3897:3910   */\n  mload\n    /* \"#utility.yul\":3888:3910   */\n  swap1\n  pop\n    /* \"#utility.yul\":3919:3952   */\n  tag_99\n    /* \"#utility.yul\":3946:3951   */\n  dup2\n    /* \"#utility.yul\":3919:3952   */\n  tag_44\n  jump\t// in\ntag_99:\n    /* \"#utility.yul\":3815:3958   */\n  swap3\n  swap2\n  pop\n  pop\n  jump\t// out\n    /* \"#utility.yul\":3981:4713   */\ntag_46:\n    /* \"#utility.yul\":4088:4093   */\n  0x00\n    /* \"#utility.yul\":4113:4194   */\n  tag_101\n    /* \"#utility.yul\":4129:4193   */\n  tag_102\n    /* \"#utility.yul\":4186:4192   */\n  dup5\n    /* \"#utility.yul\":4129:4193   */\n  tag_42\n  jump\t// in\ntag_102:\n    /* \"#utility.yul\":4113:4194   */\n  tag_33\n  jump\t// in\ntag_101:\n    /* \"#utility.yul\":4104:4194   */\n  swap1\n  pop\n    /* \"#utility.yul\":4214:4219   */\n  dup1\n    /* \"#utility.yul\":4243:4249   */\n  dup4\n    /* \"#utility.yul\":4236:4241   */\n  dup3\n    /* \"#utility.yul\":4229:4250   */\n  mstore\n    /* \"#utility.yul\":4277:4281   */\n  0x20\n    /* \"#utility.yul\":4270:4275   */\n  dup3\n    /* \"#utility.yul\":4266:4282   */\n  add\n    /* \"#utility.yul\":4259:4282   */\n  swap1\n  pop\n    /* \"#utility.yul\":4330:4334   */\n  0x20\n    /* \"#utility.yul\":4322:4328   */\n  dup5\n    /* \"#utility.yul\":4318:4335   */\n  mul\n    /* \"#utility.yul\":4310:4316   */\n  dup4\n    /* \"#utility.yul\":4306:4336   */\n  add\n    /* \"#utility.yul\":4359:4362   */\n  dup6\n    /* \"#utility.yul\":4351:4357   */\n  dup2\n    /* \"#utility.yul\":4348:4363   */\n  gt\n    /* \"#utility.yul\":4345:4467   */\n  iszero\n  tag_103\n  jumpi\n    /* \"#utility.yul\":4378:4457   */\n  tag_104\n  tag_35\n  jump\t// in\ntag_104:\n    /* \"#utility.yul\":4345:4467   */\ntag_103:\n    /* \"#utility.yul\":4493:4499   */\n  dup4\n    /* \"#utility.yul\":4476:4707   */\ntag_105:\n    /* \"#utility.yul\":4510:4516   */\n  dup2\n    /* \"#utility.yul\":4505:4508   */\n  dup2\n    /* \"#utility.yul\":4502:4517   */\n  lt\n    /* \"#utility.yul\":4476:4707   */\n  iszero\n  tag_107\n  jumpi\n    /* \"#utility.yul\":4585:4588   */\n  dup1\n    /* \"#utility.yul\":4614:4662   */\n  tag_108\n    /* \"#utility.yul\":4658:4661   */\n  dup9\n    /* \"#utility.yul\":4646:4656   */\n  dup3\n    /* \"#utility.yul\":4614:4662   */\n  tag_45\n  jump\t// in\ntag_108:\n    /* \"#utility.yul\":4609:4612   */\n  dup5\n    /* \"#utility.yul\":4602:4663   */\n  mstore\n    /* \"#utility.yul\":4692:4696   */\n  0x20\n    /* \"#utility.yul\":4687:4690   */\n  dup5\n    /* \"#utility.yul\":4683:4697   */\n  add\n    /* \"#utility.yul\":4676:4697   */\n  swap4\n  pop\n    /* \"#utility.yul\":4552:4707   */\n  pop\n    /* \"#utility.yul\":4536:4540   */\n  0x20\n    /* \"#utility.yul\":4531:4534   */\n  dup2\n    /* \"#utility.yul\":4527:4541   */\n  add\n    /* \"#utility.yul\":4520:4541   */\n  swap1\n  pop\n    /* \"#utility.yul\":4476:4707   */\n  jump(tag_105)\ntag_107:\n    /* \"#utility.yul\":4480:4501   */\n  pop\n    /* \"#utility.yul\":4094:4713   */\n  pop\n  pop\n    /* \"#utility.yul\":3981:4713   */\n  swap4\n  swap3\n  pop\n  pop\n  pop\n  jump\t// out\n    /* \"#utility.yul\":4736:5121   */\ntag_47:\n    /* \"#utility.yul\":4818:4823   */\n  0x00\n    /* \"#utility.yul\":4867:4870   */\n  dup3\n    /* \"#utility.yul\":4860:4864   */\n  0x1f\n    /* \"#utility.yul\":4852:4858   */\n  dup4\n    /* \"#utility.yul\":4848:4865   */\n  add\n    /* \"#utility.yul\":4844:4871   */\n  slt\n    /* \"#utility.yul\":4834:4956   */\n  tag_110\n  jumpi\n    /* \"#utility.yul\":4875:4954   */\n  tag_111\n  tag_29\n  jump\t// in\ntag_111:\n    /* \"#utility.yul\":4834:4956   */\ntag_110:\n    /* \"#utility.yul\":4985:4991   */\n  dup2\n    /* \"#utility.yul\":4979:4992   */\n  mload\n    /* \"#utility.yul\":5010:5115   */\n  tag_112\n    /* \"#utility.yul\":5111:5114   */\n  dup5\n    /* \"#utility.yul\":5103:5109   */\n  dup3\n    /* \"#utility.yul\":5096:5100   */\n  0x20\n    /* \"#utility.yul\":5088:5094   */\n  dup7\n    /* \"#utility.yul\":5084:5101   */\n  add\n    /* \"#utility.yul\":5010:5115   */\n  tag_46\n  jump\t// in\ntag_112:\n    /* \"#utility.yul\":5001:5115   */\n  swap2\n  pop\n    /* \"#utility.yul\":4824:5121   */\n  pop\n    /* \"#utility.yul\":4736:5121   */\n  swap3\n  swap2\n  pop\n  pop\n  jump\t// out\n    /* \"#utility.yul\":5127:6040   */\ntag_2:\n    /* \"#utility.yul\":5256:5262   */\n  0x00\n    /* \"#utility.yul\":5264:5270   */\n  dup1\n    /* \"#utility.yul\":5313:5315   */\n  0x40\n    /* \"#utility.yul\":5301:5310   */\n  dup4\n    /* \"#utility.yul\":5292:5299   */\n  dup6\n    /* \"#utility.yul\":5288:5311   */\n  sub\n    /* \"#utility.yul\":5284:5316   */\n  slt\n    /* \"#utility.yul\":5281:5400   */\n  iszero\n  tag_114\n  jumpi\n    /* \"#utility.yul\":5319:5398   */\n  tag_115\n  tag_27\n  jump\t// in\ntag_115:\n    /* \"#utility.yul\":5281:5400   */\ntag_114:\n    /* \"#utility.yul\":5460:5461   */\n  0x00\n    /* \"#utility.yul\":5449:5458   */\n  dup4\n    /* \"#utility.yul\":5445:5462   */\n  add\n    /* \"#utility.yul\":5439:5463   */\n  mload\n    /* \"#utility.yul\":5490:5508   */\n  0xffffffffffffffff\n    /* \"#utility.yul\":5482:5488   */\n  dup2\n    /* \"#utility.yul\":5479:5509   */\n  gt\n    /* \"#utility.yul\":5476:5593   */\n  iszero\n  tag_116\n  jumpi\n    /* \"#utility.yul\":5512:5591   */\n  tag_117\n  tag_28\n  jump\t// in\ntag_117:\n    /* \"#utility.yul\":5476:5593   */\ntag_116:\n    /* \"#utility.yul\":5617:5706   */\n  tag_118\n    /* \"#utility.yul\":5698:5705   */\n  dup6\n    /* \"#utility.yul\":5689:5695   */\n  dup3\n    /* \"#utility.yul\":5678:5687   */\n  dup7\n    /* \"#utility.yul\":5674:5696   */\n  add\n    /* \"#utility.yul\":5617:5706   */\n  tag_41\n  jump\t// in\ntag_118:\n    /* \"#utility.yul\":5607:5706   */\n  swap3\n  pop\n    /* \"#utility.yul\":5410:5716   */\n  pop\n    /* \"#utility.yul\":5776:5778   */\n  0x20\n    /* \"#utility.yul\":5765:5774   */\n  dup4\n    /* \"#utility.yul\":5761:5779   */\n  add\n    /* \"#utility.yul\":5755:5780   */\n  mload\n    /* \"#utility.yul\":5807:5825   */\n  0xffffffffffffffff\n    /* \"#utility.yul\":5799:5805   */\n  dup2\n    /* \"#utility.yul\":5796:5826   */\n  gt\n    /* \"#utility.yul\":5793:5910   */\n  iszero\n  tag_119\n  jumpi\n    /* \"#utility.yul\":5829:5908   */\n  tag_120\n  tag_28\n  jump\t// in\ntag_120:\n    /* \"#utility.yul\":5793:5910   */\ntag_119:\n    /* \"#utility.yul\":5934:6023   */\n  tag_121\n    /* \"#utility.yul\":6015:6022   */\n  dup6\n    /* \"#utility.yul\":6006:6012   */\n  dup3\n    /* \"#utility.yul\":5995:6004   */\n  dup7\n    /* \"#utility.yul\":5991:6013   */\n  add\n    /* \"#utility.yul\":5934:6023   */\n  tag_47\n  jump\t// in\ntag_121:\n    /* \"#utility.yul\":5924:6023   */\n  swap2\n  pop\n    /* \"#utility.yul\":5726:6033   */\n  pop\n    /* \"#utility.yul\":5127:6040   */\n  swap3\n  pop\n  swap3\n  swap1\n  pop\n  jump\t// out\n    /* \"#utility.yul\":6046:6215   */\ntag_48:\n    /* \"#utility.yul\":6130:6141   */\n  0x00\n    /* \"#utility.yul\":6164:6170   */\n  dup3\n    /* \"#utility.yul\":6159:6162   */\n  dup3\n    /* \"#utility.yul\":6152:6171   */\n  mstore\n    /* \"#utility.yul\":6204:6208   */\n  0x20\n    /* \"#utility.yul\":6199:6202   */\n  dup3\n    /* \"#utility.yul\":6195:6209   */\n  add\n    /* \"#utility.yul\":6180:6209   */\n  swap1\n  pop\n    /* \"#utility.yul\":6046:6215   */\n  swap3\n  swap2\n  pop\n  pop\n  jump\t// out\n    /* \"#utility.yul\":6221:6401   */\ntag_49:\n    /* \"#utility.yul\":6361:6393   */\n  0x4c6f6e67756575727320646520646f6e6e65657320696e76616c696465730000\n    /* \"#utility.yul\":6357:6358   */\n  0x00\n    /* \"#utility.yul\":6349:6355   */\n  dup3\n    /* \"#utility.yul\":6345:6359   */\n  add\n    /* \"#utility.yul\":6338:6394   */\n  mstore\n    /* \"#utility.yul\":6221:6401   */\n  pop\n  jump\t// out\n    /* \"#utility.yul\":6407:6773   */\ntag_50:\n    /* \"#utility.yul\":6549:6552   */\n  0x00\n    /* \"#utility.yul\":6570:6637   */\n  tag_125\n    /* \"#utility.yul\":6634:6636   */\n  0x1e\n    /* \"#utility.yul\":6629:6632   */\n  dup4\n    /* \"#utility.yul\":6570:6637   */\n  tag_48\n  jump\t// in\ntag_125:\n    /* \"#utility.yul\":6563:6637   */\n  swap2\n  pop\n    /* \"#utility.yul\":6646:6739   */\n  tag_126\n    /* \"#utility.yul\":6735:6738   */\n  dup3\n    /* \"#utility.yul\":6646:6739   */\n  tag_49\n  jump\t// in\ntag_126:\n    /* \"#utility.yul\":6764:6766   */\n  0x20\n    /* \"#utility.yul\":6759:6762   */\n  dup3\n    /* \"#utility.yul\":6755:6767   */\n  add\n    /* \"#utility.yul\":6748:6767   */\n  swap1\n  pop\n    /* \"#utility.yul\":6407:6773   */\n  swap2\n  swap1\n  pop\n  jump\t// out\n    /* \"#utility.yul\":6779:7198   */\ntag_7:\n    /* \"#utility.yul\":6945:6949   */\n  0x00\n    /* \"#utility.yul\":6983:6985   */\n  0x20\n    /* \"#utility.yul\":6972:6981   */\n  dup3\n    /* \"#utility.yul\":6968:6986   */\n  add\n    /* \"#utility.yul\":6960:6986   */\n  swap1\n  pop\n    /* \"#utility.yul\":7032:7041   */\n  dup2\n    /* \"#utility.yul\":7026:7030   */\n  dup2\n    /* \"#utility.yul\":7022:7042   */\n  sub\n    /* \"#utility.yul\":7018:7019   */\n  0x00\n    /* \"#utility.yul\":7007:7016   */\n  dup4\n    /* \"#utility.yul\":7003:7020   */\n  add\n    /* \"#utility.yul\":6996:7043   */\n  mstore\n    /* \"#utility.yul\":7060:7191   */\n  tag_128\n    /* \"#utility.yul\":7186:7190   */\n  dup2\n    /* \"#utility.yul\":7060:7191   */\n  tag_50\n  jump\t// in\ntag_128:\n    /* \"#utility.yul\":7052:7191   */\n  swap1\n  pop\n    /* \"#utility.yul\":6779:7198   */\n  swap2\n  swap1\n  pop\n  jump\t// out\n    /* \"#utility.yul\":7204:7384   */\ntag_13:\n    /* \"#utility.yul\":7252:7329   */\n  0x4e487b7100000000000000000000000000000000000000000000000000000000\n    /* \"#utility.yul\":7249:7250   */\n  0x00\n    /* \"#utility.yul\":7242:7330   */\n  mstore\n    /* \"#utility.yul\":7349:7353   */\n  0x32\n    /* \"#utility.yul\":7346:7347   */\n  0x04\n    /* \"#utility.yul\":7339:7354   */\n  mstore\n    /* \"#utility.yul\":7373:7377   */\n  0x24\n    /* \"#utility.yul\":7370:7371   */\n  0x00\n    /* \"#utility.yul\":7363:7378   */\n  revert\n    /* \"#utility.yul\":7390:7570   */\ntag_51:\n    /* \"#utility.yul\":7438:7515   */\n  0x4e487b7100000000000000000000000000000000000000000000000000000000\n    /* \"#utility.yul\":7435:7436   */\n  0x00\n    /* \"#utility.yul\":7428:7516   */\n  mstore\n    /* \"#utility.yul\":7535:7539   */\n  0x11\n    /* \"#utility.yul\":7532:7533   */\n  0x04\n    /* \"#utility.yul\":7525:7540   */\n  mstore\n    /* \"#utility.yul\":7559:7563   */\n  0x24\n    /* \"#utility.yul\":7556:7557   */\n  0x00\n    /* \"#utility.yul\":7549:7564   */\n  revert\n    /* \"#utility.yul\":7576:7767   */\ntag_22:\n    /* \"#utility.yul\":7616:7619   */\n  0x00\n    /* \"#utility.yul\":7635:7655   */\n  tag_132\n    /* \"#utility.yul\":7653:7654   */\n  dup3\n    /* \"#utility.yul\":7635:7655   */\n  tag_43\n  jump\t// in\ntag_132:\n    /* \"#utility.yul\":7630:7655   */\n  swap2\n  pop\n    /* \"#utility.yul\":7669:7689   */\n  tag_133\n    /* \"#utility.yul\":7687:7688   */\n  dup4\n    /* \"#utility.yul\":7669:7689   */\n  tag_43\n  jump\t// in\ntag_133:\n    /* \"#utility.yul\":7664:7689   */\n  swap3\n  pop\n    /* \"#utility.yul\":7712:7713   */\n  dup3\n    /* \"#utility.yul\":7709:7710   */\n  dup3\n    /* \"#utility.yul\":7705:7714   */\n  add\n    /* \"#utility.yul\":7698:7714   */\n  swap1\n  pop\n    /* \"#utility.yul\":7733:7736   */\n  dup1\n    /* \"#utility.yul\":7730:7731   */\n  dup3\n    /* \"#utility.yul\":7727:7737   */\n  gt\n    /* \"#utility.yul\":7724:7760   */\n  iszero\n  tag_134\n  jumpi\n    /* \"#utility.yul\":7740:7758   */\n  tag_135\n  tag_51\n  jump\t// in\ntag_135:\n    /* \"#utility.yul\":7724:7760   */\ntag_134:\n    /* \"#utility.yul\":7576:7767   */\n  swap3\n  swap2\n  pop\n  pop\n  jump\t// out\n    /* \"#utility.yul\":7773:8006   */\ntag_24:\n    /* \"#utility.yul\":7812:7815   */\n  0x00\n    /* \"#utility.yul\":7835:7859   */\n  tag_137\n    /* \"#utility.yul\":7853:7858   */\n  dup3\n    /* \"#utility.yul\":7835:7859   */\n  tag_43\n  jump\t// in\ntag_137:\n    /* \"#utility.yul\":7826:7859   */\n  swap2\n  pop\n    /* \"#utility.yul\":7881:7947   */\n  0xffffffffffffffffffffffffffffffffffffffffffffffffffffffffffffffff\n    /* \"#utility.yul\":7874:7879   */\n  dup3\n    /* \"#utility.yul\":7871:7948   */\n  sub\n    /* \"#utility.yul\":7868:7971   */\n  tag_138\n  jumpi\n    /* \"#utility.yul\":7951:7969   */\n  tag_139\n  tag_51\n  jump\t// in\ntag_139:\n    /* \"#utility.yul\":7868:7971   */\ntag_138:\n    /* \"#utility.yul\":7998:7999   */\n  0x01\n    /* \"#utility.yul\":7991:7996   */\n  dup3\n    /* \"#utility.yul\":7987:8000   */\n  add\n    /* \"#utility.yul\":7980:8000   */\n  swap1\n  pop\n    /* \"#utility.yul\":7773:8006   */\n  swap2\n  swap1\n  pop\n  jump\t// out\n    /* \"contracts/5_Distribution_Token.sol\":74:2496  contract DistributionRevenus {... */\ntag_25:\n  dataSize(sub_0)\n  dup1\n  dataOffset(sub_0)\n  0x00\n  codecopy\n  0x00\n  return\nstop\n\nsub_0: assembly {\n        /* \"contracts/5_Distribution_Token.sol\":74:2496  contract DistributionRevenus {... */\n      mstore(0x40, 0x80)\n      jumpi(tag_1, lt(calldatasize, 0x04))\n      shr(0xe0, calldataload(0x00))\n      dup1\n      0x18160ddd\n      eq\n      tag_2\n      jumpi\n      dup1\n      0x27e235e3\n      eq\n      tag_3\n      jumpi\n      dup1\n      0x91c05b0b\n      eq\n      tag_4\n      jumpi\n      dup1\n      0x923108d9\n      eq\n      tag_5\n      jumpi\n    tag_1:\n      0x00\n      dup1\n      revert\n        /* \"contracts/5_Distribution_Token.sol\":382:408  uint256 public totalSupply */\n    tag_2:\n      callvalue\n      dup1\n      iszero\n      tag_6\n      jumpi\n      0x00\n      dup1\n      revert\n    tag_6:\n      pop\n      tag_7\n      tag_8\n      jump\t// in\n    tag_7:\n      mload(0x40)\n      tag_9\n      swap2\n      swap1\n      tag_10\n      jump\t// in\n    tag_9:\n      mload(0x40)\n      dup1\n      swap2\n      sub\n      swap1\n      return\n        /* \"contracts/5_Distribution_Token.sol\":176:219  mapping(address => uint256) public balances */\n    tag_3:\n      callvalue\n      dup1\n      iszero\n      tag_11\n      jumpi\n      0x00\n      dup1\n      revert\n    tag_11:\n      pop\n      tag_12\n      0x04\n      dup1\n      calldatasize\n      sub\n      dup2\n      add\n      swap1\n      tag_13\n      swap2\n      swap1\n      tag_14\n      jump\t// in\n    tag_13:\n      tag_15\n      jump\t// in\n    tag_12:\n      mload(0x40)\n      tag_16\n      swap2\n      swap1\n      tag_10\n      jump\t// in\n    tag_16:\n      mload(0x40)\n      dup1\n      swap2\n      sub\n      swap1\n      return\n        /* \"contracts/5_Distribution_Token.sol\":1085:1708  function distribute(uint256 distributedAmount) external payable {... */\n    tag_4:\n      tag_17\n      0x04\n      dup1\n      calldatasize\n      sub\n      dup2\n      add\n      swap1\n      tag_18\n      swap2\n      swap1\n      tag_19\n      jump\t// in\n    tag_18:\n      tag_20\n      jump\t// in\n    tag_17:\n      stop\n        /* \"contracts/5_Distribution_Token.sol\":300:329  address[] public tokenHolders */\n    tag_5:\n      callvalue\n      dup1\n      iszero\n      tag_21\n      jumpi\n      0x00\n      dup1\n      revert\n    tag_21:\n      pop\n      tag_22\n      0x04\n      dup1\n      calldatasize\n      sub\n      dup2\n      add\n      swap1\n      tag_23\n      swap2\n      swap1\n      tag_19\n      jump\t// in\n    tag_23:\n      tag_24\n      jump\t// in\n    tag_22:\n      mload(0x40)\n      tag_25\n      swap2\n      swap1\n      tag_26\n      jump\t// in\n    tag_25:\n      mload(0x40)\n      dup1\n      swap2\n      sub\n      swap1\n      return\n        /* \"contracts/5_Distribution_Token.sol\":382:408  uint256 public totalSupply */\n    tag_8:\n      sload(0x02)\n      dup2\n      jump\t// out\n        /* \"contracts/5_Distribution_Token.sol\":176:219  mapping(address => uint256) public balances */\n    tag_15:\n      mstore(0x20, 0x00)\n      dup1\n      0x00\n      mstore\n      keccak256(0x00, 0x40)\n      0x00\n      swap2\n      pop\n      swap1\n      pop\n      sload\n      dup2\n      jump\t// out\n        /* \"contracts/5_Distribution_Token.sol\":1085:1708  function distribute(uint256 distributedAmount) external payable {... */\n    tag_20:\n        /* \"contracts/5_Distribution_Token.sol\":1165:1174  uint256 i */\n      0x00\n        /* \"contracts/5_Distribution_Token.sol\":1160:1701  for (uint256 i = 0; i < tokenHolders.length; i++) {... */\n    tag_28:\n        /* \"contracts/5_Distribution_Token.sol\":1184:1196  tokenHolders */\n      0x01\n        /* \"contracts/5_Distribution_Token.sol\":1184:1203  tokenHolders.length */\n      dup1\n      sload\n      swap1\n      pop\n        /* \"contracts/5_Distribution_Token.sol\":1180:1181  i */\n      dup2\n        /* \"contracts/5_Distribution_Token.sol\":1180:1203  i < tokenHolders.length */\n      lt\n        /* \"contracts/5_Distribution_Token.sol\":1160:1701  for (uint256 i = 0; i < tokenHolders.length; i++) {... */\n      iszero\n      tag_29\n      jumpi\n        /* \"contracts/5_Distribution_Token.sol\":1225:1242  address recipient */\n      0x00\n        /* \"contracts/5_Distribution_Token.sol\":1245:1257  tokenHolders */\n      0x01\n        /* \"contracts/5_Distribution_Token.sol\":1258:1259  i */\n      dup3\n        /* \"contracts/5_Distribution_Token.sol\":1245:1260  tokenHolders[i] */\n      dup2\n      sload\n      dup2\n      lt\n      tag_31\n      jumpi\n      tag_32\n      tag_33\n      jump\t// in\n    tag_32:\n    tag_31:\n      swap1\n      0x00\n      mstore\n      keccak256(0x00, 0x20)\n      add\n      0x00\n      swap1\n      sload\n      swap1\n      0x0100\n      exp\n      swap1\n      div\n      0xffffffffffffffffffffffffffffffffffffffff\n      and\n        /* \"contracts/5_Distribution_Token.sol\":1225:1260  address recipient = tokenHolders[i] */\n      swap1\n      pop\n        /* \"contracts/5_Distribution_Token.sol\":1275:1296  uint256 paymentAmount */\n      0x00\n        /* \"contracts/5_Distribution_Token.sol\":1299:1344  calculatePayment(recipient,distributedAmount) */\n      tag_35\n        /* \"contracts/5_Distribution_Token.sol\":1316:1325  recipient */\n      dup3\n        /* \"contracts/5_Distribution_Token.sol\":1326:1343  distributedAmount */\n      dup6\n        /* \"contracts/5_Distribution_Token.sol\":1299:1315  calculatePayment */\n      tag_36\n        /* \"contracts/5_Distribution_Token.sol\":1299:1344  calculatePayment(recipient,distributedAmount) */\n      jump\t// in\n    tag_35:\n        /* \"contracts/5_Distribution_Token.sol\":1275:1344  uint256 paymentAmount = calculatePayment(recipient,distributedAmount) */\n      swap1\n      pop\n        /* \"contracts/5_Distribution_Token.sol\":1385:1386  0 */\n      0x00\n        /* \"contracts/5_Distribution_Token.sol\":1369:1382  paymentAmount */\n      dup2\n        /* \"contracts/5_Distribution_Token.sol\":1369:1386  paymentAmount > 0 */\n      gt\n        /* \"contracts/5_Distribution_Token.sol\":1361:1435  require(paymentAmount > 0, \"Pas de paiement du jour pour le destinataire\") */\n      tag_37\n      jumpi\n      mload(0x40)\n      0x08c379a000000000000000000000000000000000000000000000000000000000\n      dup2\n      mstore\n      0x04\n      add\n      tag_38\n      swap1\n      tag_39\n      jump\t// in\n    tag_38:\n      mload(0x40)\n      dup1\n      swap2\n      sub\n      swap1\n      revert\n    tag_37:\n        /* \"contracts/5_Distribution_Token.sol\":1581:1627  makePayment(payable(recipient), paymentAmount) */\n      tag_40\n        /* \"contracts/5_Distribution_Token.sol\":1601:1610  recipient */\n      dup3\n        /* \"contracts/5_Distribution_Token.sol\":1613:1626  paymentAmount */\n      dup3\n        /* \"contracts/5_Distribution_Token.sol\":1581:1592  makePayment */\n      tag_41\n        /* \"contracts/5_Distribution_Token.sol\":1581:1627  makePayment(payable(recipient), paymentAmount) */\n      jump\t// in\n    tag_40:\n        /* \"contracts/5_Distribution_Token.sol\":1663:1672  recipient */\n      dup2\n        /* \"contracts/5_Distribution_Token.sol\":1647:1689  Payment(payable(recipient), paymentAmount) */\n      0xffffffffffffffffffffffffffffffffffffffff\n      and\n      0xd4f43975feb89f48dd30cabbb32011045be187d1e11c8ea9faa43efc35282519\n        /* \"contracts/5_Distribution_Token.sol\":1675:1688  paymentAmount */\n      dup3\n        /* \"contracts/5_Distribution_Token.sol\":1647:1689  Payment(payable(recipient), paymentAmount) */\n      mload(0x40)\n      tag_42\n      swap2\n      swap1\n      tag_10\n      jump\t// in\n    tag_42:\n      mload(0x40)\n      dup1\n      swap2\n      sub\n      swap1\n      log2\n        /* \"contracts/5_Distribution_Token.sol\":1210:1701  {... */\n      pop\n      pop\n        /* \"contracts/5_Distribution_Token.sol\":1205:1208  i++ */\n      dup1\n      dup1\n      tag_43\n      swap1\n      tag_44\n      jump\t// in\n    tag_43:\n      swap2\n      pop\n      pop\n        /* \"contracts/5_Distribution_Token.sol\":1160:1701  for (uint256 i = 0; i < tokenHolders.length; i++) {... */\n      jump(tag_28)\n    tag_29:\n      pop\n        /* \"contracts/5_Distribution_Token.sol\":1085:1708  function distribute(uint256 distributedAmount) external payable {... */\n      pop\n      jump\t// out\n        /* \"contracts/5_Distribution_Token.sol\":300:329  address[] public tokenHolders */\n    tag_24:\n      0x01\n      dup2\n      dup2\n      sload\n      dup2\n      lt\n      tag_45\n      jumpi\n      0x00\n      dup1\n      revert\n    tag_45:\n      swap1\n      0x00\n      mstore\n      keccak256(0x00, 0x20)\n      add\n      0x00\n      swap2\n      pop\n      sload\n      swap1\n      0x0100\n      exp\n      swap1\n      div\n      0xffffffffffffffffffffffffffffffffffffffff\n      and\n      dup2\n      jump\t// out\n        /* \"contracts/5_Distribution_Token.sol\":1800:2205  function calculatePayment(address recipient,uint256 amount) internal view returns (uint256) {... */\n    tag_36:\n        /* \"contracts/5_Distribution_Token.sol\":1883:1890  uint256 */\n      0x00\n        /* \"contracts/5_Distribution_Token.sol\":1994:2014  uint256 tokenBalance */\n      dup1\n        /* \"contracts/5_Distribution_Token.sol\":2017:2025  balances */\n      0x00\n        /* \"contracts/5_Distribution_Token.sol\":2017:2036  balances[recipient] */\n      dup1\n        /* \"contracts/5_Distribution_Token.sol\":2026:2035  recipient */\n      dup6\n        /* \"contracts/5_Distribution_Token.sol\":2017:2036  balances[recipient] */\n      0xffffffffffffffffffffffffffffffffffffffff\n      and\n      0xffffffffffffffffffffffffffffffffffffffff\n      and\n      dup2\n      mstore\n      0x20\n      add\n      swap1\n      dup2\n      mstore\n      0x20\n      add\n      0x00\n      keccak256\n      sload\n        /* \"contracts/5_Distribution_Token.sol\":1994:2036  uint256 tokenBalance = balances[recipient] */\n      swap1\n      pop\n        /* \"contracts/5_Distribution_Token.sol\":2105:2126  uint256 paymentAmount */\n      0x00\n        /* \"contracts/5_Distribution_Token.sol\":2155:2166  totalSupply */\n      sload(0x02)\n        /* \"contracts/5_Distribution_Token.sol\":2145:2151  amount */\n      dup5\n        /* \"contracts/5_Distribution_Token.sol\":2130:2142  tokenBalance */\n      dup4\n        /* \"contracts/5_Distribution_Token.sol\":2130:2151  tokenBalance * amount */\n      tag_48\n      swap2\n      swap1\n      tag_49\n      jump\t// in\n    tag_48:\n        /* \"contracts/5_Distribution_Token.sol\":2129:2166  (tokenBalance * amount) / totalSupply */\n      tag_50\n      swap2\n      swap1\n      tag_51\n      jump\t// in\n    tag_50:\n        /* \"contracts/5_Distribution_Token.sol\":2105:2166  uint256 paymentAmount = (tokenBalance * amount) / totalSupply */\n      swap1\n      pop\n        /* \"contracts/5_Distribution_Token.sol\":2184:2197  paymentAmount */\n      dup1\n        /* \"contracts/5_Distribution_Token.sol\":2177:2197  return paymentAmount */\n      swap3\n      pop\n      pop\n      pop\n        /* \"contracts/5_Distribution_Token.sol\":1800:2205  function calculatePayment(address recipient,uint256 amount) internal view returns (uint256) {... */\n      swap3\n      swap2\n      pop\n      pop\n      jump\t// out\n        /* \"contracts/5_Distribution_Token.sol\":2273:2491  function makePayment(address payable recipient, uint256 amount) internal {... */\n    tag_41:\n        /* \"contracts/5_Distribution_Token.sol\":2390:2396  amount */\n      dup1\n        /* \"contracts/5_Distribution_Token.sol\":2365:2386  address(this).balance */\n      selfbalance\n        /* \"contracts/5_Distribution_Token.sol\":2365:2396  address(this).balance >= amount */\n      lt\n      iszero\n        /* \"contracts/5_Distribution_Token.sol\":2357:2446  require(address(this).balance >= amount, \"Fonds insuffisants pour effectuer le paiement\") */\n      tag_53\n      jumpi\n      mload(0x40)\n      0x08c379a000000000000000000000000000000000000000000000000000000000\n      dup2\n      mstore\n      0x04\n      add\n      tag_54\n      swap1\n      tag_55\n      jump\t// in\n    tag_54:\n      mload(0x40)\n      dup1\n      swap2\n      sub\n      swap1\n      revert\n    tag_53:\n        /* \"contracts/5_Distribution_Token.sol\":2457:2466  recipient */\n      dup2\n        /* \"contracts/5_Distribution_Token.sol\":2457:2475  recipient.transfer */\n      0xffffffffffffffffffffffffffffffffffffffff\n      and\n        /* \"contracts/5_Distribution_Token.sol\":2457:2483  recipient.transfer(amount) */\n      0x08fc\n        /* \"contracts/5_Distribution_Token.sol\":2476:2482  amount */\n      dup3\n        /* \"contracts/5_Distribution_Token.sol\":2457:2483  recipient.transfer(amount) */\n      swap1\n      dup2\n      iszero\n      mul\n      swap1\n      mload(0x40)\n      0x00\n      mload(0x40)\n      dup1\n      dup4\n      sub\n      dup2\n      dup6\n      dup9\n      dup9\n      call\n      swap4\n      pop\n      pop\n      pop\n      pop\n      iszero\n      dup1\n      iszero\n      tag_57\n      jumpi\n      returndatasize\n      0x00\n      dup1\n      returndatacopy\n      revert(0x00, returndatasize)\n    tag_57:\n      pop\n        /* \"contracts/5_Distribution_Token.sol\":2273:2491  function makePayment(address payable recipient, uint256 amount) internal {... */\n      pop\n      pop\n      jump\t// out\n        /* \"#utility.yul\":7:84   */\n    tag_58:\n        /* \"#utility.yul\":44:51   */\n      0x00\n        /* \"#utility.yul\":73:78   */\n      dup2\n        /* \"#utility.yul\":62:78   */\n      swap1\n      pop\n        /* \"#utility.yul\":7:84   */\n      swap2\n      swap1\n      pop\n      jump\t// out\n        /* \"#utility.yul\":90:208   */\n    tag_59:\n        /* \"#utility.yul\":177:201   */\n      tag_80\n        /* \"#utility.yul\":195:200   */\n      dup2\n        /* \"#utility.yul\":177:201   */\n      tag_58\n      jump\t// in\n    tag_80:\n        /* \"#utility.yul\":172:175   */\n      dup3\n        /* \"#utility.yul\":165:202   */\n      mstore\n        /* \"#utility.yul\":90:208   */\n      pop\n      pop\n      jump\t// out\n        /* \"#utility.yul\":214:436   */\n    tag_10:\n        /* \"#utility.yul\":307:311   */\n      0x00\n        /* \"#utility.yul\":345:347   */\n      0x20\n        /* \"#utility.yul\":334:343   */\n      dup3\n        /* \"#utility.yul\":330:348   */\n      add\n        /* \"#utility.yul\":322:348   */\n      swap1\n      pop\n        /* \"#utility.yul\":358:429   */\n      tag_82\n        /* \"#utility.yul\":426:427   */\n      0x00\n        /* \"#utility.yul\":415:424   */\n      dup4\n        /* \"#utility.yul\":411:428   */\n      add\n        /* \"#utility.yul\":402:408   */\n      dup5\n        /* \"#utility.yul\":358:429   */\n      tag_59\n      jump\t// in\n    tag_82:\n        /* \"#utility.yul\":214:436   */\n      swap3\n      swap2\n      pop\n      pop\n      jump\t// out\n        /* \"#utility.yul\":523:640   */\n    tag_61:\n        /* \"#utility.yul\":632:633   */\n      0x00\n        /* \"#utility.yul\":629:630   */\n      dup1\n        /* \"#utility.yul\":622:634   */\n      revert\n        /* \"#utility.yul\":769:895   */\n    tag_63:\n        /* \"#utility.yul\":806:813   */\n      0x00\n        /* \"#utility.yul\":846:888   */\n      0xffffffffffffffffffffffffffffffffffffffff\n        /* \"#utility.yul\":839:844   */\n      dup3\n        /* \"#utility.yul\":835:889   */\n      and\n        /* \"#utility.yul\":824:889   */\n      swap1\n      pop\n        /* \"#utility.yul\":769:895   */\n      swap2\n      swap1\n      pop\n      jump\t// out\n        /* \"#utility.yul\":901:997   */\n    tag_64:\n        /* \"#utility.yul\":938:945   */\n      0x00\n        /* \"#utility.yul\":967:991   */\n      tag_88\n        /* \"#utility.yul\":985:990   */\n      dup3\n        /* \"#utility.yul\":967:991   */\n      tag_63\n      jump\t// in\n    tag_88:\n        /* \"#utility.yul\":956:991   */\n      swap1\n      pop\n        /* \"#utility.yul\":901:997   */\n      swap2\n      swap1\n      pop\n      jump\t// out\n        /* \"#utility.yul\":1003:1125   */\n    tag_65:\n        /* \"#utility.yul\":1076:1100   */\n      tag_90\n        /* \"#utility.yul\":1094:1099   */\n      dup2\n        /* \"#utility.yul\":1076:1100   */\n      tag_64\n      jump\t// in\n    tag_90:\n        /* \"#utility.yul\":1069:1074   */\n      dup2\n        /* \"#utility.yul\":1066:1101   */\n      eq\n        /* \"#utility.yul\":1056:1119   */\n      tag_91\n      jumpi\n        /* \"#utility.yul\":1115:1116   */\n      0x00\n        /* \"#utility.yul\":1112:1113   */\n      dup1\n        /* \"#utility.yul\":1105:1117   */\n      revert\n        /* \"#utility.yul\":1056:1119   */\n    tag_91:\n        /* \"#utility.yul\":1003:1125   */\n      pop\n      jump\t// out\n        /* \"#utility.yul\":1131:1270   */\n    tag_66:\n        /* \"#utility.yul\":1177:1182   */\n      0x00\n        /* \"#utility.yul\":1215:1221   */\n      dup2\n        /* \"#utility.yul\":1202:1222   */\n      calldataload\n        /* \"#utility.yul\":1193:1222   */\n      swap1\n      pop\n        /* \"#utility.yul\":1231:1264   */\n      tag_93\n        /* \"#utility.yul\":1258:1263   */\n      dup2\n        /* \"#utility.yul\":1231:1264   */\n      tag_65\n      jump\t// in\n    tag_93:\n        /* \"#utility.yul\":1131:1270   */\n      swap3\n      swap2\n      pop\n      pop\n      jump\t// out\n        /* \"#utility.yul\":1276:1605   */\n    tag_14:\n        /* \"#utility.yul\":1335:1341   */\n      0x00\n        /* \"#utility.yul\":1384:1386   */\n      0x20\n        /* \"#utility.yul\":1372:1381   */\n      dup3\n        /* \"#utility.yul\":1363:1370   */\n      dup5\n        /* \"#utility.yul\":1359:1382   */\n      sub\n        /* \"#utility.yul\":1355:1387   */\n      slt\n        /* \"#utility.yul\":1352:1471   */\n      iszero\n      tag_95\n      jumpi\n        /* \"#utility.yul\":1390:1469   */\n      tag_96\n      tag_61\n      jump\t// in\n    tag_96:\n        /* \"#utility.yul\":1352:1471   */\n    tag_95:\n        /* \"#utility.yul\":1510:1511   */\n      0x00\n        /* \"#utility.yul\":1535:1588   */\n      tag_97\n        /* \"#utility.yul\":1580:1587   */\n      dup5\n        /* \"#utility.yul\":1571:1577   */\n      dup3\n        /* \"#utility.yul\":1560:1569   */\n      dup6\n        /* \"#utility.yul\":1556:1578   */\n      add\n        /* \"#utility.yul\":1535:1588   */\n      tag_66\n      jump\t// in\n    tag_97:\n        /* \"#utility.yul\":1525:1588   */\n      swap2\n      pop\n        /* \"#utility.yul\":1481:1598   */\n      pop\n        /* \"#utility.yul\":1276:1605   */\n      swap3\n      swap2\n      pop\n      pop\n      jump\t// out\n        /* \"#utility.yul\":1611:1733   */\n    tag_67:\n        /* \"#utility.yul\":1684:1708   */\n      tag_99\n        /* \"#utility.yul\":1702:1707   */\n      dup2\n        /* \"#utility.yul\":1684:1708   */\n      tag_58\n      jump\t// in\n    tag_99:\n        /* \"#utility.yul\":1677:1682   */\n      dup2\n        /* \"#utility.yul\":1674:1709   */\n      eq\n        /* \"#utility.yul\":1664:1727   */\n      tag_100\n      jumpi\n        /* \"#utility.yul\":1723:1724   */\n      0x00\n        /* \"#utility.yul\":1720:1721   */\n      dup1\n        /* \"#utility.yul\":1713:1725   */\n      revert\n        /* \"#utility.yul\":1664:1727   */\n    tag_100:\n        /* \"#utility.yul\":1611:1733   */\n      pop\n      jump\t// out\n        /* \"#utility.yul\":1739:1878   */\n    tag_68:\n        /* \"#utility.yul\":1785:1790   */\n      0x00\n        /* \"#utility.yul\":1823:1829   */\n      dup2\n        /* \"#utility.yul\":1810:1830   */\n      calldataload\n        /* \"#utility.yul\":1801:1830   */\n      swap1\n      pop\n        /* \"#utility.yul\":1839:1872   */\n      tag_102\n        /* \"#utility.yul\":1866:1871   */\n      dup2\n        /* \"#utility.yul\":1839:1872   */\n      tag_67\n      jump\t// in\n    tag_102:\n        /* \"#utility.yul\":1739:1878   */\n      swap3\n      swap2\n      pop\n      pop\n      jump\t// out\n        /* \"#utility.yul\":1884:2213   */\n    tag_19:\n        /* \"#utility.yul\":1943:1949   */\n      0x00\n        /* \"#utility.yul\":1992:1994   */\n      0x20\n        /* \"#utility.yul\":1980:1989   */\n      dup3\n        /* \"#utility.yul\":1971:1978   */\n      dup5\n        /* \"#utility.yul\":1967:1990   */\n      sub\n        /* \"#utility.yul\":1963:1995   */\n      slt\n        /* \"#utility.yul\":1960:2079   */\n      iszero\n      tag_104\n      jumpi\n        /* \"#utility.yul\":1998:2077   */\n      tag_105\n      tag_61\n      jump\t// in\n    tag_105:\n        /* \"#utility.yul\":1960:2079   */\n    tag_104:\n        /* \"#utility.yul\":2118:2119   */\n      0x00\n        /* \"#utility.yul\":2143:2196   */\n      tag_106\n        /* \"#utility.yul\":2188:2195   */\n      dup5\n        /* \"#utility.yul\":2179:2185   */\n      dup3\n        /* \"#utility.yul\":2168:2177   */\n      dup6\n        /* \"#utility.yul\":2164:2186   */\n      add\n        /* \"#utility.yul\":2143:2196   */\n      tag_68\n      jump\t// in\n    tag_106:\n        /* \"#utility.yul\":2133:2196   */\n      swap2\n      pop\n        /* \"#utility.yul\":2089:2206   */\n      pop\n        /* \"#utility.yul\":1884:2213   */\n      swap3\n      swap2\n      pop\n      pop\n      jump\t// out\n        /* \"#utility.yul\":2219:2337   */\n    tag_69:\n        /* \"#utility.yul\":2306:2330   */\n      tag_108\n        /* \"#utility.yul\":2324:2329   */\n      dup2\n        /* \"#utility.yul\":2306:2330   */\n      tag_64\n      jump\t// in\n    tag_108:\n        /* \"#utility.yul\":2301:2304   */\n      dup3\n        /* \"#utility.yul\":2294:2331   */\n      mstore\n        /* \"#utility.yul\":2219:2337   */\n      pop\n      pop\n      jump\t// out\n        /* \"#utility.yul\":2343:2565   */\n    tag_26:\n        /* \"#utility.yul\":2436:2440   */\n      0x00\n        /* \"#utility.yul\":2474:2476   */\n      0x20\n        /* \"#utility.yul\":2463:2472   */\n      dup3\n        /* \"#utility.yul\":2459:2477   */\n      add\n        /* \"#utility.yul\":2451:2477   */\n      swap1\n      pop\n        /* \"#utility.yul\":2487:2558   */\n      tag_110\n        /* \"#utility.yul\":2555:2556   */\n      0x00\n        /* \"#utility.yul\":2544:2553   */\n      dup4\n        /* \"#utility.yul\":2540:2557   */\n      add\n        /* \"#utility.yul\":2531:2537   */\n      dup5\n        /* \"#utility.yul\":2487:2558   */\n      tag_69\n      jump\t// in\n    tag_110:\n        /* \"#utility.yul\":2343:2565   */\n      swap3\n      swap2\n      pop\n      pop\n      jump\t// out\n        /* \"#utility.yul\":2571:2751   */\n    tag_33:\n        /* \"#utility.yul\":2619:2696   */\n      0x4e487b7100000000000000000000000000000000000000000000000000000000\n        /* \"#utility.yul\":2616:2617   */\n      0x00\n        /* \"#utility.yul\":2609:2697   */\n      mstore\n        /* \"#utility.yul\":2716:2720   */\n      0x32\n        /* \"#utility.yul\":2713:2714   */\n      0x04\n        /* \"#utility.yul\":2706:2721   */\n      mstore\n        /* \"#utility.yul\":2740:2744   */\n      0x24\n        /* \"#utility.yul\":2737:2738   */\n      0x00\n        /* \"#utility.yul\":2730:2745   */\n      revert\n        /* \"#utility.yul\":2757:2926   */\n    tag_70:\n        /* \"#utility.yul\":2841:2852   */\n      0x00\n        /* \"#utility.yul\":2875:2881   */\n      dup3\n        /* \"#utility.yul\":2870:2873   */\n      dup3\n        /* \"#utility.yul\":2863:2882   */\n      mstore\n        /* \"#utility.yul\":2915:2919   */\n      0x20\n        /* \"#utility.yul\":2910:2913   */\n      dup3\n        /* \"#utility.yul\":2906:2920   */\n      add\n        /* \"#utility.yul\":2891:2920   */\n      swap1\n      pop\n        /* \"#utility.yul\":2757:2926   */\n      swap3\n      swap2\n      pop\n      pop\n      jump\t// out\n        /* \"#utility.yul\":2932:3163   */\n    tag_71:\n        /* \"#utility.yul\":3072:3106   */\n      0x50617320646520706169656d656e74206475206a6f757220706f7572206c6520\n        /* \"#utility.yul\":3068:3069   */\n      0x00\n        /* \"#utility.yul\":3060:3066   */\n      dup3\n        /* \"#utility.yul\":3056:3070   */\n      add\n        /* \"#utility.yul\":3049:3107   */\n      mstore\n        /* \"#utility.yul\":3141:3155   */\n      0x64657374696e6174616972650000000000000000000000000000000000000000\n        /* \"#utility.yul\":3136:3138   */\n      0x20\n        /* \"#utility.yul\":3128:3134   */\n      dup3\n        /* \"#utility.yul\":3124:3139   */\n      add\n        /* \"#utility.yul\":3117:3156   */\n      mstore\n        /* \"#utility.yul\":2932:3163   */\n      pop\n      jump\t// out\n        /* \"#utility.yul\":3169:3535   */\n    tag_72:\n        /* \"#utility.yul\":3311:3314   */\n      0x00\n        /* \"#utility.yul\":3332:3399   */\n      tag_115\n        /* \"#utility.yul\":3396:3398   */\n      0x2c\n        /* \"#utility.yul\":3391:3394   */\n      dup4\n        /* \"#utility.yul\":3332:3399   */\n      tag_70\n      jump\t// in\n    tag_115:\n        /* \"#utility.yul\":3325:3399   */\n      swap2\n      pop\n        /* \"#utility.yul\":3408:3501   */\n      tag_116\n        /* \"#utility.yul\":3497:3500   */\n      dup3\n        /* \"#utility.yul\":3408:3501   */\n      tag_71\n      jump\t// in\n    tag_116:\n        /* \"#utility.yul\":3526:3528   */\n      0x40\n        /* \"#utility.yul\":3521:3524   */\n      dup3\n        /* \"#utility.yul\":3517:3529   */\n      add\n        /* \"#utility.yul\":3510:3529   */\n      swap1\n      pop\n        /* \"#utility.yul\":3169:3535   */\n      swap2\n      swap1\n      pop\n      jump\t// out\n        /* \"#utility.yul\":3541:3960   */\n    tag_39:\n        /* \"#utility.yul\":3707:3711   */\n      0x00\n        /* \"#utility.yul\":3745:3747   */\n      0x20\n        /* \"#utility.yul\":3734:3743   */\n      dup3\n        /* \"#utility.yul\":3730:3748   */\n      add\n        /* \"#utility.yul\":3722:3748   */\n      swap1\n      pop\n        /* \"#utility.yul\":3794:3803   */\n      dup2\n        /* \"#utility.yul\":3788:3792   */\n      dup2\n        /* \"#utility.yul\":3784:3804   */\n      sub\n        /* \"#utility.yul\":3780:3781   */\n      0x00\n        /* \"#utility.yul\":3769:3778   */\n      dup4\n        /* \"#utility.yul\":3765:3782   */\n      add\n        /* \"#utility.yul\":3758:3805   */\n      mstore\n        /* \"#utility.yul\":3822:3953   */\n      tag_118\n        /* \"#utility.yul\":3948:3952   */\n      dup2\n        /* \"#utility.yul\":3822:3953   */\n      tag_72\n      jump\t// in\n    tag_118:\n        /* \"#utility.yul\":3814:3953   */\n      swap1\n      pop\n        /* \"#utility.yul\":3541:3960   */\n      swap2\n      swap1\n      pop\n      jump\t// out\n        /* \"#utility.yul\":3966:4146   */\n    tag_73:\n        /* \"#utility.yul\":4014:4091   */\n      0x4e487b7100000000000000000000000000000000000000000000000000000000\n        /* \"#utility.yul\":4011:4012   */\n      0x00\n        /* \"#utility.yul\":4004:4092   */\n      mstore\n        /* \"#utility.yul\":4111:4115   */\n      0x11\n        /* \"#utility.yul\":4108:4109   */\n      0x04\n        /* \"#utility.yul\":4101:4116   */\n      mstore\n        /* \"#utility.yul\":4135:4139   */\n      0x24\n        /* \"#utility.yul\":4132:4133   */\n      0x00\n        /* \"#utility.yul\":4125:4140   */\n      revert\n        /* \"#utility.yul\":4152:4385   */\n    tag_44:\n        /* \"#utility.yul\":4191:4194   */\n      0x00\n        /* \"#utility.yul\":4214:4238   */\n      tag_121\n        /* \"#utility.yul\":4232:4237   */\n      dup3\n        /* \"#utility.yul\":4214:4238   */\n      tag_58\n      jump\t// in\n    tag_121:\n        /* \"#utility.yul\":4205:4238   */\n      swap2\n      pop\n        /* \"#utility.yul\":4260:4326   */\n      0xffffffffffffffffffffffffffffffffffffffffffffffffffffffffffffffff\n        /* \"#utility.yul\":4253:4258   */\n      dup3\n        /* \"#utility.yul\":4250:4327   */\n      sub\n        /* \"#utility.yul\":4247:4350   */\n      tag_122\n      jumpi\n        /* \"#utility.yul\":4330:4348   */\n      tag_123\n      tag_73\n      jump\t// in\n    tag_123:\n        /* \"#utility.yul\":4247:4350   */\n    tag_122:\n        /* \"#utility.yul\":4377:4378   */\n      0x01\n        /* \"#utility.yul\":4370:4375   */\n      dup3\n        /* \"#utility.yul\":4366:4379   */\n      add\n        /* \"#utility.yul\":4359:4379   */\n      swap1\n      pop\n        /* \"#utility.yul\":4152:4385   */\n      swap2\n      swap1\n      pop\n      jump\t// out\n        /* \"#utility.yul\":4391:4801   */\n    tag_49:\n        /* \"#utility.yul\":4431:4438   */\n      0x00\n        /* \"#utility.yul\":4454:4474   */\n      tag_125\n        /* \"#utility.yul\":4472:4473   */\n      dup3\n        /* \"#utility.yul\":4454:4474   */\n      tag_58\n      jump\t// in\n    tag_125:\n        /* \"#utility.yul\":4449:4474   */\n      swap2\n      pop\n        /* \"#utility.yul\":4488:4508   */\n      tag_126\n        /* \"#utility.yul\":4506:4507   */\n      dup4\n        /* \"#utility.yul\":4488:4508   */\n      tag_58\n      jump\t// in\n    tag_126:\n        /* \"#utility.yul\":4483:4508   */\n      swap3\n      pop\n        /* \"#utility.yul\":4543:4544   */\n      dup3\n        /* \"#utility.yul\":4540:4541   */\n      dup3\n        /* \"#utility.yul\":4536:4545   */\n      mul\n        /* \"#utility.yul\":4565:4595   */\n      tag_127\n        /* \"#utility.yul\":4583:4594   */\n      dup2\n        /* \"#utility.yul\":4565:4595   */\n      tag_58\n      jump\t// in\n    tag_127:\n        /* \"#utility.yul\":4554:4595   */\n      swap2\n      pop\n        /* \"#utility.yul\":4744:4745   */\n      dup3\n        /* \"#utility.yul\":4735:4742   */\n      dup3\n        /* \"#utility.yul\":4731:4746   */\n      div\n        /* \"#utility.yul\":4728:4729   */\n      dup5\n        /* \"#utility.yul\":4725:4747   */\n      eq\n        /* \"#utility.yul\":4705:4706   */\n      dup4\n        /* \"#utility.yul\":4698:4707   */\n      iszero\n        /* \"#utility.yul\":4678:4761   */\n      or\n        /* \"#utility.yul\":4655:4794   */\n      tag_128\n      jumpi\n        /* \"#utility.yul\":4774:4792   */\n      tag_129\n      tag_73\n      jump\t// in\n    tag_129:\n        /* \"#utility.yul\":4655:4794   */\n    tag_128:\n        /* \"#utility.yul\":4439:4801   */\n      pop\n        /* \"#utility.yul\":4391:4801   */\n      swap3\n      swap2\n      pop\n      pop\n      jump\t// out\n        /* \"#utility.yul\":4807:4987   */\n    tag_74:\n        /* \"#utility.yul\":4855:4932   */\n      0x4e487b7100000000000000000000000000000000000000000000000000000000\n        /* \"#utility.yul\":4852:4853   */\n      0x00\n        /* \"#utility.yul\":4845:4933   */\n      mstore\n        /* \"#utility.yul\":4952:4956   */\n      0x12\n        /* \"#utility.yul\":4949:4950   */\n      0x04\n        /* \"#utility.yul\":4942:4957   */\n      mstore\n        /* \"#utility.yul\":4976:4980   */\n      0x24\n        /* \"#utility.yul\":4973:4974   */\n      0x00\n        /* \"#utility.yul\":4966:4981   */\n      revert\n        /* \"#utility.yul\":4993:5178   */\n    tag_51:\n        /* \"#utility.yul\":5033:5034   */\n      0x00\n        /* \"#utility.yul\":5050:5070   */\n      tag_132\n        /* \"#utility.yul\":5068:5069   */\n      dup3\n        /* \"#utility.yul\":5050:5070   */\n      tag_58\n      jump\t// in\n    tag_132:\n        /* \"#utility.yul\":5045:5070   */\n      swap2\n      pop\n        /* \"#utility.yul\":5084:5104   */\n      tag_133\n        /* \"#utility.yul\":5102:5103   */\n      dup4\n        /* \"#utility.yul\":5084:5104   */\n      tag_58\n      jump\t// in\n    tag_133:\n        /* \"#utility.yul\":5079:5104   */\n      swap3\n      pop\n        /* \"#utility.yul\":5123:5124   */\n      dup3\n        /* \"#utility.yul\":5113:5148   */\n      tag_134\n      jumpi\n        /* \"#utility.yul\":5128:5146   */\n      tag_135\n      tag_74\n      jump\t// in\n    tag_135:\n        /* \"#utility.yul\":5113:5148   */\n    tag_134:\n        /* \"#utility.yul\":5170:5171   */\n      dup3\n        /* \"#utility.yul\":5167:5168   */\n      dup3\n        /* \"#utility.yul\":5163:5172   */\n      div\n        /* \"#utility.yul\":5158:5172   */\n      swap1\n      pop\n        /* \"#utility.yul\":4993:5178   */\n      swap3\n      swap2\n      pop\n      pop\n      jump\t// out\n        /* \"#utility.yul\":5184:5416   */\n    tag_75:\n        /* \"#utility.yul\":5324:5358   */\n      0x466f6e647320696e737566666973616e747320706f7572206566666563747565\n        /* \"#utility.yul\":5320:5321   */\n      0x00\n        /* \"#utility.yul\":5312:5318   */\n      dup3\n        /* \"#utility.yul\":5308:5322   */\n      add\n        /* \"#utility.yul\":5301:5359   */\n      mstore\n        /* \"#utility.yul\":5393:5408   */\n      0x72206c6520706169656d656e7400000000000000000000000000000000000000\n        /* \"#utility.yul\":5388:5390   */\n      0x20\n        /* \"#utility.yul\":5380:5386   */\n      dup3\n        /* \"#utility.yul\":5376:5391   */\n      add\n        /* \"#utility.yul\":5369:5409   */\n      mstore\n        /* \"#utility.yul\":5184:5416   */\n      pop\n      jump\t// out\n        /* \"#utility.yul\":5422:5788   */\n    tag_76:\n        /* \"#utility.yul\":5564:5567   */\n      0x00\n        /* \"#utility.yul\":5585:5652   */\n      tag_138\n        /* \"#utility.yul\":5649:5651   */\n      0x2d\n        /* \"#utility.yul\":5644:5647   */\n      dup4\n        /* \"#utility.yul\":5585:5652   */\n      tag_70\n      jump\t// in\n    tag_138:\n        /* \"#utility.yul\":5578:5652   */\n      swap2\n      pop\n        /* \"#utility.yul\":5661:5754   */\n      tag_139\n        /* \"#utility.yul\":5750:5753   */\n      dup3\n        /* \"#utility.yul\":5661:5754   */\n      tag_75\n      jump\t// in\n    tag_139:\n        /* \"#utility.yul\":5779:5781   */\n      0x40\n        /* \"#utility.yul\":5774:5777   */\n      dup3\n        /* \"#utility.yul\":5770:5782   */\n      add\n        /* \"#utility.yul\":5763:5782   */\n      swap1\n      pop\n        /* \"#utility.yul\":5422:5788   */\n      swap2\n      swap1\n      pop\n      jump\t// out\n        /* \"#utility.yul\":5794:6213   */\n    tag_55:\n        /* \"#utility.yul\":5960:5964   */\n      0x00\n        /* \"#utility.yul\":5998:6000   */\n      0x20\n        /* \"#utility.yul\":5987:5996   */\n      dup3\n        /* \"#utility.yul\":5983:6001   */\n      add\n        /* \"#utility.yul\":5975:6001   */\n      swap1\n      pop\n        /* \"#utility.yul\":6047:6056   */\n      dup2\n        /* \"#utility.yul\":6041:6045   */\n      dup2\n        /* \"#utility.yul\":6037:6057   */\n      sub\n        /* \"#utility.yul\":6033:6034   */\n      0x00\n        /* \"#utility.yul\":6022:6031   */\n      dup4\n        /* \"#utility.yul\":6018:6035   */\n      add\n        /* \"#utility.yul\":6011:6058   */\n      mstore\n        /* \"#utility.yul\":6075:6206   */\n      tag_141\n        /* \"#utility.yul\":6201:6205   */\n      dup2\n        /* \"#utility.yul\":6075:6206   */\n      tag_76\n      jump\t// in\n    tag_141:\n        /* \"#utility.yul\":6067:6206   */\n      swap1\n      pop\n        /* \"#utility.yul\":5794:6213   */\n      swap2\n      swap1\n      pop\n      jump\t// out\n\n    auxdata: 0xa2646970667358221220dcfceffbbea8a5186a701f54833c02163a62b4f913655eef0bdbfd67df1c85e864736f6c63430008120033\n}\n",
				"bytecode": {
					"linkReferences": {},
					"object": "608060405260405162000e3938038062000e398339818101604052810190620000299190620004d0565b805182511462000070576040517f08c379a00000000000000000000000000000000000000000000000000000000081526004016200006790620005b6565b60405180910390fd5b60005b8251811015620001c857818181518110620000935762000092620005d8565b5b6020026020010151600080858481518110620000b457620000b3620005d8565b5b602002602001015173ffffffffffffffffffffffffffffffffffffffff1673ffffffffffffffffffffffffffffffffffffffff168152602001908152602001600020819055506001838281518110620001125762000111620005d8565b5b60200260200101519080600181540180825580915050600190039060005260206000200160009091909190916101000a81548173ffffffffffffffffffffffffffffffffffffffff021916908373ffffffffffffffffffffffffffffffffffffffff16021790555081818151811062000190576200018f620005d8565b5b602002602001015160026000828254620001ab919062000636565b925050819055508080620001bf9062000671565b91505062000073565b505050620006be565b6000604051905090565b600080fd5b600080fd5b600080fd5b6000601f19601f8301169050919050565b7f4e487b7100000000000000000000000000000000000000000000000000000000600052604160045260246000fd5b6200023582620001ea565b810181811067ffffffffffffffff82111715620002575762000256620001fb565b5b80604052505050565b60006200026c620001d1565b90506200027a82826200022a565b919050565b600067ffffffffffffffff8211156200029d576200029c620001fb565b5b602082029050602081019050919050565b600080fd5b600073ffffffffffffffffffffffffffffffffffffffff82169050919050565b6000620002e082620002b3565b9050919050565b620002f281620002d3565b8114620002fe57600080fd5b50565b6000815190506200031281620002e7565b92915050565b60006200032f62000329846200027f565b62000260565b90508083825260208201905060208402830185811115620003555762000354620002ae565b5b835b818110156200038257806200036d888262000301565b84526020840193505060208101905062000357565b5050509392505050565b600082601f830112620003a457620003a3620001e5565b5b8151620003b684826020860162000318565b91505092915050565b600067ffffffffffffffff821115620003dd57620003dc620001fb565b5b602082029050602081019050919050565b6000819050919050565b6200040381620003ee565b81146200040f57600080fd5b50565b6000815190506200042381620003f8565b92915050565b6000620004406200043a84620003bf565b62000260565b90508083825260208201905060208402830185811115620004665762000465620002ae565b5b835b818110156200049357806200047e888262000412565b84526020840193505060208101905062000468565b5050509392505050565b600082601f830112620004b557620004b4620001e5565b5b8151620004c784826020860162000429565b91505092915050565b60008060408385031215620004ea57620004e9620001db565b5b600083015167ffffffffffffffff8111156200050b576200050a620001e0565b5b62000519858286016200038c565b925050602083015167ffffffffffffffff8111156200053d576200053c620001e0565b5b6200054b858286016200049d565b9150509250929050565b600082825260208201905092915050565b7f4c6f6e67756575727320646520646f6e6e65657320696e76616c696465730000600082015250565b60006200059e601e8362000555565b9150620005ab8262000566565b602082019050919050565b60006020820190508181036000830152620005d1816200058f565b9050919050565b7f4e487b7100000000000000000000000000000000000000000000000000000000600052603260045260246000fd5b7f4e487b7100000000000000000000000000000000000000000000000000000000600052601160045260246000fd5b60006200064382620003ee565b91506200065083620003ee565b92508282019050808211156200066b576200066a62000607565b5b92915050565b60006200067e82620003ee565b91507fffffffffffffffffffffffffffffffffffffffffffffffffffffffffffffffff8203620006b357620006b262000607565b5b600182019050919050565b61076b80620006ce6000396000f3fe60806040526004361061003f5760003560e01c806318160ddd1461004457806327e235e31461006f57806391c05b0b146100ac578063923108d9146100c8575b600080fd5b34801561005057600080fd5b50610059610105565b604051610066919061038a565b60405180910390f35b34801561007b57600080fd5b5061009660048036038101906100919190610408565b61010b565b6040516100a3919061038a565b60405180910390f35b6100c660048036038101906100c19190610461565b610123565b005b3480156100d457600080fd5b506100ef60048036038101906100ea9190610461565b610238565b6040516100fc919061049d565b60405180910390f35b60025481565b60006020528060005260406000206000915090505481565b60005b60018054905081101561023457600060018281548110610149576101486104b8565b5b9060005260206000200160009054906101000a900473ffffffffffffffffffffffffffffffffffffffff16905060006101828285610277565b9050600081116101c7576040517f08c379a00000000000000000000000000000000000000000000000000000000081526004016101be9061056a565b60405180910390fd5b6101d182826102e3565b8173ffffffffffffffffffffffffffffffffffffffff167fd4f43975feb89f48dd30cabbb32011045be187d1e11c8ea9faa43efc3528251982604051610217919061038a565b60405180910390a25050808061022c906105b9565b915050610126565b5050565b6001818154811061024857600080fd5b906000526020600020016000915054906101000a900473ffffffffffffffffffffffffffffffffffffffff1681565b6000806000808573ffffffffffffffffffffffffffffffffffffffff1673ffffffffffffffffffffffffffffffffffffffff168152602001908152602001600020549050600060025484836102cc9190610601565b6102d69190610672565b9050809250505092915050565b80471015610326576040517f08c379a000000000000000000000000000000000000000000000000000000000815260040161031d90610715565b60405180910390fd5b8173ffffffffffffffffffffffffffffffffffffffff166108fc829081150290604051600060405180830381858888f1935050505015801561036c573d6000803e3d6000fd5b505050565b6000819050919050565b61038481610371565b82525050565b600060208201905061039f600083018461037b565b92915050565b600080fd5b600073ffffffffffffffffffffffffffffffffffffffff82169050919050565b60006103d5826103aa565b9050919050565b6103e5816103ca565b81146103f057600080fd5b50565b600081359050610402816103dc565b92915050565b60006020828403121561041e5761041d6103a5565b5b600061042c848285016103f3565b91505092915050565b61043e81610371565b811461044957600080fd5b50565b60008135905061045b81610435565b92915050565b600060208284031215610477576104766103a5565b5b60006104858482850161044c565b91505092915050565b610497816103ca565b82525050565b60006020820190506104b2600083018461048e565b92915050565b7f4e487b7100000000000000000000000000000000000000000000000000000000600052603260045260246000fd5b600082825260208201905092915050565b7f50617320646520706169656d656e74206475206a6f757220706f7572206c652060008201527f64657374696e6174616972650000000000000000000000000000000000000000602082015250565b6000610554602c836104e7565b915061055f826104f8565b604082019050919050565b6000602082019050818103600083015261058381610547565b9050919050565b7f4e487b7100000000000000000000000000000000000000000000000000000000600052601160045260246000fd5b60006105c482610371565b91507fffffffffffffffffffffffffffffffffffffffffffffffffffffffffffffffff82036105f6576105f561058a565b5b600182019050919050565b600061060c82610371565b915061061783610371565b925082820261062581610371565b9150828204841483151761063c5761063b61058a565b5b5092915050565b7f4e487b7100000000000000000000000000000000000000000000000000000000600052601260045260246000fd5b600061067d82610371565b915061068883610371565b92508261069857610697610643565b5b828204905092915050565b7f466f6e647320696e737566666973616e747320706f757220656666656374756560008201527f72206c6520706169656d656e7400000000000000000000000000000000000000602082015250565b60006106ff602d836104e7565b915061070a826106a3565b604082019050919050565b6000602082019050818103600083015261072e816106f2565b905091905056fea2646970667358221220dcfceffbbea8a5186a701f54833c02163a62b4f913655eef0bdbfd67df1c85e864736f6c63430008120033",
					"opcodes": "PUSH1 0x80 PUSH1 0x40 MSTORE PUSH1 0x40 MLOAD PUSH3 0xE39 CODESIZE SUB DUP1 PUSH3 0xE39 DUP4 CODECOPY DUP2 DUP2 ADD PUSH1 0x40 MSTORE DUP2 ADD SWAP1 PUSH3 0x29 SWAP2 SWAP1 PUSH3 0x4D0 JUMP JUMPDEST DUP1 MLOAD DUP3 MLOAD EQ PUSH3 0x70 JUMPI PUSH1 0x40 MLOAD PUSH32 0x8C379A000000000000000000000000000000000000000000000000000000000 DUP2 MSTORE PUSH1 0x4 ADD PUSH3 0x67 SWAP1 PUSH3 0x5B6 JUMP JUMPDEST PUSH1 0x40 MLOAD DUP1 SWAP2 SUB SWAP1 REVERT JUMPDEST PUSH1 0x0 JUMPDEST DUP3 MLOAD DUP2 LT ISZERO PUSH3 0x1C8 JUMPI DUP2 DUP2 DUP2 MLOAD DUP2 LT PUSH3 0x93 JUMPI PUSH3 0x92 PUSH3 0x5D8 JUMP JUMPDEST JUMPDEST PUSH1 0x20 MUL PUSH1 0x20 ADD ADD MLOAD PUSH1 0x0 DUP1 DUP6 DUP5 DUP2 MLOAD DUP2 LT PUSH3 0xB4 JUMPI PUSH3 0xB3 PUSH3 0x5D8 JUMP JUMPDEST JUMPDEST PUSH1 0x20 MUL PUSH1 0x20 ADD ADD MLOAD PUSH20 0xFFFFFFFFFFFFFFFFFFFFFFFFFFFFFFFFFFFFFFFF AND PUSH20 0xFFFFFFFFFFFFFFFFFFFFFFFFFFFFFFFFFFFFFFFF AND DUP2 MSTORE PUSH1 0x20 ADD SWAP1 DUP2 MSTORE PUSH1 0x20 ADD PUSH1 0x0 KECCAK256 DUP2 SWAP1 SSTORE POP PUSH1 0x1 DUP4 DUP3 DUP2 MLOAD DUP2 LT PUSH3 0x112 JUMPI PUSH3 0x111 PUSH3 0x5D8 JUMP JUMPDEST JUMPDEST PUSH1 0x20 MUL PUSH1 0x20 ADD ADD MLOAD SWAP1 DUP1 PUSH1 0x1 DUP2 SLOAD ADD DUP1 DUP3 SSTORE DUP1 SWAP2 POP POP PUSH1 0x1 SWAP1 SUB SWAP1 PUSH1 0x0 MSTORE PUSH1 0x20 PUSH1 0x0 KECCAK256 ADD PUSH1 0x0 SWAP1 SWAP2 SWAP1 SWAP2 SWAP1 SWAP2 PUSH2 0x100 EXP DUP2 SLOAD DUP2 PUSH20 0xFFFFFFFFFFFFFFFFFFFFFFFFFFFFFFFFFFFFFFFF MUL NOT AND SWAP1 DUP4 PUSH20 0xFFFFFFFFFFFFFFFFFFFFFFFFFFFFFFFFFFFFFFFF AND MUL OR SWAP1 SSTORE POP DUP2 DUP2 DUP2 MLOAD DUP2 LT PUSH3 0x190 JUMPI PUSH3 0x18F PUSH3 0x5D8 JUMP JUMPDEST JUMPDEST PUSH1 0x20 MUL PUSH1 0x20 ADD ADD MLOAD PUSH1 0x2 PUSH1 0x0 DUP3 DUP3 SLOAD PUSH3 0x1AB SWAP2 SWAP1 PUSH3 0x636 JUMP JUMPDEST SWAP3 POP POP DUP2 SWAP1 SSTORE POP DUP1 DUP1 PUSH3 0x1BF SWAP1 PUSH3 0x671 JUMP JUMPDEST SWAP2 POP POP PUSH3 0x73 JUMP JUMPDEST POP POP POP PUSH3 0x6BE JUMP JUMPDEST PUSH1 0x0 PUSH1 0x40 MLOAD SWAP1 POP SWAP1 JUMP JUMPDEST PUSH1 0x0 DUP1 REVERT JUMPDEST PUSH1 0x0 DUP1 REVERT JUMPDEST PUSH1 0x0 DUP1 REVERT JUMPDEST PUSH1 0x0 PUSH1 0x1F NOT PUSH1 0x1F DUP4 ADD AND SWAP1 POP SWAP2 SWAP1 POP JUMP JUMPDEST PUSH32 0x4E487B7100000000000000000000000000000000000000000000000000000000 PUSH1 0x0 MSTORE PUSH1 0x41 PUSH1 0x4 MSTORE PUSH1 0x24 PUSH1 0x0 REVERT JUMPDEST PUSH3 0x235 DUP3 PUSH3 0x1EA JUMP JUMPDEST DUP2 ADD DUP2 DUP2 LT PUSH8 0xFFFFFFFFFFFFFFFF DUP3 GT OR ISZERO PUSH3 0x257 JUMPI PUSH3 0x256 PUSH3 0x1FB JUMP JUMPDEST JUMPDEST DUP1 PUSH1 0x40 MSTORE POP POP POP JUMP JUMPDEST PUSH1 0x0 PUSH3 0x26C PUSH3 0x1D1 JUMP JUMPDEST SWAP1 POP PUSH3 0x27A DUP3 DUP3 PUSH3 0x22A JUMP JUMPDEST SWAP2 SWAP1 POP JUMP JUMPDEST PUSH1 0x0 PUSH8 0xFFFFFFFFFFFFFFFF DUP3 GT ISZERO PUSH3 0x29D JUMPI PUSH3 0x29C PUSH3 0x1FB JUMP JUMPDEST JUMPDEST PUSH1 0x20 DUP3 MUL SWAP1 POP PUSH1 0x20 DUP2 ADD SWAP1 POP SWAP2 SWAP1 POP JUMP JUMPDEST PUSH1 0x0 DUP1 REVERT JUMPDEST PUSH1 0x0 PUSH20 0xFFFFFFFFFFFFFFFFFFFFFFFFFFFFFFFFFFFFFFFF DUP3 AND SWAP1 POP SWAP2 SWAP1 POP JUMP JUMPDEST PUSH1 0x0 PUSH3 0x2E0 DUP3 PUSH3 0x2B3 JUMP JUMPDEST SWAP1 POP SWAP2 SWAP1 POP JUMP JUMPDEST PUSH3 0x2F2 DUP2 PUSH3 0x2D3 JUMP JUMPDEST DUP2 EQ PUSH3 0x2FE JUMPI PUSH1 0x0 DUP1 REVERT JUMPDEST POP JUMP JUMPDEST PUSH1 0x0 DUP2 MLOAD SWAP1 POP PUSH3 0x312 DUP2 PUSH3 0x2E7 JUMP JUMPDEST SWAP3 SWAP2 POP POP JUMP JUMPDEST PUSH1 0x0 PUSH3 0x32F PUSH3 0x329 DUP5 PUSH3 0x27F JUMP JUMPDEST PUSH3 0x260 JUMP JUMPDEST SWAP1 POP DUP1 DUP4 DUP3 MSTORE PUSH1 0x20 DUP3 ADD SWAP1 POP PUSH1 0x20 DUP5 MUL DUP4 ADD DUP6 DUP2 GT ISZERO PUSH3 0x355 JUMPI PUSH3 0x354 PUSH3 0x2AE JUMP JUMPDEST JUMPDEST DUP4 JUMPDEST DUP2 DUP2 LT ISZERO PUSH3 0x382 JUMPI DUP1 PUSH3 0x36D DUP9 DUP3 PUSH3 0x301 JUMP JUMPDEST DUP5 MSTORE PUSH1 0x20 DUP5 ADD SWAP4 POP POP PUSH1 0x20 DUP2 ADD SWAP1 POP PUSH3 0x357 JUMP JUMPDEST POP POP POP SWAP4 SWAP3 POP POP POP JUMP JUMPDEST PUSH1 0x0 DUP3 PUSH1 0x1F DUP4 ADD SLT PUSH3 0x3A4 JUMPI PUSH3 0x3A3 PUSH3 0x1E5 JUMP JUMPDEST JUMPDEST DUP2 MLOAD PUSH3 0x3B6 DUP5 DUP3 PUSH1 0x20 DUP7 ADD PUSH3 0x318 JUMP JUMPDEST SWAP2 POP POP SWAP3 SWAP2 POP POP JUMP JUMPDEST PUSH1 0x0 PUSH8 0xFFFFFFFFFFFFFFFF DUP3 GT ISZERO PUSH3 0x3DD JUMPI PUSH3 0x3DC PUSH3 0x1FB JUMP JUMPDEST JUMPDEST PUSH1 0x20 DUP3 MUL SWAP1 POP PUSH1 0x20 DUP2 ADD SWAP1 POP SWAP2 SWAP1 POP JUMP JUMPDEST PUSH1 0x0 DUP2 SWAP1 POP SWAP2 SWAP1 POP JUMP JUMPDEST PUSH3 0x403 DUP2 PUSH3 0x3EE JUMP JUMPDEST DUP2 EQ PUSH3 0x40F JUMPI PUSH1 0x0 DUP1 REVERT JUMPDEST POP JUMP JUMPDEST PUSH1 0x0 DUP2 MLOAD SWAP1 POP PUSH3 0x423 DUP2 PUSH3 0x3F8 JUMP JUMPDEST SWAP3 SWAP2 POP POP JUMP JUMPDEST PUSH1 0x0 PUSH3 0x440 PUSH3 0x43A DUP5 PUSH3 0x3BF JUMP JUMPDEST PUSH3 0x260 JUMP JUMPDEST SWAP1 POP DUP1 DUP4 DUP3 MSTORE PUSH1 0x20 DUP3 ADD SWAP1 POP PUSH1 0x20 DUP5 MUL DUP4 ADD DUP6 DUP2 GT ISZERO PUSH3 0x466 JUMPI PUSH3 0x465 PUSH3 0x2AE JUMP JUMPDEST JUMPDEST DUP4 JUMPDEST DUP2 DUP2 LT ISZERO PUSH3 0x493 JUMPI DUP1 PUSH3 0x47E DUP9 DUP3 PUSH3 0x412 JUMP JUMPDEST DUP5 MSTORE PUSH1 0x20 DUP5 ADD SWAP4 POP POP PUSH1 0x20 DUP2 ADD SWAP1 POP PUSH3 0x468 JUMP JUMPDEST POP POP POP SWAP4 SWAP3 POP POP POP JUMP JUMPDEST PUSH1 0x0 DUP3 PUSH1 0x1F DUP4 ADD SLT PUSH3 0x4B5 JUMPI PUSH3 0x4B4 PUSH3 0x1E5 JUMP JUMPDEST JUMPDEST DUP2 MLOAD PUSH3 0x4C7 DUP5 DUP3 PUSH1 0x20 DUP7 ADD PUSH3 0x429 JUMP JUMPDEST SWAP2 POP POP SWAP3 SWAP2 POP POP JUMP JUMPDEST PUSH1 0x0 DUP1 PUSH1 0x40 DUP4 DUP6 SUB SLT ISZERO PUSH3 0x4EA JUMPI PUSH3 0x4E9 PUSH3 0x1DB JUMP JUMPDEST JUMPDEST PUSH1 0x0 DUP4 ADD MLOAD PUSH8 0xFFFFFFFFFFFFFFFF DUP2 GT ISZERO PUSH3 0x50B JUMPI PUSH3 0x50A PUSH3 0x1E0 JUMP JUMPDEST JUMPDEST PUSH3 0x519 DUP6 DUP3 DUP7 ADD PUSH3 0x38C JUMP JUMPDEST SWAP3 POP POP PUSH1 0x20 DUP4 ADD MLOAD PUSH8 0xFFFFFFFFFFFFFFFF DUP2 GT ISZERO PUSH3 0x53D JUMPI PUSH3 0x53C PUSH3 0x1E0 JUMP JUMPDEST JUMPDEST PUSH3 0x54B DUP6 DUP3 DUP7 ADD PUSH3 0x49D JUMP JUMPDEST SWAP2 POP POP SWAP3 POP SWAP3 SWAP1 POP JUMP JUMPDEST PUSH1 0x0 DUP3 DUP3 MSTORE PUSH1 0x20 DUP3 ADD SWAP1 POP SWAP3 SWAP2 POP POP JUMP JUMPDEST PUSH32 0x4C6F6E67756575727320646520646F6E6E65657320696E76616C696465730000 PUSH1 0x0 DUP3 ADD MSTORE POP JUMP JUMPDEST PUSH1 0x0 PUSH3 0x59E PUSH1 0x1E DUP4 PUSH3 0x555 JUMP JUMPDEST SWAP2 POP PUSH3 0x5AB DUP3 PUSH3 0x566 JUMP JUMPDEST PUSH1 0x20 DUP3 ADD SWAP1 POP SWAP2 SWAP1 POP JUMP JUMPDEST PUSH1 0x0 PUSH1 0x20 DUP3 ADD SWAP1 POP DUP2 DUP2 SUB PUSH1 0x0 DUP4 ADD MSTORE PUSH3 0x5D1 DUP2 PUSH3 0x58F JUMP JUMPDEST SWAP1 POP SWAP2 SWAP1 POP JUMP JUMPDEST PUSH32 0x4E487B7100000000000000000000000000000000000000000000000000000000 PUSH1 0x0 MSTORE PUSH1 0x32 PUSH1 0x4 MSTORE PUSH1 0x24 PUSH1 0x0 REVERT JUMPDEST PUSH32 0x4E487B7100000000000000000000000000000000000000000000000000000000 PUSH1 0x0 MSTORE PUSH1 0x11 PUSH1 0x4 MSTORE PUSH1 0x24 PUSH1 0x0 REVERT JUMPDEST PUSH1 0x0 PUSH3 0x643 DUP3 PUSH3 0x3EE JUMP JUMPDEST SWAP2 POP PUSH3 0x650 DUP4 PUSH3 0x3EE JUMP JUMPDEST SWAP3 POP DUP3 DUP3 ADD SWAP1 POP DUP1 DUP3 GT ISZERO PUSH3 0x66B JUMPI PUSH3 0x66A PUSH3 0x607 JUMP JUMPDEST JUMPDEST SWAP3 SWAP2 POP POP JUMP JUMPDEST PUSH1 0x0 PUSH3 0x67E DUP3 PUSH3 0x3EE JUMP JUMPDEST SWAP2 POP PUSH32 0xFFFFFFFFFFFFFFFFFFFFFFFFFFFFFFFFFFFFFFFFFFFFFFFFFFFFFFFFFFFFFFFF DUP3 SUB PUSH3 0x6B3 JUMPI PUSH3 0x6B2 PUSH3 0x607 JUMP JUMPDEST JUMPDEST PUSH1 0x1 DUP3 ADD SWAP1 POP SWAP2 SWAP1 POP JUMP JUMPDEST PUSH2 0x76B DUP1 PUSH3 0x6CE PUSH1 0x0 CODECOPY PUSH1 0x0 RETURN INVALID PUSH1 0x80 PUSH1 0x40 MSTORE PUSH1 0x4 CALLDATASIZE LT PUSH2 0x3F JUMPI PUSH1 0x0 CALLDATALOAD PUSH1 0xE0 SHR DUP1 PUSH4 0x18160DDD EQ PUSH2 0x44 JUMPI DUP1 PUSH4 0x27E235E3 EQ PUSH2 0x6F JUMPI DUP1 PUSH4 0x91C05B0B EQ PUSH2 0xAC JUMPI DUP1 PUSH4 0x923108D9 EQ PUSH2 0xC8 JUMPI JUMPDEST PUSH1 0x0 DUP1 REVERT JUMPDEST CALLVALUE DUP1 ISZERO PUSH2 0x50 JUMPI PUSH1 0x0 DUP1 REVERT JUMPDEST POP PUSH2 0x59 PUSH2 0x105 JUMP JUMPDEST PUSH1 0x40 MLOAD PUSH2 0x66 SWAP2 SWAP1 PUSH2 0x38A JUMP JUMPDEST PUSH1 0x40 MLOAD DUP1 SWAP2 SUB SWAP1 RETURN JUMPDEST CALLVALUE DUP1 ISZERO PUSH2 0x7B JUMPI PUSH1 0x0 DUP1 REVERT JUMPDEST POP PUSH2 0x96 PUSH1 0x4 DUP1 CALLDATASIZE SUB DUP2 ADD SWAP1 PUSH2 0x91 SWAP2 SWAP1 PUSH2 0x408 JUMP JUMPDEST PUSH2 0x10B JUMP JUMPDEST PUSH1 0x40 MLOAD PUSH2 0xA3 SWAP2 SWAP1 PUSH2 0x38A JUMP JUMPDEST PUSH1 0x40 MLOAD DUP1 SWAP2 SUB SWAP1 RETURN JUMPDEST PUSH2 0xC6 PUSH1 0x4 DUP1 CALLDATASIZE SUB DUP2 ADD SWAP1 PUSH2 0xC1 SWAP2 SWAP1 PUSH2 0x461 JUMP JUMPDEST PUSH2 0x123 JUMP JUMPDEST STOP JUMPDEST CALLVALUE DUP1 ISZERO PUSH2 0xD4 JUMPI PUSH1 0x0 DUP1 REVERT JUMPDEST POP PUSH2 0xEF PUSH1 0x4 DUP1 CALLDATASIZE SUB DUP2 ADD SWAP1 PUSH2 0xEA SWAP2 SWAP1 PUSH2 0x461 JUMP JUMPDEST PUSH2 0x238 JUMP JUMPDEST PUSH1 0x40 MLOAD PUSH2 0xFC SWAP2 SWAP1 PUSH2 0x49D JUMP JUMPDEST PUSH1 0x40 MLOAD DUP1 SWAP2 SUB SWAP1 RETURN JUMPDEST PUSH1 0x2 SLOAD DUP2 JUMP JUMPDEST PUSH1 0x0 PUSH1 0x20 MSTORE DUP1 PUSH1 0x0 MSTORE PUSH1 0x40 PUSH1 0x0 KECCAK256 PUSH1 0x0 SWAP2 POP SWAP1 POP SLOAD DUP2 JUMP JUMPDEST PUSH1 0x0 JUMPDEST PUSH1 0x1 DUP1 SLOAD SWAP1 POP DUP2 LT ISZERO PUSH2 0x234 JUMPI PUSH1 0x0 PUSH1 0x1 DUP3 DUP2 SLOAD DUP2 LT PUSH2 0x149 JUMPI PUSH2 0x148 PUSH2 0x4B8 JUMP JUMPDEST JUMPDEST SWAP1 PUSH1 0x0 MSTORE PUSH1 0x20 PUSH1 0x0 KECCAK256 ADD PUSH1 0x0 SWAP1 SLOAD SWAP1 PUSH2 0x100 EXP SWAP1 DIV PUSH20 0xFFFFFFFFFFFFFFFFFFFFFFFFFFFFFFFFFFFFFFFF AND SWAP1 POP PUSH1 0x0 PUSH2 0x182 DUP3 DUP6 PUSH2 0x277 JUMP JUMPDEST SWAP1 POP PUSH1 0x0 DUP2 GT PUSH2 0x1C7 JUMPI PUSH1 0x40 MLOAD PUSH32 0x8C379A000000000000000000000000000000000000000000000000000000000 DUP2 MSTORE PUSH1 0x4 ADD PUSH2 0x1BE SWAP1 PUSH2 0x56A JUMP JUMPDEST PUSH1 0x40 MLOAD DUP1 SWAP2 SUB SWAP1 REVERT JUMPDEST PUSH2 0x1D1 DUP3 DUP3 PUSH2 0x2E3 JUMP JUMPDEST DUP2 PUSH20 0xFFFFFFFFFFFFFFFFFFFFFFFFFFFFFFFFFFFFFFFF AND PUSH32 0xD4F43975FEB89F48DD30CABBB32011045BE187D1E11C8EA9FAA43EFC35282519 DUP3 PUSH1 0x40 MLOAD PUSH2 0x217 SWAP2 SWAP1 PUSH2 0x38A JUMP JUMPDEST PUSH1 0x40 MLOAD DUP1 SWAP2 SUB SWAP1 LOG2 POP POP DUP1 DUP1 PUSH2 0x22C SWAP1 PUSH2 0x5B9 JUMP JUMPDEST SWAP2 POP POP PUSH2 0x126 JUMP JUMPDEST POP POP JUMP JUMPDEST PUSH1 0x1 DUP2 DUP2 SLOAD DUP2 LT PUSH2 0x248 JUMPI PUSH1 0x0 DUP1 REVERT JUMPDEST SWAP1 PUSH1 0x0 MSTORE PUSH1 0x20 PUSH1 0x0 KECCAK256 ADD PUSH1 0x0 SWAP2 POP SLOAD SWAP1 PUSH2 0x100 EXP SWAP1 DIV PUSH20 0xFFFFFFFFFFFFFFFFFFFFFFFFFFFFFFFFFFFFFFFF AND DUP2 JUMP JUMPDEST PUSH1 0x0 DUP1 PUSH1 0x0 DUP1 DUP6 PUSH20 0xFFFFFFFFFFFFFFFFFFFFFFFFFFFFFFFFFFFFFFFF AND PUSH20 0xFFFFFFFFFFFFFFFFFFFFFFFFFFFFFFFFFFFFFFFF AND DUP2 MSTORE PUSH1 0x20 ADD SWAP1 DUP2 MSTORE PUSH1 0x20 ADD PUSH1 0x0 KECCAK256 SLOAD SWAP1 POP PUSH1 0x0 PUSH1 0x2 SLOAD DUP5 DUP4 PUSH2 0x2CC SWAP2 SWAP1 PUSH2 0x601 JUMP JUMPDEST PUSH2 0x2D6 SWAP2 SWAP1 PUSH2 0x672 JUMP JUMPDEST SWAP1 POP DUP1 SWAP3 POP POP POP SWAP3 SWAP2 POP POP JUMP JUMPDEST DUP1 SELFBALANCE LT ISZERO PUSH2 0x326 JUMPI PUSH1 0x40 MLOAD PUSH32 0x8C379A000000000000000000000000000000000000000000000000000000000 DUP2 MSTORE PUSH1 0x4 ADD PUSH2 0x31D SWAP1 PUSH2 0x715 JUMP JUMPDEST PUSH1 0x40 MLOAD DUP1 SWAP2 SUB SWAP1 REVERT JUMPDEST DUP2 PUSH20 0xFFFFFFFFFFFFFFFFFFFFFFFFFFFFFFFFFFFFFFFF AND PUSH2 0x8FC DUP3 SWAP1 DUP2 ISZERO MUL SWAP1 PUSH1 0x40 MLOAD PUSH1 0x0 PUSH1 0x40 MLOAD DUP1 DUP4 SUB DUP2 DUP6 DUP9 DUP9 CALL SWAP4 POP POP POP POP ISZERO DUP1 ISZERO PUSH2 0x36C JUMPI RETURNDATASIZE PUSH1 0x0 DUP1 RETURNDATACOPY RETURNDATASIZE PUSH1 0x0 REVERT JUMPDEST POP POP POP JUMP JUMPDEST PUSH1 0x0 DUP2 SWAP1 POP SWAP2 SWAP1 POP JUMP JUMPDEST PUSH2 0x384 DUP2 PUSH2 0x371 JUMP JUMPDEST DUP3 MSTORE POP POP JUMP JUMPDEST PUSH1 0x0 PUSH1 0x20 DUP3 ADD SWAP1 POP PUSH2 0x39F PUSH1 0x0 DUP4 ADD DUP5 PUSH2 0x37B JUMP JUMPDEST SWAP3 SWAP2 POP POP JUMP JUMPDEST PUSH1 0x0 DUP1 REVERT JUMPDEST PUSH1 0x0 PUSH20 0xFFFFFFFFFFFFFFFFFFFFFFFFFFFFFFFFFFFFFFFF DUP3 AND SWAP1 POP SWAP2 SWAP1 POP JUMP JUMPDEST PUSH1 0x0 PUSH2 0x3D5 DUP3 PUSH2 0x3AA JUMP JUMPDEST SWAP1 POP SWAP2 SWAP1 POP JUMP JUMPDEST PUSH2 0x3E5 DUP2 PUSH2 0x3CA JUMP JUMPDEST DUP2 EQ PUSH2 0x3F0 JUMPI PUSH1 0x0 DUP1 REVERT JUMPDEST POP JUMP JUMPDEST PUSH1 0x0 DUP2 CALLDATALOAD SWAP1 POP PUSH2 0x402 DUP2 PUSH2 0x3DC JUMP JUMPDEST SWAP3 SWAP2 POP POP JUMP JUMPDEST PUSH1 0x0 PUSH1 0x20 DUP3 DUP5 SUB SLT ISZERO PUSH2 0x41E JUMPI PUSH2 0x41D PUSH2 0x3A5 JUMP JUMPDEST JUMPDEST PUSH1 0x0 PUSH2 0x42C DUP5 DUP3 DUP6 ADD PUSH2 0x3F3 JUMP JUMPDEST SWAP2 POP POP SWAP3 SWAP2 POP POP JUMP JUMPDEST PUSH2 0x43E DUP2 PUSH2 0x371 JUMP JUMPDEST DUP2 EQ PUSH2 0x449 JUMPI PUSH1 0x0 DUP1 REVERT JUMPDEST POP JUMP JUMPDEST PUSH1 0x0 DUP2 CALLDATALOAD SWAP1 POP PUSH2 0x45B DUP2 PUSH2 0x435 JUMP JUMPDEST SWAP3 SWAP2 POP POP JUMP JUMPDEST PUSH1 0x0 PUSH1 0x20 DUP3 DUP5 SUB SLT ISZERO PUSH2 0x477 JUMPI PUSH2 0x476 PUSH2 0x3A5 JUMP JUMPDEST JUMPDEST PUSH1 0x0 PUSH2 0x485 DUP5 DUP3 DUP6 ADD PUSH2 0x44C JUMP JUMPDEST SWAP2 POP POP SWAP3 SWAP2 POP POP JUMP JUMPDEST PUSH2 0x497 DUP2 PUSH2 0x3CA JUMP JUMPDEST DUP3 MSTORE POP POP JUMP JUMPDEST PUSH1 0x0 PUSH1 0x20 DUP3 ADD SWAP1 POP PUSH2 0x4B2 PUSH1 0x0 DUP4 ADD DUP5 PUSH2 0x48E JUMP JUMPDEST SWAP3 SWAP2 POP POP JUMP JUMPDEST PUSH32 0x4E487B7100000000000000000000000000000000000000000000000000000000 PUSH1 0x0 MSTORE PUSH1 0x32 PUSH1 0x4 MSTORE PUSH1 0x24 PUSH1 0x0 REVERT JUMPDEST PUSH1 0x0 DUP3 DUP3 MSTORE PUSH1 0x20 DUP3 ADD SWAP1 POP SWAP3 SWAP2 POP POP JUMP JUMPDEST PUSH32 0x50617320646520706169656D656E74206475206A6F757220706F7572206C6520 PUSH1 0x0 DUP3 ADD MSTORE PUSH32 0x64657374696E6174616972650000000000000000000000000000000000000000 PUSH1 0x20 DUP3 ADD MSTORE POP JUMP JUMPDEST PUSH1 0x0 PUSH2 0x554 PUSH1 0x2C DUP4 PUSH2 0x4E7 JUMP JUMPDEST SWAP2 POP PUSH2 0x55F DUP3 PUSH2 0x4F8 JUMP JUMPDEST PUSH1 0x40 DUP3 ADD SWAP1 POP SWAP2 SWAP1 POP JUMP JUMPDEST PUSH1 0x0 PUSH1 0x20 DUP3 ADD SWAP1 POP DUP2 DUP2 SUB PUSH1 0x0 DUP4 ADD MSTORE PUSH2 0x583 DUP2 PUSH2 0x547 JUMP JUMPDEST SWAP1 POP SWAP2 SWAP1 POP JUMP JUMPDEST PUSH32 0x4E487B7100000000000000000000000000000000000000000000000000000000 PUSH1 0x0 MSTORE PUSH1 0x11 PUSH1 0x4 MSTORE PUSH1 0x24 PUSH1 0x0 REVERT JUMPDEST PUSH1 0x0 PUSH2 0x5C4 DUP3 PUSH2 0x371 JUMP JUMPDEST SWAP2 POP PUSH32 0xFFFFFFFFFFFFFFFFFFFFFFFFFFFFFFFFFFFFFFFFFFFFFFFFFFFFFFFFFFFFFFFF DUP3 SUB PUSH2 0x5F6 JUMPI PUSH2 0x5F5 PUSH2 0x58A JUMP JUMPDEST JUMPDEST PUSH1 0x1 DUP3 ADD SWAP1 POP SWAP2 SWAP1 POP JUMP JUMPDEST PUSH1 0x0 PUSH2 0x60C DUP3 PUSH2 0x371 JUMP JUMPDEST SWAP2 POP PUSH2 0x617 DUP4 PUSH2 0x371 JUMP JUMPDEST SWAP3 POP DUP3 DUP3 MUL PUSH2 0x625 DUP2 PUSH2 0x371 JUMP JUMPDEST SWAP2 POP DUP3 DUP3 DIV DUP5 EQ DUP4 ISZERO OR PUSH2 0x63C JUMPI PUSH2 0x63B PUSH2 0x58A JUMP JUMPDEST JUMPDEST POP SWAP3 SWAP2 POP POP JUMP JUMPDEST PUSH32 0x4E487B7100000000000000000000000000000000000000000000000000000000 PUSH1 0x0 MSTORE PUSH1 0x12 PUSH1 0x4 MSTORE PUSH1 0x24 PUSH1 0x0 REVERT JUMPDEST PUSH1 0x0 PUSH2 0x67D DUP3 PUSH2 0x371 JUMP JUMPDEST SWAP2 POP PUSH2 0x688 DUP4 PUSH2 0x371 JUMP JUMPDEST SWAP3 POP DUP3 PUSH2 0x698 JUMPI PUSH2 0x697 PUSH2 0x643 JUMP JUMPDEST JUMPDEST DUP3 DUP3 DIV SWAP1 POP SWAP3 SWAP2 POP POP JUMP JUMPDEST PUSH32 0x466F6E647320696E737566666973616E747320706F7572206566666563747565 PUSH1 0x0 DUP3 ADD MSTORE PUSH32 0x72206C6520706169656D656E7400000000000000000000000000000000000000 PUSH1 0x20 DUP3 ADD MSTORE POP JUMP JUMPDEST PUSH1 0x0 PUSH2 0x6FF PUSH1 0x2D DUP4 PUSH2 0x4E7 JUMP JUMPDEST SWAP2 POP PUSH2 0x70A DUP3 PUSH2 0x6A3 JUMP JUMPDEST PUSH1 0x40 DUP3 ADD SWAP1 POP SWAP2 SWAP1 POP JUMP JUMPDEST PUSH1 0x0 PUSH1 0x20 DUP3 ADD SWAP1 POP DUP2 DUP2 SUB PUSH1 0x0 DUP4 ADD MSTORE PUSH2 0x72E DUP2 PUSH2 0x6F2 JUMP JUMPDEST SWAP1 POP SWAP2 SWAP1 POP JUMP INVALID LOG2 PUSH5 0x6970667358 0x22 SLT KECCAK256 0xDC 0xFC 0xEF 0xFB 0xBE 0xA8 0xA5 XOR PUSH11 0x701F54833C02163A62B4F9 SGT PUSH6 0x5EEF0BDBFD67 0xDF SHR DUP6 0xE8 PUSH5 0x736F6C6343 STOP ADDMOD SLT STOP CALLER "
				},
				"gasEstimates": {
					"creation": {
						"codeDepositCost": "379800",
						"executionCost": "infinite",
						"totalCost": "infinite"
					},
					"external": {
						"balances(address)": "2814",
						"distribute(uint256)": "infinite",
						"tokenHolders(uint256)": "5000",
						"totalSupply()": "2407"
					},
					"internal": {
						"calculatePayment(address,uint256)": "infinite",
						"makePayment(address payable,uint256)": "infinite"
					}
				},
				"methodIdentifiers": {
					"balances(address)": "27e235e3",
					"distribute(uint256)": "91c05b0b",
					"tokenHolders(uint256)": "923108d9",
					"totalSupply()": "18160ddd"
				}
			},
			"storageLayout": {
				"storage": [
					{
						"astId": 5,
						"contract": "contracts/5_Distribution_Token.sol:DistributionRevenus",
						"label": "balances",
						"offset": 0,
						"slot": "0",
						"type": "t_mapping(t_address,t_uint256)"
					},
					{
						"astId": 8,
						"contract": "contracts/5_Distribution_Token.sol:DistributionRevenus",
						"label": "tokenHolders",
						"offset": 0,
						"slot": "1",
						"type": "t_array(t_address)dyn_storage"
					},
					{
						"astId": 10,
						"contract": "contracts/5_Distribution_Token.sol:DistributionRevenus",
						"label": "totalSupply",
						"offset": 0,
						"slot": "2",
						"type": "t_uint256"
					}
				],
				"types": {
					"t_address": {
						"encoding": "inplace",
						"label": "address",
						"numberOfBytes": "20"
					},
					"t_array(t_address)dyn_storage": {
						"base": "t_address",
						"encoding": "dynamic_array",
						"label": "address[]",
						"numberOfBytes": "32"
					},
					"t_mapping(t_address,t_uint256)": {
						"encoding": "mapping",
						"key": "t_address",
						"label": "mapping(address => uint256)",
						"numberOfBytes": "32",
						"value": "t_uint256"
					},
					"t_uint256": {
						"encoding": "inplace",
						"label": "uint256",
						"numberOfBytes": "32"
					}
				}
			},
			"userdoc": {
				"kind": "user",
				"methods": {},
				"version": 1
			}
		}
	}
}