{
  "contractName": "BalanceRegistry",
  "abi": [
    {
      "inputs": [
        {
          "internalType": "address",
          "name": "from",
          "type": "address"
        },
        {
          "internalType": "address",
          "name": "to",
          "type": "address"
        },
        {
          "internalType": "uint256",
          "name": "amount",
          "type": "uint256"
        }
      ],
      "name": "transferTokens",
      "outputs": [],
      "stateMutability": "nonpayable",
      "type": "function"
    },
    {
      "inputs": [
        {
          "internalType": "address",
          "name": "seller",
          "type": "address"
        },
        {
          "internalType": "uint256",
          "name": "price",
          "type": "uint256"
        }
      ],
      "name": "setTokenOffer",
      "outputs": [],
      "stateMutability": "nonpayable",
      "type": "function"
    },
    {
      "inputs": [
        {
          "internalType": "address",
          "name": "account",
          "type": "address"
        }
      ],
      "name": "getBalance",
      "outputs": [
        {
          "internalType": "uint256",
          "name": "",
          "type": "uint256"
        }
      ],
      "stateMutability": "view",
      "type": "function",
      "constant": true
    },
    {
      "inputs": [
        {
          "internalType": "address",
          "name": "account",
          "type": "address"
        }
      ],
      "name": "getTokenOffer",
      "outputs": [
        {
          "internalType": "uint256",
          "name": "",
          "type": "uint256"
        }
      ],
      "stateMutability": "view",
      "type": "function",
      "constant": true
    },
    {
      "inputs": [
        {
          "internalType": "address",
          "name": "account",
          "type": "address"
        },
        {
          "internalType": "uint256",
          "name": "balance",
          "type": "uint256"
        }
      ],
      "name": "updateBalance",
      "outputs": [],
      "stateMutability": "nonpayable",
      "type": "function"
    }
  ],
  "bytecode": "0x608060405234801561001057600080fd5b50610658806100206000396000f3fe608060405234801561001057600080fd5b50600436106100575760003560e01c806307e23e381461005c5780634868173e1461008c578063a64b6e5f146100a8578063e0b1cccb146100c4578063f8b2cb4f146100e0575b600080fd5b6100766004803603810190610071919061038a565b610110565b60405161008391906104d3565b60405180910390f35b6100a660048036038101906100a19190610402565b610159565b005b6100c260048036038101906100bd91906103b3565b6101a1565b005b6100de60048036038101906100d99190610402565b6102d1565b005b6100fa60048036038101906100f5919061038a565b610318565b60405161010791906104d3565b60405180910390f35b6000600160008373ffffffffffffffffffffffffffffffffffffffff1673ffffffffffffffffffffffffffffffffffffffff168152602001908152602001600020549050919050565b80600160008473ffffffffffffffffffffffffffffffffffffffff1673ffffffffffffffffffffffffffffffffffffffff168152602001908152602001600020819055505050565b806000808573ffffffffffffffffffffffffffffffffffffffff1673ffffffffffffffffffffffffffffffffffffffff168152602001908152602001600020541015610222576040517f08c379a0000000000000000000000000000000000000000000000000000000008152600401610219906104b3565b60405180910390fd5b806000808573ffffffffffffffffffffffffffffffffffffffff1673ffffffffffffffffffffffffffffffffffffffff16815260200190815260200160002060008282546102709190610555565b92505081905550806000808473ffffffffffffffffffffffffffffffffffffffff1673ffffffffffffffffffffffffffffffffffffffff16815260200190815260200160002060008282546102c591906104ff565b92505081905550505050565b806000808473ffffffffffffffffffffffffffffffffffffffff1673ffffffffffffffffffffffffffffffffffffffff168152602001908152602001600020819055505050565b60008060008373ffffffffffffffffffffffffffffffffffffffff1673ffffffffffffffffffffffffffffffffffffffff168152602001908152602001600020549050919050565b60008135905061036f816105f4565b92915050565b6000813590506103848161060b565b92915050565b60006020828403121561039c57600080fd5b60006103aa84828501610360565b91505092915050565b6000806000606084860312156103c857600080fd5b60006103d686828701610360565b93505060206103e786828701610360565b92505060406103f886828701610375565b9150509250925092565b6000806040838503121561041557600080fd5b600061042385828601610360565b925050602061043485828601610375565b9150509250929050565b600061044b6023836104ee565b91507f536f6c646520696e737566666973616e7420706f7572206c65207472616e736660008301527f65727400000000000000000000000000000000000000000000000000000000006020830152604082019050919050565b6104ad816105bb565b82525050565b600060208201905081810360008301526104cc8161043e565b9050919050565b60006020820190506104e860008301846104a4565b92915050565b600082825260208201905092915050565b600061050a826105bb565b9150610515836105bb565b9250827fffffffffffffffffffffffffffffffffffffffffffffffffffffffffffffffff0382111561054a576105496105c5565b5b828201905092915050565b6000610560826105bb565b915061056b836105bb565b92508282101561057e5761057d6105c5565b5b828203905092915050565b60006105948261059b565b9050919050565b600073ffffffffffffffffffffffffffffffffffffffff82169050919050565b6000819050919050565b7f4e487b7100000000000000000000000000000000000000000000000000000000600052601160045260246000fd5b6105fd81610589565b811461060857600080fd5b50565b610614816105bb565b811461061f57600080fd5b5056fea2646970667358221220359a27aaeb909bb505320bb66eb402616968be02307327bb47f930495015d2ed64736f6c63430008000033",
  "immutableReferences": {},
  "source": "// SPDX-License-Identifier: GPL-3.0\r\n\r\npragma solidity >=0.7.0 <0.9.0;\r\n\r\ncontract BalanceRegistry {\r\n    // Mapping pour stocker les soldes des dtenteurs de tokens\r\n    mapping(address => uint256) private balances;\r\n\r\n    // Mapping pour stocker les offres de vente des dtenteurs de tokens\r\n    mapping(address => uint256) private tokenOffers;\r\n\r\n    // Fonction pour transfrer des tokens entre des adresses\r\n    function transferTokens(address from, address to, uint256 amount) external {\r\n        require(balances[from] >= amount, \"Solde insuffisant pour le transfert\");\r\n        balances[from] -= amount;\r\n        balances[to] += amount;\r\n    }\r\n\r\n    // Fonction pour dfinir l'offre de vente d'un token\r\n    function setTokenOffer(address seller, uint256 price) external {\r\n        tokenOffers[seller] = price;\r\n    }\r\n\r\n    // Fonction pour rcuprer le solde d'un dtenteur de tokens\r\n    function getBalance(address account) external view returns (uint256) {\r\n        return balances[account];\r\n    }\r\n\r\n    // Fonction pour rcuprer l'offre de vente d'un token\r\n    function getTokenOffer(address account) external view returns (uint256) {\r\n        return tokenOffers[account];\r\n    }\r\n\r\n     // Fonction pour mettre  jour la balance d'un dtenteur de tokens\r\n    function updateBalance(address account, uint256 balance) external {\r\n        balances[account] = balance;\r\n    }\r\n}\r\n",
  "sourcePath": "C:\\Users\\0000\\Desktop\\Shareimmo\\shareimmo-dapp\\contracts\\contracts\\BalanceRegistry.sol",
  "compiler": {
    "name": "solc",
    "version": "0.8.0+commit.c7dfd78e.Emscripten.clang"
  },
  "schemaVersion": "3.4.15",
  "updatedAt": "2023-08-11T18:26:01.106Z",
  "networkType": "ethereum",
  "devdoc": {
    "kind": "dev",
    "methods": {},
    "version": 1
  },
  "userdoc": {
    "kind": "user",
    "methods": {},
    "version": 1
  }
}