{
  "contractName": "DistributionRevenus",
  "abi": [
    {
      "inputs": [
        {
          "internalType": "address[]",
          "name": "_addresses",
          "type": "address[]"
        },
        {
          "internalType": "uint256[]",
          "name": "_balances",
          "type": "uint256[]"
        }
      ],
      "stateMutability": "payable",
      "type": "constructor",
      "payable": true
    },
    {
      "anonymous": false,
      "inputs": [
        {
          "indexed": true,
          "internalType": "address",
          "name": "recipient",
          "type": "address"
        },
        {
          "indexed": false,
          "internalType": "uint256",
          "name": "amount",
          "type": "uint256"
        }
      ],
      "name": "Payment",
      "type": "event"
    },
    {
      "inputs": [
        {
          "internalType": "address",
          "name": "",
          "type": "address"
        }
      ],
      "name": "balances",
      "outputs": [
        {
          "internalType": "uint256",
          "name": "",
          "type": "uint256"
        }
      ],
      "stateMutability": "view",
      "type": "function",
      "constant": true
    },
    {
      "inputs": [
        {
          "internalType": "uint256",
          "name": "",
          "type": "uint256"
        }
      ],
      "name": "tokenHolders",
      "outputs": [
        {
          "internalType": "address",
          "name": "",
          "type": "address"
        }
      ],
      "stateMutability": "view",
      "type": "function",
      "constant": true
    },
    {
      "inputs": [],
      "name": "totalSupply",
      "outputs": [
        {
          "internalType": "uint256",
          "name": "",
          "type": "uint256"
        }
      ],
      "stateMutability": "view",
      "type": "function",
      "constant": true
    },
    {
      "inputs": [
        {
          "internalType": "uint256",
          "name": "distributedAmount",
          "type": "uint256"
        }
      ],
      "name": "distribute",
      "outputs": [],
      "stateMutability": "payable",
      "type": "function",
      "payable": true
    }
  ],
  "bytecode": "0x608060405260405162000e2e38038062000e2e8339818101604052810190620000299190620003d3565b805182511462000070576040517f08c379a0000000000000000000000000000000000000000000000000000000008152600401620000679062000488565b60405180910390fd5b60005b82518110156200025857818181518110620000b7577f4e487b7100000000000000000000000000000000000000000000000000000000600052603260045260246000fd5b6020026020010151600080858481518110620000fc577f4e487b7100000000000000000000000000000000000000000000000000000000600052603260045260246000fd5b602002602001015173ffffffffffffffffffffffffffffffffffffffff1673ffffffffffffffffffffffffffffffffffffffff1681526020019081526020016000208190555060018382815181106200017e577f4e487b7100000000000000000000000000000000000000000000000000000000600052603260045260246000fd5b60200260200101519080600181540180825580915050600190039060005260206000200160009091909190916101000a81548173ffffffffffffffffffffffffffffffffffffffff021916908373ffffffffffffffffffffffffffffffffffffffff16021790555081818151811062000220577f4e487b7100000000000000000000000000000000000000000000000000000000600052603260045260246000fd5b6020026020010151600260008282546200023b91906200054d565b9250508190555080806200024f90620005e8565b91505062000073565b505050620006c8565b6000620002786200027284620004de565b620004aa565b905080838252602082019050828560208602820111156200029857600080fd5b60005b85811015620002cc5781620002b188826200034b565b8452602084019350602083019250506001810190506200029b565b5050509392505050565b6000620002ed620002e7846200050d565b620004aa565b905080838252602082019050828560208602820111156200030d57600080fd5b60005b85811015620003415781620003268882620003bc565b84526020840193506020830192505060018101905062000310565b5050509392505050565b6000815190506200035c8162000694565b92915050565b600082601f8301126200037457600080fd5b81516200038684826020860162000261565b91505092915050565b600082601f830112620003a157600080fd5b8151620003b3848260208601620002d6565b91505092915050565b600081519050620003cd81620006ae565b92915050565b60008060408385031215620003e757600080fd5b600083015167ffffffffffffffff8111156200040257600080fd5b620004108582860162000362565b925050602083015167ffffffffffffffff8111156200042e57600080fd5b6200043c858286016200038f565b9150509250929050565b600062000455601e836200053c565b91507f4c6f6e67756575727320646520646f6e6e65657320696e76616c6964657300006000830152602082019050919050565b60006020820190508181036000830152620004a38162000446565b9050919050565b6000604051905081810181811067ffffffffffffffff82111715620004d457620004d362000665565b5b8060405250919050565b600067ffffffffffffffff821115620004fc57620004fb62000665565b5b602082029050602081019050919050565b600067ffffffffffffffff8211156200052b576200052a62000665565b5b602082029050602081019050919050565b600082825260208201905092915050565b60006200055a82620005de565b91506200056783620005de565b9250827fffffffffffffffffffffffffffffffffffffffffffffffffffffffffffffffff038211156200059f576200059e62000636565b5b828201905092915050565b6000620005b782620005be565b9050919050565b600073ffffffffffffffffffffffffffffffffffffffff82169050919050565b6000819050919050565b6000620005f582620005de565b91507fffffffffffffffffffffffffffffffffffffffffffffffffffffffffffffffff8214156200062b576200062a62000636565b5b600182019050919050565b7f4e487b7100000000000000000000000000000000000000000000000000000000600052601160045260246000fd5b7f4e487b7100000000000000000000000000000000000000000000000000000000600052604160045260246000fd5b6200069f81620005aa565b8114620006ab57600080fd5b50565b620006b981620005de565b8114620006c557600080fd5b50565b61075680620006d86000396000f3fe60806040526004361061003f5760003560e01c806318160ddd1461004457806327e235e31461006f57806391c05b0b146100ac578063923108d9146100c8575b600080fd5b34801561005057600080fd5b50610059610105565b6040516100669190610558565b60405180910390f35b34801561007b57600080fd5b50610096600480360381019061009191906103c1565b61010b565b6040516100a39190610558565b60405180910390f35b6100c660048036038101906100c191906103ea565b610123565b005b3480156100d457600080fd5b506100ef60048036038101906100ea91906103ea565b61025e565b6040516100fc91906104fd565b60405180910390f35b60025481565b60006020528060005260406000206000915090505481565b60005b60018054905081101561025a5760006001828154811061016f577f4e487b7100000000000000000000000000000000000000000000000000000000600052603260045260246000fd5b9060005260206000200160009054906101000a900473ffffffffffffffffffffffffffffffffffffffff16905060006101a8828561029d565b9050600081116101ed576040517f08c379a00000000000000000000000000000000000000000000000000000000081526004016101e490610518565b60405180910390fd5b6101f78282610309565b8173ffffffffffffffffffffffffffffffffffffffff167fd4f43975feb89f48dd30cabbb32011045be187d1e11c8ea9faa43efc352825198260405161023d9190610558565b60405180910390a2505080806102529061064b565b915050610126565b5050565b6001818154811061026e57600080fd5b906000526020600020016000915054906101000a900473ffffffffffffffffffffffffffffffffffffffff1681565b6000806000808573ffffffffffffffffffffffffffffffffffffffff1673ffffffffffffffffffffffffffffffffffffffff168152602001908152602001600020549050600060025484836102f291906105b5565b6102fc9190610584565b9050809250505092915050565b8047101561034c576040517f08c379a000000000000000000000000000000000000000000000000000000000815260040161034390610538565b60405180910390fd5b8173ffffffffffffffffffffffffffffffffffffffff166108fc829081150290604051600060405180830381858888f19350505050158015610392573d6000803e3d6000fd5b505050565b6000813590506103a6816106f2565b92915050565b6000813590506103bb81610709565b92915050565b6000602082840312156103d357600080fd5b60006103e184828501610397565b91505092915050565b6000602082840312156103fc57600080fd5b600061040a848285016103ac565b91505092915050565b61041c8161060f565b82525050565b600061042f602c83610573565b91507f50617320646520706169656d656e74206475206a6f757220706f7572206c652060008301527f64657374696e61746169726500000000000000000000000000000000000000006020830152604082019050919050565b6000610495602d83610573565b91507f466f6e647320696e737566666973616e747320706f757220656666656374756560008301527f72206c6520706169656d656e74000000000000000000000000000000000000006020830152604082019050919050565b6104f781610641565b82525050565b60006020820190506105126000830184610413565b92915050565b6000602082019050818103600083015261053181610422565b9050919050565b6000602082019050818103600083015261055181610488565b9050919050565b600060208201905061056d60008301846104ee565b92915050565b600082825260208201905092915050565b600061058f82610641565b915061059a83610641565b9250826105aa576105a96106c3565b5b828204905092915050565b60006105c082610641565b91506105cb83610641565b9250817fffffffffffffffffffffffffffffffffffffffffffffffffffffffffffffffff048311821515161561060457610603610694565b5b828202905092915050565b600061061a82610621565b9050919050565b600073ffffffffffffffffffffffffffffffffffffffff82169050919050565b6000819050919050565b600061065682610641565b91507fffffffffffffffffffffffffffffffffffffffffffffffffffffffffffffffff82141561068957610688610694565b5b600182019050919050565b7f4e487b7100000000000000000000000000000000000000000000000000000000600052601160045260246000fd5b7f4e487b7100000000000000000000000000000000000000000000000000000000600052601260045260246000fd5b6106fb8161060f565b811461070657600080fd5b50565b61071281610641565b811461071d57600080fd5b5056fea26469706673582212200f5b1d693edd2ca49a937c989c290d7d9549abeeb8df86f01338ba3fc25a125164736f6c63430008000033",
  "immutableReferences": {},
  "source": "// SPDX-License-Identifier: GPL-3.0\r\n\r\npragma solidity >=0.7.0 <0.9.0;\r\n\r\ncontract DistributionRevenus {\r\n    // Mapping pour stocker les soldes de tokens des dtenteurs\r\n    mapping(address => uint256) public balances;\r\n    \r\n    // Tableau pour stocker les adresses des dtenteurs de tokens\r\n    address[] public tokenHolders;\r\n    \r\n    // Total des tokens en circulation\r\n    uint256 public totalSupply;\r\n\r\n    // vnement pour notifier les paiements effectus\r\n    event Payment(address indexed recipient, uint256 amount);\r\n\r\n    // Constructeur pour initialiser les soldes des dtenteurs de tokens\r\n    constructor(address[] memory _addresses, uint256[] memory _balances) payable {\r\n        require(_addresses.length == _balances.length, \"Longueurs de donnees invalides\");\r\n\r\n        for (uint256 i = 0; i < _addresses.length; i++) {\r\n            balances[_addresses[i]] = _balances[i];\r\n            tokenHolders.push(_addresses[i]);\r\n            totalSupply += _balances[i];\r\n        }\r\n    }\r\n\r\n    // Fonction pour distribuer les revenus aux dtenteurs de tokens\r\n    function distribute(uint256 distributedAmount) external payable {\r\n        for (uint256 i = 0; i < tokenHolders.length; i++) {\r\n            address recipient = tokenHolders[i];\r\n            uint256 paymentAmount = calculatePayment(recipient,distributedAmount);\r\n\r\n            require(paymentAmount > 0, \"Pas de paiement du jour pour le destinataire\");\r\n\r\n            // Effectuer le paiement au destinataire\r\n            // (Supposons l'existence d'une fonction de paiement externe)\r\n            makePayment(payable(recipient), paymentAmount);\r\n            emit Payment(payable(recipient), paymentAmount);\r\n        }\r\n    }\r\n\r\n\r\n    // Fonction pour calculer le montant du paiement pour un destinataire donn\r\n    function calculatePayment(address recipient,uint256 amount) internal view returns (uint256) {\r\n        // Calculer le montant du paiement en fonction du solde de tokens du destinataire\r\n        uint256 tokenBalance = balances[recipient];\r\n      //  uint256 totalBalance = address(this).balance;\r\n         uint256 paymentAmount = (tokenBalance * amount) / totalSupply;\r\n        return paymentAmount;\r\n    }\r\n\r\n    // Fonction pour effectuer le paiement au destinataire\r\n    function makePayment(address payable recipient, uint256 amount) internal {\r\n        require(address(this).balance >= amount, \"Fonds insuffisants pour effectuer le paiement\");\r\n        recipient.transfer(amount);\r\n    }\r\n\r\n}\r\n",
  "sourcePath": "C:\\Users\\0000\\Desktop\\Shareimmo\\shareimmo-dapp\\contracts\\contracts\\DistributionRevenus.sol",
  "compiler": {
    "name": "solc",
    "version": "0.8.0+commit.c7dfd78e.Emscripten.clang"
  },
  "schemaVersion": "3.4.15",
  "updatedAt": "2023-08-11T18:25:59.241Z",
  "networkType": "ethereum",
  "devdoc": {
    "kind": "dev",
    "methods": {},
    "version": 1
  },
  "userdoc": {
    "kind": "user",
    "methods": {},
    "version": 1
  }
}