{
  "contractName": "EmissionToken",
  "abi": [
    {
      "inputs": [
        {
          "internalType": "address",
          "name": "_balanceRegistryAddress",
          "type": "address"
        }
      ],
      "stateMutability": "nonpayable",
      "type": "constructor"
    },
    {
      "anonymous": false,
      "inputs": [
        {
          "indexed": true,
          "internalType": "address",
          "name": "owner",
          "type": "address"
        },
        {
          "indexed": true,
          "internalType": "address",
          "name": "spender",
          "type": "address"
        },
        {
          "indexed": false,
          "internalType": "uint256",
          "name": "value",
          "type": "uint256"
        }
      ],
      "name": "Approval",
      "type": "event"
    },
    {
      "anonymous": false,
      "inputs": [
        {
          "indexed": true,
          "internalType": "address",
          "name": "from",
          "type": "address"
        },
        {
          "indexed": true,
          "internalType": "address",
          "name": "to",
          "type": "address"
        },
        {
          "indexed": false,
          "internalType": "uint256",
          "name": "value",
          "type": "uint256"
        }
      ],
      "name": "Transfer",
      "type": "event"
    },
    {
      "inputs": [],
      "name": "admin",
      "outputs": [
        {
          "internalType": "address",
          "name": "",
          "type": "address"
        }
      ],
      "stateMutability": "view",
      "type": "function",
      "constant": true
    },
    {
      "inputs": [
        {
          "internalType": "address",
          "name": "owner",
          "type": "address"
        },
        {
          "internalType": "address",
          "name": "spender",
          "type": "address"
        }
      ],
      "name": "allowance",
      "outputs": [
        {
          "internalType": "uint256",
          "name": "",
          "type": "uint256"
        }
      ],
      "stateMutability": "view",
      "type": "function",
      "constant": true
    },
    {
      "inputs": [
        {
          "internalType": "address",
          "name": "spender",
          "type": "address"
        },
        {
          "internalType": "uint256",
          "name": "amount",
          "type": "uint256"
        }
      ],
      "name": "approve",
      "outputs": [
        {
          "internalType": "bool",
          "name": "",
          "type": "bool"
        }
      ],
      "stateMutability": "nonpayable",
      "type": "function"
    },
    {
      "inputs": [
        {
          "internalType": "address",
          "name": "account",
          "type": "address"
        }
      ],
      "name": "balanceOf",
      "outputs": [
        {
          "internalType": "uint256",
          "name": "",
          "type": "uint256"
        }
      ],
      "stateMutability": "view",
      "type": "function",
      "constant": true
    },
    {
      "inputs": [],
      "name": "decimals",
      "outputs": [
        {
          "internalType": "uint8",
          "name": "",
          "type": "uint8"
        }
      ],
      "stateMutability": "view",
      "type": "function",
      "constant": true
    },
    {
      "inputs": [
        {
          "internalType": "address",
          "name": "spender",
          "type": "address"
        },
        {
          "internalType": "uint256",
          "name": "subtractedValue",
          "type": "uint256"
        }
      ],
      "name": "decreaseAllowance",
      "outputs": [
        {
          "internalType": "bool",
          "name": "",
          "type": "bool"
        }
      ],
      "stateMutability": "nonpayable",
      "type": "function"
    },
    {
      "inputs": [
        {
          "internalType": "address",
          "name": "spender",
          "type": "address"
        },
        {
          "internalType": "uint256",
          "name": "addedValue",
          "type": "uint256"
        }
      ],
      "name": "increaseAllowance",
      "outputs": [
        {
          "internalType": "bool",
          "name": "",
          "type": "bool"
        }
      ],
      "stateMutability": "nonpayable",
      "type": "function"
    },
    {
      "inputs": [],
      "name": "name",
      "outputs": [
        {
          "internalType": "string",
          "name": "",
          "type": "string"
        }
      ],
      "stateMutability": "view",
      "type": "function",
      "constant": true
    },
    {
      "inputs": [],
      "name": "symbol",
      "outputs": [
        {
          "internalType": "string",
          "name": "",
          "type": "string"
        }
      ],
      "stateMutability": "view",
      "type": "function",
      "constant": true
    },
    {
      "inputs": [],
      "name": "totalSupply",
      "outputs": [
        {
          "internalType": "uint256",
          "name": "",
          "type": "uint256"
        }
      ],
      "stateMutability": "view",
      "type": "function",
      "constant": true
    },
    {
      "inputs": [
        {
          "internalType": "address",
          "name": "to",
          "type": "address"
        },
        {
          "internalType": "uint256",
          "name": "amount",
          "type": "uint256"
        }
      ],
      "name": "transfer",
      "outputs": [
        {
          "internalType": "bool",
          "name": "",
          "type": "bool"
        }
      ],
      "stateMutability": "nonpayable",
      "type": "function"
    },
    {
      "inputs": [
        {
          "internalType": "address",
          "name": "from",
          "type": "address"
        },
        {
          "internalType": "address",
          "name": "to",
          "type": "address"
        },
        {
          "internalType": "uint256",
          "name": "amount",
          "type": "uint256"
        }
      ],
      "name": "transferFrom",
      "outputs": [
        {
          "internalType": "bool",
          "name": "",
          "type": "bool"
        }
      ],
      "stateMutability": "nonpayable",
      "type": "function"
    },
    {
      "inputs": [
        {
          "internalType": "address",
          "name": "to",
          "type": "address"
        },
        {
          "internalType": "uint256",
          "name": "amount",
          "type": "uint256"
        }
      ],
      "name": "mint",
      "outputs": [],
      "stateMutability": "nonpayable",
      "type": "function"
    },
    {
      "inputs": [
        {
          "internalType": "address",
          "name": "from",
          "type": "address"
        },
        {
          "internalType": "uint256",
          "name": "amount",
          "type": "uint256"
        }
      ],
      "name": "burn",
      "outputs": [],
      "stateMutability": "nonpayable",
      "type": "function"
    }
  ],
  "bytecode": "0x60806040523480156200001157600080fd5b5060405162001bf738038062001bf7833981810160405281019062000037919062000227565b6040518060400160405280600f81526020017f5368617265496d6d6f20546f6b656e00000000000000000000000000000000008152506040518060400160405280600581526020017f53494d4d4f0000000000000000000000000000000000000000000000000000008152508160039080519060200190620000bb92919062000160565b508060049080519060200190620000d492919062000160565b50505033600560006101000a81548173ffffffffffffffffffffffffffffffffffffffff021916908373ffffffffffffffffffffffffffffffffffffffff16021790555080600660006101000a81548173ffffffffffffffffffffffffffffffffffffffff021916908373ffffffffffffffffffffffffffffffffffffffff1602179055505062000306565b8280546200016e9062000287565b90600052602060002090601f016020900481019282620001925760008555620001de565b82601f10620001ad57805160ff1916838001178555620001de565b82800160010185558215620001de579182015b82811115620001dd578251825591602001919060010190620001c0565b5b509050620001ed9190620001f1565b5090565b5b808211156200020c576000816000905550600101620001f2565b5090565b6000815190506200022181620002ec565b92915050565b6000602082840312156200023a57600080fd5b60006200024a8482850162000210565b91505092915050565b6000620002608262000267565b9050919050565b600073ffffffffffffffffffffffffffffffffffffffff82169050919050565b60006002820490506001821680620002a057607f821691505b60208210811415620002b757620002b6620002bd565b5b50919050565b7f4e487b7100000000000000000000000000000000000000000000000000000000600052602260045260246000fd5b620002f78162000253565b81146200030357600080fd5b50565b6118e180620003166000396000f3fe608060405234801561001057600080fd5b50600436106100ea5760003560e01c806370a082311161008c578063a457c2d711610066578063a457c2d71461025f578063a9059cbb1461028f578063dd62ed3e146102bf578063f851a440146102ef576100ea565b806370a08231146101f557806395d89b41146102255780639dc29fac14610243576100ea565b806323b872dd116100c857806323b872dd1461015b578063313ce5671461018b57806339509351146101a957806340c10f19146101d9576100ea565b806306fdde03146100ef578063095ea7b31461010d57806318160ddd1461013d575b600080fd5b6100f761030d565b604051610104919061154a565b60405180910390f35b6101276004803603810190610122919061108a565b61039f565b604051610134919061152f565b60405180910390f35b6101456103c2565b60405161015291906116ac565b60405180910390f35b6101756004803603810190610170919061103b565b6103cc565b604051610182919061152f565b60405180910390f35b6101936103fb565b6040516101a091906116c7565b60405180910390f35b6101c360048036038101906101be919061108a565b610404565b6040516101d0919061152f565b60405180910390f35b6101f360048036038101906101ee919061108a565b61043b565b005b61020f600480360381019061020a9190610fd6565b6104e0565b60405161021c91906116ac565b60405180910390f35b61022d610528565b60405161023a919061154a565b60405180910390f35b61025d6004803603810190610258919061108a565b6105ba565b005b6102796004803603810190610274919061108a565b61065f565b604051610286919061152f565b60405180910390f35b6102a960048036038101906102a4919061108a565b6106d6565b6040516102b6919061152f565b60405180910390f35b6102d960048036038101906102d49190610fff565b6106f9565b6040516102e691906116ac565b60405180910390f35b6102f7610780565b60405161030491906114eb565b60405180910390f35b60606003805461031c906117dc565b80601f0160208091040260200160405190810160405280929190818152602001828054610348906117dc565b80156103955780601f1061036a57610100808354040283529160200191610395565b820191906000526020600020905b81548152906001019060200180831161037857829003601f168201915b5050505050905090565b6000806103aa6107a6565b90506103b78185856107ae565b600191505092915050565b6000600254905090565b6000806103d76107a6565b90506103e4858285610979565b6103ef858585610a05565b60019150509392505050565b60006012905090565b60008061040f6107a6565b905061043081858561042185896106f9565b61042b91906116fe565b6107ae565b600191505092915050565b6104458282610c7d565b600660009054906101000a900473ffffffffffffffffffffffffffffffffffffffff1673ffffffffffffffffffffffffffffffffffffffff1663e0b1cccb8361048d856104e0565b6040518363ffffffff1660e01b81526004016104aa929190611506565b600060405180830381600087803b1580156104c457600080fd5b505af11580156104d8573d6000803e3d6000fd5b505050505050565b60008060008373ffffffffffffffffffffffffffffffffffffffff1673ffffffffffffffffffffffffffffffffffffffff168152602001908152602001600020549050919050565b606060048054610537906117dc565b80601f0160208091040260200160405190810160405280929190818152602001828054610563906117dc565b80156105b05780601f10610585576101008083540402835291602001916105b0565b820191906000526020600020905b81548152906001019060200180831161059357829003601f168201915b5050505050905090565b6105c48282610dd4565b600660009054906101000a900473ffffffffffffffffffffffffffffffffffffffff1673ffffffffffffffffffffffffffffffffffffffff1663e0b1cccb8361060c856104e0565b6040518363ffffffff1660e01b8152600401610629929190611506565b600060405180830381600087803b15801561064357600080fd5b505af1158015610657573d6000803e3d6000fd5b505050505050565b60008061066a6107a6565b9050600061067882866106f9565b9050838110156106bd576040517f08c379a00000000000000000000000000000000000000000000000000000000081526004016106b49061166c565b60405180910390fd5b6106ca82868684036107ae565b60019250505092915050565b6000806106e16107a6565b90506106ee818585610a05565b600191505092915050565b6000600160008473ffffffffffffffffffffffffffffffffffffffff1673ffffffffffffffffffffffffffffffffffffffff16815260200190815260200160002060008373ffffffffffffffffffffffffffffffffffffffff1673ffffffffffffffffffffffffffffffffffffffff16815260200190815260200160002054905092915050565b600560009054906101000a900473ffffffffffffffffffffffffffffffffffffffff1681565b600033905090565b600073ffffffffffffffffffffffffffffffffffffffff168373ffffffffffffffffffffffffffffffffffffffff16141561081e576040517f08c379a00000000000000000000000000000000000000000000000000000000081526004016108159061164c565b60405180910390fd5b600073ffffffffffffffffffffffffffffffffffffffff168273ffffffffffffffffffffffffffffffffffffffff16141561088e576040517f08c379a0000000000000000000000000000000000000000000000000000000008152600401610885906115ac565b60405180910390fd5b80600160008573ffffffffffffffffffffffffffffffffffffffff1673ffffffffffffffffffffffffffffffffffffffff16815260200190815260200160002060008473ffffffffffffffffffffffffffffffffffffffff1673ffffffffffffffffffffffffffffffffffffffff168152602001908152602001600020819055508173ffffffffffffffffffffffffffffffffffffffff168373ffffffffffffffffffffffffffffffffffffffff167f8c5be1e5ebec7d5bd14f71427d1e84f3dd0314c0f7b2291e5b200ac8c7c3b9258360405161096c91906116ac565b60405180910390a3505050565b600061098584846106f9565b90507fffffffffffffffffffffffffffffffffffffffffffffffffffffffffffffffff81146109ff57818110156109f1576040517f08c379a00000000000000000000000000000000000000000000000000000000081526004016109e8906115cc565b60405180910390fd5b6109fe84848484036107ae565b5b50505050565b600073ffffffffffffffffffffffffffffffffffffffff168373ffffffffffffffffffffffffffffffffffffffff161415610a75576040517f08c379a0000000000000000000000000000000000000000000000000000000008152600401610a6c9061162c565b60405180910390fd5b600073ffffffffffffffffffffffffffffffffffffffff168273ffffffffffffffffffffffffffffffffffffffff161415610ae5576040517f08c379a0000000000000000000000000000000000000000000000000000000008152600401610adc9061156c565b60405180910390fd5b610af0838383610fa2565b60008060008573ffffffffffffffffffffffffffffffffffffffff1673ffffffffffffffffffffffffffffffffffffffff16815260200190815260200160002054905081811015610b76576040517f08c379a0000000000000000000000000000000000000000000000000000000008152600401610b6d906115ec565b60405180910390fd5b8181036000808673ffffffffffffffffffffffffffffffffffffffff1673ffffffffffffffffffffffffffffffffffffffff16815260200190815260200160002081905550816000808573ffffffffffffffffffffffffffffffffffffffff1673ffffffffffffffffffffffffffffffffffffffff168152602001908152602001600020600082825401925050819055508273ffffffffffffffffffffffffffffffffffffffff168473ffffffffffffffffffffffffffffffffffffffff167fddf252ad1be2c89b69c2b068fc378daa952ba7f163c4a11628f55a4df523b3ef84604051610c6491906116ac565b60405180910390a3610c77848484610fa7565b50505050565b600073ffffffffffffffffffffffffffffffffffffffff168273ffffffffffffffffffffffffffffffffffffffff161415610ced576040517f08c379a0000000000000000000000000000000000000000000000000000000008152600401610ce49061168c565b60405180910390fd5b610cf960008383610fa2565b8060026000828254610d0b91906116fe565b92505081905550806000808473ffffffffffffffffffffffffffffffffffffffff1673ffffffffffffffffffffffffffffffffffffffff168152602001908152602001600020600082825401925050819055508173ffffffffffffffffffffffffffffffffffffffff16600073ffffffffffffffffffffffffffffffffffffffff167fddf252ad1be2c89b69c2b068fc378daa952ba7f163c4a11628f55a4df523b3ef83604051610dbc91906116ac565b60405180910390a3610dd060008383610fa7565b5050565b600073ffffffffffffffffffffffffffffffffffffffff168273ffffffffffffffffffffffffffffffffffffffff161415610e44576040517f08c379a0000000000000000000000000000000000000000000000000000000008152600401610e3b9061160c565b60405180910390fd5b610e5082600083610fa2565b60008060008473ffffffffffffffffffffffffffffffffffffffff1673ffffffffffffffffffffffffffffffffffffffff16815260200190815260200160002054905081811015610ed6576040517f08c379a0000000000000000000000000000000000000000000000000000000008152600401610ecd9061158c565b60405180910390fd5b8181036000808573ffffffffffffffffffffffffffffffffffffffff1673ffffffffffffffffffffffffffffffffffffffff1681526020019081526020016000208190555081600260008282540392505081905550600073ffffffffffffffffffffffffffffffffffffffff168373ffffffffffffffffffffffffffffffffffffffff167fddf252ad1be2c89b69c2b068fc378daa952ba7f163c4a11628f55a4df523b3ef84604051610f8991906116ac565b60405180910390a3610f9d83600084610fa7565b505050565b505050565b505050565b600081359050610fbb8161187d565b92915050565b600081359050610fd081611894565b92915050565b600060208284031215610fe857600080fd5b6000610ff684828501610fac565b91505092915050565b6000806040838503121561101257600080fd5b600061102085828601610fac565b925050602061103185828601610fac565b9150509250929050565b60008060006060848603121561105057600080fd5b600061105e86828701610fac565b935050602061106f86828701610fac565b925050604061108086828701610fc1565b9150509250925092565b6000806040838503121561109d57600080fd5b60006110ab85828601610fac565b92505060206110bc85828601610fc1565b9150509250929050565b6110cf81611754565b82525050565b6110de81611766565b82525050565b60006110ef826116e2565b6110f981856116ed565b93506111098185602086016117a9565b6111128161186c565b840191505092915050565b600061112a6023836116ed565b91507f45524332303a207472616e7366657220746f20746865207a65726f206164647260008301527f65737300000000000000000000000000000000000000000000000000000000006020830152604082019050919050565b60006111906022836116ed565b91507f45524332303a206275726e20616d6f756e7420657863656564732062616c616e60008301527f63650000000000000000000000000000000000000000000000000000000000006020830152604082019050919050565b60006111f66022836116ed565b91507f45524332303a20617070726f766520746f20746865207a65726f20616464726560008301527f73730000000000000000000000000000000000000000000000000000000000006020830152604082019050919050565b600061125c601d836116ed565b91507f45524332303a20696e73756666696369656e7420616c6c6f77616e63650000006000830152602082019050919050565b600061129c6026836116ed565b91507f45524332303a207472616e7366657220616d6f756e742065786365656473206260008301527f616c616e636500000000000000000000000000000000000000000000000000006020830152604082019050919050565b60006113026021836116ed565b91507f45524332303a206275726e2066726f6d20746865207a65726f2061646472657360008301527f73000000000000000000000000000000000000000000000000000000000000006020830152604082019050919050565b60006113686025836116ed565b91507f45524332303a207472616e736665722066726f6d20746865207a65726f20616460008301527f64726573730000000000000000000000000000000000000000000000000000006020830152604082019050919050565b60006113ce6024836116ed565b91507f45524332303a20617070726f76652066726f6d20746865207a65726f2061646460008301527f72657373000000000000000000000000000000000000000000000000000000006020830152604082019050919050565b60006114346025836116ed565b91507f45524332303a2064656372656173656420616c6c6f77616e63652062656c6f7760008301527f207a65726f0000000000000000000000000000000000000000000000000000006020830152604082019050919050565b600061149a601f836116ed565b91507f45524332303a206d696e7420746f20746865207a65726f2061646472657373006000830152602082019050919050565b6114d681611792565b82525050565b6114e58161179c565b82525050565b600060208201905061150060008301846110c6565b92915050565b600060408201905061151b60008301856110c6565b61152860208301846114cd565b9392505050565b600060208201905061154460008301846110d5565b92915050565b6000602082019050818103600083015261156481846110e4565b905092915050565b600060208201905081810360008301526115858161111d565b9050919050565b600060208201905081810360008301526115a581611183565b9050919050565b600060208201905081810360008301526115c5816111e9565b9050919050565b600060208201905081810360008301526115e58161124f565b9050919050565b600060208201905081810360008301526116058161128f565b9050919050565b60006020820190508181036000830152611625816112f5565b9050919050565b600060208201905081810360008301526116458161135b565b9050919050565b60006020820190508181036000830152611665816113c1565b9050919050565b6000602082019050818103600083015261168581611427565b9050919050565b600060208201905081810360008301526116a58161148d565b9050919050565b60006020820190506116c160008301846114cd565b92915050565b60006020820190506116dc60008301846114dc565b92915050565b600081519050919050565b600082825260208201905092915050565b600061170982611792565b915061171483611792565b9250827fffffffffffffffffffffffffffffffffffffffffffffffffffffffffffffffff038211156117495761174861180e565b5b828201905092915050565b600061175f82611772565b9050919050565b60008115159050919050565b600073ffffffffffffffffffffffffffffffffffffffff82169050919050565b6000819050919050565b600060ff82169050919050565b60005b838110156117c75780820151818401526020810190506117ac565b838111156117d6576000848401525b50505050565b600060028204905060018216806117f457607f821691505b602082108114156118085761180761183d565b5b50919050565b7f4e487b7100000000000000000000000000000000000000000000000000000000600052601160045260246000fd5b7f4e487b7100000000000000000000000000000000000000000000000000000000600052602260045260246000fd5b6000601f19601f8301169050919050565b61188681611754565b811461189157600080fd5b50565b61189d81611792565b81146118a857600080fd5b5056fea26469706673582212203b0863376e2f151e8f33f36b55e73647cf6b4297e575db2d30625ed80e7ad30e64736f6c63430008000033",
  "immutableReferences": {},
  "source": "// SPDX-License-Identifier: GPL-3.0\r\n\r\npragma solidity >=0.7.0 <0.9.0;\r\nimport \"@openzeppelin/contracts/token/ERC20/ERC20.sol\";\r\n\r\n// Importer le contrat BalanceRegistry\r\nimport \"./BalanceRegistry.sol\";\r\n\r\ncontract EmissionToken is ERC20 {\r\n    address public admin;\r\n    // Dclarer une variable de type BalanceRegistry\r\n    BalanceRegistry private balanceRegistry;\r\n\r\n    constructor(address _balanceRegistryAddress) ERC20(\"ShareImmo Token\", \"SIMMO\") {\r\n        admin = msg.sender;\r\n        // Initialiser le registre des balances\r\n        balanceRegistry = BalanceRegistry(_balanceRegistryAddress);\r\n    }\r\n\r\n    function mint(address to, uint256 amount) external {\r\n        //require(msg.sender == admin, \"seul l'administrateur peut emettre de nouveaux tokens\");\r\n        _mint(to, amount);\r\n\r\n        // Mettre  jour la balance du destinataire dans le registre\r\n        balanceRegistry.updateBalance(to, balanceOf(to));\r\n    }\r\n\r\n    function burn(address from, uint256 amount) external {\r\n       // require(msg.sender == admin, \"seul l'administrateur peut bruler des tokens\");\r\n        _burn(from, amount);\r\n\r\n        // Mettre  jour la balance du compte de l'metteur dans le registre\r\n        balanceRegistry.updateBalance(from, balanceOf(from));\r\n    }\r\n}\r\n",
  "sourcePath": "C:\\Users\\0000\\Desktop\\Shareimmo\\shareimmo-dapp\\contracts\\contracts\\EmissionToken.sol",
  "compiler": {
    "name": "solc",
    "version": "0.8.0+commit.c7dfd78e.Emscripten.clang"
  },
  "schemaVersion": "3.4.15",
  "updatedAt": "2023-08-11T18:25:58.720Z",
  "networkType": "ethereum",
  "devdoc": {
    "kind": "dev",
    "methods": {
      "allowance(address,address)": {
        "details": "See {IERC20-allowance}."
      },
      "approve(address,uint256)": {
        "details": "See {IERC20-approve}. NOTE: If `amount` is the maximum `uint256`, the allowance is not updated on `transferFrom`. This is semantically equivalent to an infinite approval. Requirements: - `spender` cannot be the zero address."
      },
      "balanceOf(address)": {
        "details": "See {IERC20-balanceOf}."
      },
      "decimals()": {
        "details": "Returns the number of decimals used to get its user representation. For example, if `decimals` equals `2`, a balance of `505` tokens should be displayed to a user as `5.05` (`505 / 10 ** 2`). Tokens usually opt for a value of 18, imitating the relationship between Ether and Wei. This is the default value returned by this function, unless it's overridden. NOTE: This information is only used for _display_ purposes: it in no way affects any of the arithmetic of the contract, including {IERC20-balanceOf} and {IERC20-transfer}."
      },
      "decreaseAllowance(address,uint256)": {
        "details": "Atomically decreases the allowance granted to `spender` by the caller. This is an alternative to {approve} that can be used as a mitigation for problems described in {IERC20-approve}. Emits an {Approval} event indicating the updated allowance. Requirements: - `spender` cannot be the zero address. - `spender` must have allowance for the caller of at least `subtractedValue`."
      },
      "increaseAllowance(address,uint256)": {
        "details": "Atomically increases the allowance granted to `spender` by the caller. This is an alternative to {approve} that can be used as a mitigation for problems described in {IERC20-approve}. Emits an {Approval} event indicating the updated allowance. Requirements: - `spender` cannot be the zero address."
      },
      "name()": {
        "details": "Returns the name of the token."
      },
      "symbol()": {
        "details": "Returns the symbol of the token, usually a shorter version of the name."
      },
      "totalSupply()": {
        "details": "See {IERC20-totalSupply}."
      },
      "transfer(address,uint256)": {
        "details": "See {IERC20-transfer}. Requirements: - `to` cannot be the zero address. - the caller must have a balance of at least `amount`."
      },
      "transferFrom(address,address,uint256)": {
        "details": "See {IERC20-transferFrom}. Emits an {Approval} event indicating the updated allowance. This is not required by the EIP. See the note at the beginning of {ERC20}. NOTE: Does not update the allowance if the current allowance is the maximum `uint256`. Requirements: - `from` and `to` cannot be the zero address. - `from` must have a balance of at least `amount`. - the caller must have allowance for ``from``'s tokens of at least `amount`."
      }
    },
    "version": 1
  },
  "userdoc": {
    "kind": "user",
    "methods": {},
    "version": 1
  }
}