{
  "contractName": "EmissionAction",
  "abi": [
    {
      "inputs": [
        {
          "internalType": "address",
          "name": "",
          "type": "address"
        }
      ],
      "name": "shares",
      "outputs": [
        {
          "internalType": "uint256",
          "name": "",
          "type": "uint256"
        }
      ],
      "stateMutability": "view",
      "type": "function",
      "constant": true
    },
    {
      "inputs": [
        {
          "internalType": "address",
          "name": "",
          "type": "address"
        }
      ],
      "name": "votingRights",
      "outputs": [
        {
          "internalType": "bool",
          "name": "",
          "type": "bool"
        }
      ],
      "stateMutability": "view",
      "type": "function",
      "constant": true
    },
    {
      "inputs": [
        {
          "internalType": "address",
          "name": "bondHolder",
          "type": "address"
        },
        {
          "internalType": "uint256",
          "name": "numberOfShares",
          "type": "uint256"
        }
      ],
      "name": "issueShares",
      "outputs": [],
      "stateMutability": "nonpayable",
      "type": "function"
    },
    {
      "inputs": [
        {
          "internalType": "address",
          "name": "shareholder",
          "type": "address"
        }
      ],
      "name": "grantVotingRights",
      "outputs": [],
      "stateMutability": "nonpayable",
      "type": "function"
    },
    {
      "inputs": [],
      "name": "exerciseVotingRights",
      "outputs": [],
      "stateMutability": "view",
      "type": "function",
      "constant": true
    }
  ],
  "bytecode": "0x608060405234801561001057600080fd5b5061067f806100206000396000f3fe608060405234801561001057600080fd5b50600436106100565760003560e01c80621d432b1461005b5780632923c98314610077578063a8fef10014610081578063ce7c2ac2146100b1578063efc7a8ee146100e1575b600080fd5b61007560048036038101906100709190610364565b6100fd565b005b61007f6101d8565b005b61009b60048036038101906100969190610364565b610266565b6040516100a891906104a7565b60405180910390f35b6100cb60048036038101906100c69190610364565b610286565b6040516100d89190610522565b60405180910390f35b6100fb60048036038101906100f6919061038d565b61029e565b005b60008060008373ffffffffffffffffffffffffffffffffffffffff1673ffffffffffffffffffffffffffffffffffffffff168152602001908152602001600020541161017e576040517f08c379a0000000000000000000000000000000000000000000000000000000008152600401610175906104c2565b60405180910390fd5b60018060008373ffffffffffffffffffffffffffffffffffffffff1673ffffffffffffffffffffffffffffffffffffffff16815260200190815260200160002060006101000a81548160ff02191690831515021790555050565b600160003373ffffffffffffffffffffffffffffffffffffffff1673ffffffffffffffffffffffffffffffffffffffff16815260200190815260200160002060009054906101000a900460ff16610264576040517f08c379a000000000000000000000000000000000000000000000000000000000815260040161025b906104e2565b60405180910390fd5b565b60016020528060005260406000206000915054906101000a900460ff1681565b60006020528060005260406000206000915090505481565b600081116102e1576040517f08c379a00000000000000000000000000000000000000000000000000000000081526004016102d890610502565b60405180910390fd5b806000808473ffffffffffffffffffffffffffffffffffffffff1673ffffffffffffffffffffffffffffffffffffffff168152602001908152602001600020600082825461032f919061054e565b925050819055505050565b6000813590506103498161061b565b92915050565b60008135905061035e81610632565b92915050565b60006020828403121561037657600080fd5b60006103848482850161033a565b91505092915050565b600080604083850312156103a057600080fd5b60006103ae8582860161033a565b92505060206103bf8582860161034f565b9150509250929050565b6103d2816105b6565b82525050565b60006103e560118361053d565b91507f4e6f742061207368617265686f6c6465720000000000000000000000000000006000830152602082019050919050565b6000610425601b8361053d565b91507f566f74696e6720726967687473206e6f742061637469766174656400000000006000830152602082019050919050565b600061046560188361053d565b91507f496e76616c6964206e756d626572206f662073686172657300000000000000006000830152602082019050919050565b6104a1816105e2565b82525050565b60006020820190506104bc60008301846103c9565b92915050565b600060208201905081810360008301526104db816103d8565b9050919050565b600060208201905081810360008301526104fb81610418565b9050919050565b6000602082019050818103600083015261051b81610458565b9050919050565b60006020820190506105376000830184610498565b92915050565b600082825260208201905092915050565b6000610559826105e2565b9150610564836105e2565b9250827fffffffffffffffffffffffffffffffffffffffffffffffffffffffffffffffff03821115610599576105986105ec565b5b828201905092915050565b60006105af826105c2565b9050919050565b60008115159050919050565b600073ffffffffffffffffffffffffffffffffffffffff82169050919050565b6000819050919050565b7f4e487b7100000000000000000000000000000000000000000000000000000000600052601160045260246000fd5b610624816105a4565b811461062f57600080fd5b50565b61063b816105e2565b811461064657600080fd5b5056fea264697066735822122002a067062ab6ef48dfa282c1be657990dc204312b4eca220d0434ed0c363db9564736f6c63430008000033",
  "immutableReferences": {},
  "source": "// SPDX-License-Identifier: GPL-3.0\r\npragma solidity >=0.7.0 <0.9.0;\r\n\r\n//ShareIssuanceContract anciennement\r\ncontract EmissionAction {\r\n    // Mappage pour stocker le nombre d'actions dtenu par chaque adresse\r\n    mapping(address => uint256) public shares;\r\n\r\n    // Mappage pour stocker les droits de vote des dtenteurs d'actions\r\n    mapping(address => bool) public votingRights;\r\n\r\n    // Fonction pour mettre des actions aux dtenteurs d'obligations lors de l'mission d'actions\r\n    function issueShares(address bondHolder, uint256 numberOfShares) external {\r\n        require(numberOfShares > 0, \"Invalid number of shares\");\r\n\r\n         // Augmenter le nombre d'actions dtenu par le dtenteur d'obligation\r\n        shares[bondHolder] += numberOfShares;\r\n    }\r\n\r\n    // Fonction pour accorder les droits de vote  un dtenteur d'actions\r\n    function grantVotingRights(address shareholder) external {\r\n        require(shares[shareholder] > 0, \"Not a shareholder\");\r\n\r\n        // Activer les droits de vote pour l'actionnaire\r\n        votingRights[shareholder] = true;\r\n    }\r\n\r\n    // Fonction pour permettre  un actionnaire d'exercer ses droits de vote\r\n    function exerciseVotingRights() external view {\r\n        require(votingRights[msg.sender], \"Voting rights not activated\");\r\n\r\n        // Logique pour exercer les droits de vote\r\n        // ...\r\n    }\r\n}",
  "sourcePath": "C:\\Users\\0000\\Desktop\\Shareimmo\\shareimmo-dapp\\contracts\\contracts\\EmissionAction.sol",
  "compiler": {
    "name": "solc",
    "version": "0.8.0+commit.c7dfd78e.Emscripten.clang"
  },
  "schemaVersion": "3.4.15",
  "updatedAt": "2023-08-11T18:26:00.783Z",
  "networkType": "ethereum",
  "devdoc": {
    "kind": "dev",
    "methods": {},
    "version": 1
  },
  "userdoc": {
    "kind": "user",
    "methods": {},
    "version": 1
  }
}