{
  "contractName": "RentDistribution",
  "abi": [
    {
      "inputs": [
        {
          "internalType": "address",
          "name": "_reverseOracleAddress",
          "type": "address"
        }
      ],
      "stateMutability": "nonpayable",
      "type": "constructor"
    },
    {
      "anonymous": false,
      "inputs": [
        {
          "indexed": true,
          "internalType": "address",
          "name": "recipient",
          "type": "address"
        },
        {
          "indexed": false,
          "internalType": "uint256",
          "name": "amount",
          "type": "uint256"
        }
      ],
      "name": "BankTransfer",
      "type": "event"
    },
    {
      "inputs": [
        {
          "internalType": "address",
          "name": "",
          "type": "address"
        }
      ],
      "name": "rentDistributionAmounts",
      "outputs": [
        {
          "internalType": "uint256",
          "name": "",
          "type": "uint256"
        }
      ],
      "stateMutability": "view",
      "type": "function",
      "constant": true
    },
    {
      "inputs": [],
      "name": "reverseOracle",
      "outputs": [
        {
          "internalType": "contract ReverseOracle",
          "name": "",
          "type": "address"
        }
      ],
      "stateMutability": "view",
      "type": "function",
      "constant": true
    },
    {
      "inputs": [
        {
          "internalType": "address",
          "name": "recipient",
          "type": "address"
        },
        {
          "internalType": "uint256",
          "name": "amount",
          "type": "uint256"
        }
      ],
      "name": "setRentDistribution",
      "outputs": [],
      "stateMutability": "nonpayable",
      "type": "function"
    },
    {
      "inputs": [],
      "name": "distributeRent",
      "outputs": [],
      "stateMutability": "nonpayable",
      "type": "function"
    }
  ],
  "bytecode": "0x608060405234801561001057600080fd5b50604051610b58380380610b588339818101604052810190610032919061008d565b806000806101000a81548173ffffffffffffffffffffffffffffffffffffffff021916908373ffffffffffffffffffffffffffffffffffffffff160217905550506100ff565b600081519050610087816100e8565b92915050565b60006020828403121561009f57600080fd5b60006100ad84828501610078565b91505092915050565b60006100c1826100c8565b9050919050565b600073ffffffffffffffffffffffffffffffffffffffff82169050919050565b6100f1816100b6565b81146100fc57600080fd5b50565b610a4a8061010e6000396000f3fe608060405234801561001057600080fd5b506004361061004c5760003560e01c80630293c8f6146100515780631f5ce1181461005b578063b40280481461008b578063c3d7330f146100a7575b600080fd5b6100596100c5565b005b6100756004803603810190610070919061062c565b6104fc565b6040516100829190610805565b60405180910390f35b6100a560048036038101906100a0919061067e565b610514565b005b6100af61059f565b6040516100bc91906107aa565b60405180910390f35b60008054906101000a900473ffffffffffffffffffffffffffffffffffffffff1673ffffffffffffffffffffffffffffffffffffffff1663d3a057c86040518163ffffffff1660e01b815260040160206040518083038186803b15801561012b57600080fd5b505afa15801561013f573d6000803e3d6000fd5b505050506040513d601f19601f8201168201806040525081019061016391906106ba565b6101a2576040517f08c379a0000000000000000000000000000000000000000000000000000000008152600401610199906107c5565b60405180910390fd5b60008060009054906101000a900473ffffffffffffffffffffffffffffffffffffffff1673ffffffffffffffffffffffffffffffffffffffff16630295535f6040518163ffffffff1660e01b8152600401602060405180830381600087803b15801561020d57600080fd5b505af1158015610221573d6000803e3d6000fd5b505050506040513d601f19601f8201168201806040525081019061024591906106e3565b905060005b60008054906101000a900473ffffffffffffffffffffffffffffffffffffffff1673ffffffffffffffffffffffffffffffffffffffff1663af99b63f6040518163ffffffff1660e01b815260040160206040518083038186803b1580156102b057600080fd5b505afa1580156102c4573d6000803e3d6000fd5b505050506040513d601f19601f820116820180604052508101906102e891906106e3565b8110156104f85760008060009054906101000a900473ffffffffffffffffffffffffffffffffffffffff1673ffffffffffffffffffffffffffffffffffffffff16636d0cee75836040518263ffffffff1660e01b815260040161034b9190610805565b60206040518083038186803b15801561036357600080fd5b505afa158015610377573d6000803e3d6000fd5b505050506040513d601f19601f8201168201806040525081019061039b9190610655565b905060008060009054906101000a900473ffffffffffffffffffffffffffffffffffffffff1673ffffffffffffffffffffffffffffffffffffffff1663d253cd356040518163ffffffff1660e01b815260040160206040518083038186803b15801561040657600080fd5b505afa15801561041a573d6000803e3d6000fd5b505050506040513d601f19601f8201168201806040525081019061043e91906106e3565b84600160008573ffffffffffffffffffffffffffffffffffffffff1673ffffffffffffffffffffffffffffffffffffffff168152602001908152602001600020546104899190610862565b6104939190610831565b90508173ffffffffffffffffffffffffffffffffffffffff167f638bc16df133782fd22c6c463c9b7d511ec856c2db12f315f0f837333ba177ab826040516104db9190610805565b60405180910390a2505080806104f090610928565b91505061024a565b5050565b60016020528060005260406000206000915090505481565b60008111610557576040517f08c379a000000000000000000000000000000000000000000000000000000000815260040161054e906107e5565b60405180910390fd5b80600160008473ffffffffffffffffffffffffffffffffffffffff1673ffffffffffffffffffffffffffffffffffffffff168152602001908152602001600020819055505050565b60008054906101000a900473ffffffffffffffffffffffffffffffffffffffff1681565b6000813590506105d2816109cf565b92915050565b6000815190506105e7816109cf565b92915050565b6000815190506105fc816109e6565b92915050565b600081359050610611816109fd565b92915050565b600081519050610626816109fd565b92915050565b60006020828403121561063e57600080fd5b600061064c848285016105c3565b91505092915050565b60006020828403121561066757600080fd5b6000610675848285016105d8565b91505092915050565b6000806040838503121561069157600080fd5b600061069f858286016105c3565b92505060206106b085828601610602565b9150509250929050565b6000602082840312156106cc57600080fd5b60006106da848285016105ed565b91505092915050565b6000602082840312156106f557600080fd5b600061070384828501610617565b91505092915050565b61071581610904565b82525050565b6000610728601c83610820565b91507f52657665727365204f7261636c65206e6f6e20636f6e666967757265000000006000830152602082019050919050565b6000610768601983610820565b91507f4d6f6e74616e74206465206c6f79657220696e76616c696465000000000000006000830152602082019050919050565b6107a4816108fa565b82525050565b60006020820190506107bf600083018461070c565b92915050565b600060208201905081810360008301526107de8161071b565b9050919050565b600060208201905081810360008301526107fe8161075b565b9050919050565b600060208201905061081a600083018461079b565b92915050565b600082825260208201905092915050565b600061083c826108fa565b9150610847836108fa565b925082610857576108566109a0565b5b828204905092915050565b600061086d826108fa565b9150610878836108fa565b9250817fffffffffffffffffffffffffffffffffffffffffffffffffffffffffffffffff04831182151516156108b1576108b0610971565b5b828202905092915050565b60006108c7826108da565b9050919050565b60008115159050919050565b600073ffffffffffffffffffffffffffffffffffffffff82169050919050565b6000819050919050565b600061090f82610916565b9050919050565b6000610921826108da565b9050919050565b6000610933826108fa565b91507fffffffffffffffffffffffffffffffffffffffffffffffffffffffffffffffff82141561096657610965610971565b5b600182019050919050565b7f4e487b7100000000000000000000000000000000000000000000000000000000600052601160045260246000fd5b7f4e487b7100000000000000000000000000000000000000000000000000000000600052601260045260246000fd5b6109d8816108bc565b81146109e357600080fd5b50565b6109ef816108ce565b81146109fa57600080fd5b50565b610a06816108fa565b8114610a1157600080fd5b5056fea2646970667358221220c12966aaa765cd1d4be511012969230fbc6861c4cbe0a838ddef3dfb661e5a9d64736f6c63430008000033",
  "immutableReferences": {},
  "source": "// SPDX-License-Identifier: GPL-3.0\r\npragma solidity >=0.7.0 <0.9.0;\r\n\r\n// Importation du contrat du Reverse Oracle\r\nimport \"./ReverseOracle.sol\";\r\n\r\ncontract RentDistribution {\r\n    // Adresse du contrat du Reverse Oracle\r\n    ReverseOracle public reverseOracle;\r\n\r\n    // Mapping pour stocker les montants de loyer  distribuer pour chaque adresse\r\n    mapping(address => uint256) public rentDistributionAmounts;\r\n\r\n    // vnement dclench lorsqu'un virement bancaire est effectu\r\n    event BankTransfer(address indexed recipient, uint256 amount);\r\n\r\n    // Constructeur - Initialise le contrat du Reverse Oracle\r\n    constructor(address _reverseOracleAddress) {\r\n        reverseOracle = ReverseOracle(_reverseOracleAddress);\r\n    }\r\n\r\n    // Fonction pour dfinir le montant de loyer  distribuer pour une adresse donne\r\n    function setRentDistribution(address recipient, uint256 amount) external {\r\n        require(amount > 0, \"Montant de loyer invalide\");\r\n\r\n        rentDistributionAmounts[recipient] = amount;\r\n    }\r\n\r\n    // Fonction pour effectuer la rpartition du loyer\r\n    function distributeRent() external {\r\n        // Vrifier que le contrat du Reverse Oracle a t configur\r\n        require(reverseOracle.isConfigured(), \"Reverse Oracle non configure\");\r\n\r\n        // Obtenir le montant total du loyer  distribuer\r\n        uint256 totalRentAmount = reverseOracle.getRentAmount();\r\n\r\n        // Parcourir les adresses de rpartition et effectuer les virements bancaires\r\n        for (uint256 i = 0; i < reverseOracle.getRecipientCount(); i++) {\r\n            address recipient = reverseOracle.getRecipient(i);\r\n            uint256 rentAmount = (rentDistributionAmounts[recipient] * totalRentAmount) / reverseOracle.getTotalDistributionAmount();\r\n\r\n            // Effectuer le virement bancaire vers l'adresse du bnficiaire\r\n            // ...\r\n            // Ici, vous pouvez intgrer la logique pour effectuer le virement bancaire en utilisant une API bancaire\r\n\r\n            // mettre l'vnement du virement bancaire effectu\r\n            emit BankTransfer(recipient, rentAmount);\r\n        }\r\n    }\r\n}\r\n",
  "sourcePath": "C:\\Users\\0000\\Desktop\\Shareimmo\\shareimmo-dapp\\contracts\\contracts\\RentDistribution.sol",
  "compiler": {
    "name": "solc",
    "version": "0.8.0+commit.c7dfd78e.Emscripten.clang"
  },
  "schemaVersion": "3.4.15",
  "updatedAt": "2023-08-11T18:26:00.457Z",
  "networkType": "ethereum",
  "devdoc": {
    "kind": "dev",
    "methods": {},
    "version": 1
  },
  "userdoc": {
    "kind": "user",
    "methods": {},
    "version": 1
  }
}