{
  "contractName": "ReventeTokens",
  "abi": [
    {
      "inputs": [
        {
          "internalType": "address",
          "name": "_balanceRegistryAddress",
          "type": "address"
        }
      ],
      "stateMutability": "nonpayable",
      "type": "constructor"
    },
    {
      "anonymous": false,
      "inputs": [
        {
          "indexed": true,
          "internalType": "address",
          "name": "seller",
          "type": "address"
        },
        {
          "indexed": true,
          "internalType": "address",
          "name": "buyer",
          "type": "address"
        },
        {
          "indexed": false,
          "internalType": "uint256",
          "name": "amount",
          "type": "uint256"
        },
        {
          "indexed": false,
          "internalType": "uint256",
          "name": "price",
          "type": "uint256"
        }
      ],
      "name": "TokenSold",
      "type": "event"
    },
    {
      "inputs": [],
      "name": "balanceRegistry",
      "outputs": [
        {
          "internalType": "contract BalanceRegistry",
          "name": "",
          "type": "address"
        }
      ],
      "stateMutability": "view",
      "type": "function",
      "constant": true
    },
    {
      "inputs": [
        {
          "internalType": "uint256",
          "name": "amount",
          "type": "uint256"
        },
        {
          "internalType": "uint256",
          "name": "price",
          "type": "uint256"
        }
      ],
      "name": "sellTokens",
      "outputs": [],
      "stateMutability": "nonpayable",
      "type": "function"
    },
    {
      "inputs": [
        {
          "internalType": "address",
          "name": "seller",
          "type": "address"
        },
        {
          "internalType": "uint256",
          "name": "amount",
          "type": "uint256"
        }
      ],
      "name": "buyTokens",
      "outputs": [],
      "stateMutability": "payable",
      "type": "function",
      "payable": true
    }
  ],
  "bytecode": "0x608060405234801561001057600080fd5b50604051610dad380380610dad8339818101604052810190610032919061008d565b806000806101000a81548173ffffffffffffffffffffffffffffffffffffffff021916908373ffffffffffffffffffffffffffffffffffffffff160217905550506100ff565b600081519050610087816100e8565b92915050565b60006020828403121561009f57600080fd5b60006100ad84828501610078565b91505092915050565b60006100c1826100c8565b9050919050565b600073ffffffffffffffffffffffffffffffffffffffff82169050919050565b6100f1816100b6565b81146100fc57600080fd5b50565b610c9f8061010e6000396000f3fe6080604052600436106100345760003560e01c80630752881a14610039578063c53b19d214610055578063ed9772b614610080575b600080fd5b610053600480360381019061004e9190610762565b6100a9565b005b34801561006157600080fd5b5061006a6103ba565b6040516100779190610a5d565b60405180910390f35b34801561008c57600080fd5b506100a760048036038101906100a291906107c7565b6103de565b005b600073ffffffffffffffffffffffffffffffffffffffff1660008054906101000a900473ffffffffffffffffffffffffffffffffffffffff1673ffffffffffffffffffffffffffffffffffffffff161415610139576040517f08c379a000000000000000000000000000000000000000000000000000000000815260040161013090610af8565b60405180910390fd5b60008060009054906101000a900473ffffffffffffffffffffffffffffffffffffffff1673ffffffffffffffffffffffffffffffffffffffff166307e23e38846040518263ffffffff1660e01b815260040161019591906109e2565b60206040518083038186803b1580156101ad57600080fd5b505afa1580156101c1573d6000803e3d6000fd5b505050506040513d601f19601f820116820180604052508101906101e5919061079e565b90506000811161022a576040517f08c379a000000000000000000000000000000000000000000000000000000000815260040161022190610ad8565b60405180910390fd5b81816102369190610b52565b341015610278576040517f08c379a000000000000000000000000000000000000000000000000000000000815260040161026f90610ab8565b60405180910390fd5b60008054906101000a900473ffffffffffffffffffffffffffffffffffffffff1673ffffffffffffffffffffffffffffffffffffffff1663a64b6e5f3385856040518463ffffffff1660e01b81526004016102d5939291906109fd565b600060405180830381600087803b1580156102ef57600080fd5b505af1158015610303573d6000803e3d6000fd5b505050508273ffffffffffffffffffffffffffffffffffffffff166108fc349081150290604051600060405180830381858888f1935050505015801561034d573d6000803e3d6000fd5b503373ffffffffffffffffffffffffffffffffffffffff168373ffffffffffffffffffffffffffffffffffffffff167fa8a7473f10e62cf9687e243de1c3ac8b3cbc3dd04b96826beb3a65b59538581484846040516103ad929190610b18565b60405180910390a3505050565b60008054906101000a900473ffffffffffffffffffffffffffffffffffffffff1681565b60008211610421576040517f08c379a000000000000000000000000000000000000000000000000000000000815260040161041890610a78565b60405180910390fd5b600073ffffffffffffffffffffffffffffffffffffffff1660008054906101000a900473ffffffffffffffffffffffffffffffffffffffff1673ffffffffffffffffffffffffffffffffffffffff1614156104b1576040517f08c379a00000000000000000000000000000000000000000000000000000000081526004016104a890610af8565b60405180910390fd5b8160008054906101000a900473ffffffffffffffffffffffffffffffffffffffff1673ffffffffffffffffffffffffffffffffffffffff1663f8b2cb4f336040518263ffffffff1660e01b815260040161050b91906109e2565b60206040518083038186803b15801561052357600080fd5b505afa158015610537573d6000803e3d6000fd5b505050506040513d601f19601f8201168201806040525081019061055b919061079e565b101561059c576040517f08c379a000000000000000000000000000000000000000000000000000000000815260040161059390610a98565b60405180910390fd5b60008054906101000a900473ffffffffffffffffffffffffffffffffffffffff1673ffffffffffffffffffffffffffffffffffffffff16634868173e33836040518363ffffffff1660e01b81526004016105f7929190610a34565b600060405180830381600087803b15801561061157600080fd5b505af1158015610625573d6000803e3d6000fd5b5050505060008054906101000a900473ffffffffffffffffffffffffffffffffffffffff1673ffffffffffffffffffffffffffffffffffffffff1663a64b6e5f3330856040518463ffffffff1660e01b8152600401610686939291906109fd565b600060405180830381600087803b1580156106a057600080fd5b505af11580156106b4573d6000803e3d6000fd5b505050503073ffffffffffffffffffffffffffffffffffffffff163373ffffffffffffffffffffffffffffffffffffffff167fa8a7473f10e62cf9687e243de1c3ac8b3cbc3dd04b96826beb3a65b5953858148484604051610717929190610b18565b60405180910390a35050565b60008135905061073281610c3b565b92915050565b60008135905061074781610c52565b92915050565b60008151905061075c81610c52565b92915050565b6000806040838503121561077557600080fd5b600061078385828601610723565b925050602061079485828601610738565b9150509250929050565b6000602082840312156107b057600080fd5b60006107be8482850161074d565b91505092915050565b600080604083850312156107da57600080fd5b60006107e885828601610738565b92505060206107f985828601610738565b9150509250929050565b61080c81610bac565b82525050565b61081b81610be8565b82525050565b600061082e601083610b41565b91507f4d6f6e74616e7420696e76616c696465000000000000000000000000000000006000830152602082019050919050565b600061086e601183610b41565b91507f536f6c646520696e737566666973616e740000000000000000000000000000006000830152602082019050919050565b60006108ae602b83610b41565b91507f4d6f6e74616e7420696e737566666973616e7420706f7572206163686574657260008301527f206c657320746f6b656e730000000000000000000000000000000000000000006020830152604082019050919050565b6000610914602583610b41565b91507f417563756e65206f666672652064652076656e746520706f757220636520766560008301527f6e646575720000000000000000000000000000000000000000000000000000006020830152604082019050919050565b600061097a603683610b41565b91507f4c276164726573736520647520636f6e747261742042616c616e63655265676960008301527f73747279206e276573742070617320646566696e6965000000000000000000006020830152604082019050919050565b6109dc81610bde565b82525050565b60006020820190506109f76000830184610803565b92915050565b6000606082019050610a126000830186610803565b610a1f6020830185610803565b610a2c60408301846109d3565b949350505050565b6000604082019050610a496000830185610803565b610a5660208301846109d3565b9392505050565b6000602082019050610a726000830184610812565b92915050565b60006020820190508181036000830152610a9181610821565b9050919050565b60006020820190508181036000830152610ab181610861565b9050919050565b60006020820190508181036000830152610ad1816108a1565b9050919050565b60006020820190508181036000830152610af181610907565b9050919050565b60006020820190508181036000830152610b118161096d565b9050919050565b6000604082019050610b2d60008301856109d3565b610b3a60208301846109d3565b9392505050565b600082825260208201905092915050565b6000610b5d82610bde565b9150610b6883610bde565b9250817fffffffffffffffffffffffffffffffffffffffffffffffffffffffffffffffff0483118215151615610ba157610ba0610c0c565b5b828202905092915050565b6000610bb782610bbe565b9050919050565b600073ffffffffffffffffffffffffffffffffffffffff82169050919050565b6000819050919050565b6000610bf382610bfa565b9050919050565b6000610c0582610bbe565b9050919050565b7f4e487b7100000000000000000000000000000000000000000000000000000000600052601160045260246000fd5b610c4481610bac565b8114610c4f57600080fd5b50565b610c5b81610bde565b8114610c6657600080fd5b5056fea26469706673582212209884e2e54c17b6ca89633e6d50846310fd25e13562d27c34bff40062a5479e6864736f6c63430008000033",
  "immutableReferences": {},
  "source": "// SPDX-License-Identifier: GPL-3.0\r\n\r\npragma solidity >=0.7.0 <0.9.0;\r\n\r\n// Importer le contrat BalanceRegistry\r\nimport \"./BalanceRegistry.sol\";\r\n\r\ncontract ReventeTokens {\r\n    // Adresse du contrat BalanceRegistry\r\n    BalanceRegistry public balanceRegistry;\r\n\r\n    // vnement pour notifier les ventes de tokens\r\n    event TokenSold(address indexed seller, address indexed buyer, uint256 amount, uint256 price);\r\n\r\n    // Constructeur pour dfinir l'adresse du contrat BalanceRegistry\r\n    constructor(address _balanceRegistryAddress) {\r\n        balanceRegistry = BalanceRegistry(_balanceRegistryAddress);\r\n    }\r\n\r\n    // Fonction pour permettre  un dtenteur de tokens de les vendre\r\n    function sellTokens(uint256 amount, uint256 price) external {\r\n        require(amount > 0, \"Montant invalide\");\r\n\r\n        // Vrifier que le contrat BalanceRegistry est configur\r\n        require(address(balanceRegistry) != address(0), \"L'adresse du contrat BalanceRegistry n'est pas definie\");\r\n\r\n        // Vrifier si le solde du vendeur est suffisant pour effectuer la vente\r\n        require(balanceRegistry.getBalance(msg.sender) >= amount, \"Solde insuffisant\");\r\n\r\n        // Mettre  jour le prix de vente du token\r\n        balanceRegistry.setTokenOffer(msg.sender, price);\r\n\r\n        // Effectuer le transfert des tokens vers le contrat BalanceRegistry\r\n        balanceRegistry.transferTokens(msg.sender, address(this), amount);\r\n\r\n        emit TokenSold(msg.sender, address(this), amount, price);\r\n    }\r\n\r\n    // Fonction pour permettre  un utilisateur d'acheter des tokens\r\n    function buyTokens(address seller, uint256 amount) external payable {\r\n        // Vrifier que le contrat BalanceRegistry est configur\r\n        require(address(balanceRegistry) != address(0), \"L'adresse du contrat BalanceRegistry n'est pas definie\");\r\n\r\n        // Obtenir le prix de vente du token\r\n        uint256 price = balanceRegistry.getTokenOffer(seller);\r\n        require(price > 0, \"Aucune offre de vente pour ce vendeur\");\r\n        require(msg.value >= price * amount, \"Montant insuffisant pour acheter les tokens\");\r\n\r\n        // Effectuer le transfert des tokens de l'acheteur vers le vendeur via le contrat BalanceRegistry\r\n        balanceRegistry.transferTokens(msg.sender, seller, amount);\r\n\r\n        // Effectuer le paiement au vendeur en utilisant la valeur envoye par l'acheteur\r\n        payable(seller).transfer(msg.value);\r\n\r\n        emit TokenSold(seller, msg.sender, amount, price);\r\n    }\r\n}\r\n",
  "sourcePath": "C:\\Users\\0000\\Desktop\\Shareimmo\\shareimmo-dapp\\contracts\\contracts\\ReventeToken.sol",
  "compiler": {
    "name": "solc",
    "version": "0.8.0+commit.c7dfd78e.Emscripten.clang"
  },
  "schemaVersion": "3.4.15",
  "updatedAt": "2023-08-11T18:25:59.579Z",
  "networkType": "ethereum",
  "devdoc": {
    "kind": "dev",
    "methods": {},
    "version": 1
  },
  "userdoc": {
    "kind": "user",
    "methods": {},
    "version": 1
  }
}