{
  "contractName": "ReverseOracle",
  "abi": [
    {
      "anonymous": false,
      "inputs": [
        {
          "indexed": false,
          "internalType": "uint256",
          "name": "rentAmount",
          "type": "uint256"
        }
      ],
      "name": "BankResponse",
      "type": "event"
    },
    {
      "inputs": [],
      "name": "bankAPI",
      "outputs": [
        {
          "internalType": "address",
          "name": "",
          "type": "address"
        }
      ],
      "stateMutability": "view",
      "type": "function",
      "constant": true
    },
    {
      "inputs": [
        {
          "internalType": "address",
          "name": "_bankAPI",
          "type": "address"
        }
      ],
      "name": "configureBankAPI",
      "outputs": [],
      "stateMutability": "nonpayable",
      "type": "function"
    },
    {
      "inputs": [],
      "name": "getRentAmount",
      "outputs": [
        {
          "internalType": "uint256",
          "name": "",
          "type": "uint256"
        }
      ],
      "stateMutability": "nonpayable",
      "type": "function"
    },
    {
      "inputs": [],
      "name": "isConfigured",
      "outputs": [
        {
          "internalType": "bool",
          "name": "",
          "type": "bool"
        }
      ],
      "stateMutability": "view",
      "type": "function",
      "constant": true
    },
    {
      "inputs": [],
      "name": "getRecipientCount",
      "outputs": [
        {
          "internalType": "uint256",
          "name": "",
          "type": "uint256"
        }
      ],
      "stateMutability": "view",
      "type": "function",
      "constant": true
    },
    {
      "inputs": [
        {
          "internalType": "address",
          "name": "recipient",
          "type": "address"
        }
      ],
      "name": "addRecipient",
      "outputs": [],
      "stateMutability": "nonpayable",
      "type": "function"
    },
    {
      "inputs": [
        {
          "internalType": "uint256",
          "name": "index",
          "type": "uint256"
        }
      ],
      "name": "getRecipient",
      "outputs": [
        {
          "internalType": "address",
          "name": "",
          "type": "address"
        }
      ],
      "stateMutability": "view",
      "type": "function",
      "constant": true
    },
    {
      "inputs": [],
      "name": "getTotalDistributionAmount",
      "outputs": [
        {
          "internalType": "uint256",
          "name": "",
          "type": "uint256"
        }
      ],
      "stateMutability": "pure",
      "type": "function",
      "constant": true
    }
  ],
  "bytecode": "0x608060405234801561001057600080fd5b506106a8806100206000396000f3fe608060405234801561001057600080fd5b50600436106100885760003560e01c8063af99b63f1161005b578063af99b63f14610115578063d253cd3514610133578063d3a057c814610151578063d52c40401461016f57610088565b80630295535f1461008d5780631c3101d3146100ab57806325130084146100c75780636d0cee75146100e5575b600080fd5b61009561018b565b6040516100a291906105d0565b60405180910390f35b6100c560048036038101906100c0919061045b565b6101d1565b005b6100cf6102a7565b6040516100dc919061055a565b60405180910390f35b6100ff60048036038101906100fa9190610484565b6102cb565b60405161010c919061055a565b60405180910390f35b61011d610380565b60405161012a91906105d0565b60405180910390f35b61013b61038d565b60405161014891906105d0565b60405180910390f35b610159610397565b6040516101669190610575565b60405180910390f35b6101896004803603810190610184919061045b565b6103ee565b005b6000806103e890507f6564a39f5b2c2009edfe5ba831c82b12514535bb00488075825bf2d0590cb1f7816040516101c291906105d0565b60405180910390a18091505090565b600073ffffffffffffffffffffffffffffffffffffffff168173ffffffffffffffffffffffffffffffffffffffff161415610241576040517f08c379a0000000000000000000000000000000000000000000000000000000008152600401610238906105b0565b60405180910390fd5b6001819080600181540180825580915050600190039060005260206000200160009091909190916101000a81548173ffffffffffffffffffffffffffffffffffffffff021916908373ffffffffffffffffffffffffffffffffffffffff16021790555050565b60008054906101000a900473ffffffffffffffffffffffffffffffffffffffff1681565b60006001805490508210610314576040517f08c379a000000000000000000000000000000000000000000000000000000000815260040161030b90610590565b60405180910390fd5b6001828154811061034e577f4e487b7100000000000000000000000000000000000000000000000000000000600052603260045260246000fd5b9060005260206000200160009054906101000a900473ffffffffffffffffffffffffffffffffffffffff169050919050565b6000600180549050905090565b6000612710905090565b60008073ffffffffffffffffffffffffffffffffffffffff1660008054906101000a900473ffffffffffffffffffffffffffffffffffffffff1673ffffffffffffffffffffffffffffffffffffffff161415905090565b806000806101000a81548173ffffffffffffffffffffffffffffffffffffffff021916908373ffffffffffffffffffffffffffffffffffffffff16021790555050565b60008135905061044081610644565b92915050565b6000813590506104558161065b565b92915050565b60006020828403121561046d57600080fd5b600061047b84828501610431565b91505092915050565b60006020828403121561049657600080fd5b60006104a484828501610446565b91505092915050565b6104b6816105fc565b82525050565b6104c58161060e565b82525050565b60006104d8600d836105eb565b91507f496e76616c696420696e646578000000000000000000000000000000000000006000830152602082019050919050565b6000610518601e836105eb565b91507f416472657373652062656e6566696369617265206e6f6e2076616c69646500006000830152602082019050919050565b6105548161063a565b82525050565b600060208201905061056f60008301846104ad565b92915050565b600060208201905061058a60008301846104bc565b92915050565b600060208201905081810360008301526105a9816104cb565b9050919050565b600060208201905081810360008301526105c98161050b565b9050919050565b60006020820190506105e5600083018461054b565b92915050565b600082825260208201905092915050565b60006106078261061a565b9050919050565b60008115159050919050565b600073ffffffffffffffffffffffffffffffffffffffff82169050919050565b6000819050919050565b61064d816105fc565b811461065857600080fd5b50565b6106648161063a565b811461066f57600080fd5b5056fea264697066735822122057f42c0fcd201d82ecc559841436344ef01920f4a4a7755c6d0b1ab46c050f8164736f6c63430008000033",
  "immutableReferences": {},
  "source": "// SPDX-License-Identifier: GPL-3.0\r\npragma solidity >=0.7.0 <0.9.0;\r\n\r\n// Contrat du Reverse Oracle\r\ncontract ReverseOracle {\r\n    // Adresse de l'API bancaire\r\n    address public bankAPI;\r\n\r\n    // vnement dclench lorsqu'une rponse est reue de l'API bancaire\r\n    event BankResponse(uint256 rentAmount);\r\n\r\n    //ajouter par meriem\r\n    // Array pour stocker les adresses des bnficiaires de la rpartition du loyer\r\n    address[] private recipients;\r\n\r\n    // Fonction pour configurer l'adresse de l'API bancaire\r\n    function configureBankAPI(address _bankAPI) external {\r\n        bankAPI = _bankAPI;\r\n    }\r\n\r\n    // Fonction pour rcuprer le montant total du loyer  distribuer\r\n    function getRentAmount() external returns (uint256) {\r\n        // Appeler la fonction approprie de l'API bancaire pour obtenir le montant du loyer\r\n        // ...\r\n        // Ici, vous devrez implmenter la logique de communication avec l'API bancaire\r\n\r\n        // Supposons que vous avez reu une rponse de l'API bancaire\r\n        uint256 rentAmount = 1000; // Exemple de montant de loyer\r\n\r\n        // mettre l'vnement de la rponse de l'API bancaire\r\n        emit BankResponse(rentAmount);\r\n\r\n        return rentAmount;\r\n    }\r\n\r\n    //ajouter par meriem - All below\r\n    function isConfigured() external view returns (bool) {\r\n        return bankAPI != address(0);\r\n    }\r\n\r\n    // Recuperer le nombre de beneficiaires pour la distribution du loyer\r\n    function getRecipientCount() external view returns (uint256) {\r\n        return recipients.length;\r\n    }\r\n\r\n    // Ajouter un nouveau beneficiaire pour la distribution du loyer\r\n    function addRecipient(address recipient) external {\r\n        require(recipient != address(0), \"Adresse beneficiare non valide\");\r\n        recipients.push(recipient);\r\n    }\r\n\r\n    // Recuperer l'adresse du beneficiaire par index\r\n    function getRecipient(uint256 index) external view returns (address) {\r\n        require(index < recipients.length, \"Invalid index\");\r\n        return recipients[index];\r\n    }\r\n\r\n    // Recuperer le montant total a distribuer entre les beneficiaires\r\n    function getTotalDistributionAmount() external pure returns (uint256) {\r\n        // Add your logic to calculate the total distribution amount here\r\n        // For example, you can calculate the total based on some other data or condition.\r\n        // For now, let's return a dummy value as an example.\r\n        return 10000;\r\n    }\r\n\r\n}\r\n",
  "sourcePath": "C:\\Users\\0000\\Desktop\\Shareimmo\\shareimmo-dapp\\contracts\\contracts\\ReverseOracle.sol",
  "compiler": {
    "name": "solc",
    "version": "0.8.0+commit.c7dfd78e.Emscripten.clang"
  },
  "schemaVersion": "3.4.15",
  "updatedAt": "2023-08-11T18:26:00.471Z",
  "networkType": "ethereum",
  "devdoc": {
    "kind": "dev",
    "methods": {},
    "version": 1
  },
  "userdoc": {
    "kind": "user",
    "methods": {},
    "version": 1
  }
}